{
  "_format": "hh-sol-artifact-1",
  "contractName": "CharityDAO",
  "sourceName": "blockchain/contracts/CharityDAO_V2.sol",
  "abi": [
    {
      "inputs": [
        {
          "internalType": "uint256",
          "name": "_globalBallotSeclusion",
          "type": "uint256"
        },
        {
          "internalType": "uint256",
          "name": "_globalDeadline",
          "type": "uint256"
        }
      ],
      "stateMutability": "nonpayable",
      "type": "constructor"
    },
    {
      "anonymous": false,
      "inputs": [
        {
          "indexed": false,
          "internalType": "string",
          "name": "message",
          "type": "string"
        }
      ],
      "name": "InfoMessage",
      "type": "event"
    },
    {
      "anonymous": false,
      "inputs": [
        {
          "indexed": false,
          "internalType": "string",
          "name": "message",
          "type": "string"
        }
      ],
      "name": "ThanksMessage",
      "type": "event"
    },
    {
      "stateMutability": "payable",
      "type": "fallback"
    },
    {
      "inputs": [
        {
          "internalType": "address",
          "name": "_member",
          "type": "address"
        }
      ],
      "name": "addAdmin",
      "outputs": [],
      "stateMutability": "nonpayable",
      "type": "function"
    },
    {
      "inputs": [
        {
          "internalType": "uint256",
          "name": "",
          "type": "uint256"
        }
      ],
      "name": "allProposals",
      "outputs": [
        {
          "internalType": "uint256",
          "name": "proposalID",
          "type": "uint256"
        },
        {
          "internalType": "uint256",
          "name": "proposalPrice",
          "type": "uint256"
        },
        {
          "internalType": "uint256",
          "name": "ballotSeclusion",
          "type": "uint256"
        },
        {
          "internalType": "uint256",
          "name": "voteDeadline",
          "type": "uint256"
        },
        {
          "components": [
            {
              "internalType": "uint256",
              "name": "forVotes",
              "type": "uint256"
            },
            {
              "internalType": "uint256",
              "name": "forVotesGov",
              "type": "uint256"
            },
            {
              "internalType": "uint256",
              "name": "againstVotes",
              "type": "uint256"
            },
            {
              "internalType": "uint256",
              "name": "againstVotesGov",
              "type": "uint256"
            }
          ],
          "internalType": "struct CharityDAO.Ballot",
          "name": "ballot",
          "type": "tuple"
        },
        {
          "internalType": "string",
          "name": "proposalName",
          "type": "string"
        },
        {
          "internalType": "string",
          "name": "proposalDesc",
          "type": "string"
        },
        {
          "internalType": "address payable",
          "name": "beneficiaryWallet",
          "type": "address"
        },
        {
          "internalType": "address",
          "name": "proposerWallet",
          "type": "address"
        },
        {
          "components": [
            {
              "internalType": "bool",
              "name": "isProposedByAdmin",
              "type": "bool"
            },
            {
              "internalType": "bool",
              "name": "isApproved",
              "type": "bool"
            },
            {
              "internalType": "bool",
              "name": "isPassed",
              "type": "bool"
            },
            {
              "internalType": "bool",
              "name": "isOver",
              "type": "bool"
            }
          ],
          "internalType": "struct CharityDAO.Status",
          "name": "status",
          "type": "tuple"
        }
      ],
      "stateMutability": "view",
      "type": "function"
    },
    {
      "inputs": [
        {
          "internalType": "bool",
          "name": "_isAnonymous",
          "type": "bool"
        }
      ],
      "name": "donate",
      "outputs": [],
      "stateMutability": "payable",
      "type": "function"
    },
    {
      "inputs": [
        {
          "internalType": "uint256",
          "name": "_id",
          "type": "uint256"
        },
        {
          "internalType": "uint256",
          "name": "_amountOfRights",
          "type": "uint256"
        }
      ],
      "name": "donateVotingRights",
      "outputs": [],
      "stateMutability": "nonpayable",
      "type": "function"
    },
    {
      "inputs": [
        {
          "internalType": "address",
          "name": "",
          "type": "address"
        },
        {
          "internalType": "uint256",
          "name": "",
          "type": "uint256"
        }
      ],
      "name": "hasVotedToProposal",
      "outputs": [
        {
          "internalType": "bool",
          "name": "",
          "type": "bool"
        }
      ],
      "stateMutability": "view",
      "type": "function"
    },
    {
      "inputs": [
        {
          "internalType": "address",
          "name": "",
          "type": "address"
        }
      ],
      "name": "isAdmin",
      "outputs": [
        {
          "internalType": "bool",
          "name": "",
          "type": "bool"
        }
      ],
      "stateMutability": "view",
      "type": "function"
    },
    {
      "inputs": [
        {
          "internalType": "string",
          "name": "_proposalName",
          "type": "string"
        },
        {
          "internalType": "string",
          "name": "_proposalDesc",
          "type": "string"
        },
        {
          "internalType": "uint256",
          "name": "_proposalPrice",
          "type": "uint256"
        },
        {
          "internalType": "address payable",
          "name": "_beneficiaryWallet",
          "type": "address"
        }
      ],
      "name": "makeProposal",
      "outputs": [
        {
          "internalType": "bool",
          "name": "",
          "type": "bool"
        }
      ],
      "stateMutability": "nonpayable",
      "type": "function"
    },
    {
      "inputs": [
        {
          "internalType": "string",
          "name": "_pitch",
          "type": "string"
        }
      ],
      "name": "makeRightsDonationProposal",
      "outputs": [],
      "stateMutability": "nonpayable",
      "type": "function"
    },
    {
      "inputs": [
        {
          "internalType": "address",
          "name": "",
          "type": "address"
        },
        {
          "internalType": "uint256",
          "name": "",
          "type": "uint256"
        }
      ],
      "name": "myProposals",
      "outputs": [
        {
          "internalType": "uint256",
          "name": "proposalID",
          "type": "uint256"
        },
        {
          "internalType": "uint256",
          "name": "proposalPrice",
          "type": "uint256"
        },
        {
          "internalType": "uint256",
          "name": "ballotSeclusion",
          "type": "uint256"
        },
        {
          "internalType": "uint256",
          "name": "voteDeadline",
          "type": "uint256"
        },
        {
          "components": [
            {
              "internalType": "uint256",
              "name": "forVotes",
              "type": "uint256"
            },
            {
              "internalType": "uint256",
              "name": "forVotesGov",
              "type": "uint256"
            },
            {
              "internalType": "uint256",
              "name": "againstVotes",
              "type": "uint256"
            },
            {
              "internalType": "uint256",
              "name": "againstVotesGov",
              "type": "uint256"
            }
          ],
          "internalType": "struct CharityDAO.Ballot",
          "name": "ballot",
          "type": "tuple"
        },
        {
          "internalType": "string",
          "name": "proposalName",
          "type": "string"
        },
        {
          "internalType": "string",
          "name": "proposalDesc",
          "type": "string"
        },
        {
          "internalType": "address payable",
          "name": "beneficiaryWallet",
          "type": "address"
        },
        {
          "internalType": "address",
          "name": "proposerWallet",
          "type": "address"
        },
        {
          "components": [
            {
              "internalType": "bool",
              "name": "isProposedByAdmin",
              "type": "bool"
            },
            {
              "internalType": "bool",
              "name": "isApproved",
              "type": "bool"
            },
            {
              "internalType": "bool",
              "name": "isPassed",
              "type": "bool"
            },
            {
              "internalType": "bool",
              "name": "isOver",
              "type": "bool"
            }
          ],
          "internalType": "struct CharityDAO.Status",
          "name": "status",
          "type": "tuple"
        }
      ],
      "stateMutability": "view",
      "type": "function"
    },
    {
      "inputs": [
        {
          "internalType": "address",
          "name": "",
          "type": "address"
        }
      ],
      "name": "myVotingRightsRequest",
      "outputs": [
        {
          "internalType": "uint256",
          "name": "id",
          "type": "uint256"
        },
        {
          "internalType": "address",
          "name": "proposer",
          "type": "address"
        },
        {
          "internalType": "uint256",
          "name": "hasBeenDonated",
          "type": "uint256"
        },
        {
          "internalType": "string",
          "name": "pitch",
          "type": "string"
        }
      ],
      "stateMutability": "view",
      "type": "function"
    },
    {
      "inputs": [
        {
          "internalType": "uint256",
          "name": "_proposalId",
          "type": "uint256"
        }
      ],
      "name": "processProposal",
      "outputs": [],
      "stateMutability": "nonpayable",
      "type": "function"
    },
    {
      "inputs": [
        {
          "internalType": "address",
          "name": "_member",
          "type": "address"
        }
      ],
      "name": "removeAdmin",
      "outputs": [],
      "stateMutability": "nonpayable",
      "type": "function"
    },
    {
      "inputs": [
        {
          "internalType": "uint256",
          "name": "_id",
          "type": "uint256"
        },
        {
          "internalType": "uint256",
          "name": "_value",
          "type": "uint256"
        }
      ],
      "name": "setBallotSeclusionById",
      "outputs": [],
      "stateMutability": "nonpayable",
      "type": "function"
    },
    {
      "inputs": [
        {
          "internalType": "uint256",
          "name": "_value",
          "type": "uint256"
        }
      ],
      "name": "setGlobalBallotSeclusion",
      "outputs": [],
      "stateMutability": "nonpayable",
      "type": "function"
    },
    {
      "inputs": [
        {
          "internalType": "address",
          "name": "",
          "type": "address"
        }
      ],
      "name": "totalIndividualDonations",
      "outputs": [
        {
          "internalType": "uint256",
          "name": "",
          "type": "uint256"
        }
      ],
      "stateMutability": "view",
      "type": "function"
    },
    {
      "inputs": [
        {
          "internalType": "uint256",
          "name": "_proposalId",
          "type": "uint256"
        },
        {
          "internalType": "bool",
          "name": "_vote",
          "type": "bool"
        }
      ],
      "name": "vote",
      "outputs": [],
      "stateMutability": "nonpayable",
      "type": "function"
    },
    {
      "inputs": [
        {
          "internalType": "address",
          "name": "",
          "type": "address"
        }
      ],
      "name": "votingRights",
      "outputs": [
        {
          "internalType": "uint256",
          "name": "",
          "type": "uint256"
        }
      ],
      "stateMutability": "view",
      "type": "function"
    },
    {
      "inputs": [
        {
          "internalType": "uint256",
          "name": "",
          "type": "uint256"
        }
      ],
      "name": "votingRightsRequestQueue",
      "outputs": [
        {
          "internalType": "uint256",
          "name": "id",
          "type": "uint256"
        },
        {
          "internalType": "address",
          "name": "proposer",
          "type": "address"
        },
        {
          "internalType": "uint256",
          "name": "hasBeenDonated",
          "type": "uint256"
        },
        {
          "internalType": "string",
          "name": "pitch",
          "type": "string"
        }
      ],
      "stateMutability": "view",
      "type": "function"
    },
    {
      "inputs": [],
      "name": "wipeBalance",
      "outputs": [],
      "stateMutability": "nonpayable",
      "type": "function"
    },
    {
      "stateMutability": "payable",
      "type": "receive"
    }
  ],
  "bytecode": "0x60806040523480156200001157600080fd5b50604051620045ab380380620045ab833981810160405281019062000037919062000128565b60648210801562000049575060008210155b6200008b576040517f08c379a0000000000000000000000000000000000000000000000000000000008152600401620000829062000190565b60405180910390fd5b81600081905550806001819055506000600281905550600060038190555060006004819055506001600560003373ffffffffffffffffffffffffffffffffffffffff1673ffffffffffffffffffffffffffffffffffffffff16815260200190815260200160002060006101000a81548160ff021916908315150217905550505062000236565b60008151905062000122816200021c565b92915050565b600080604083850312156200013c57600080fd5b60006200014c8582860162000111565b92505060206200015f8582860162000111565b9150509250929050565b600062000178602a83620001b2565b91506200018582620001cd565b604082019050919050565b60006020820190508181036000830152620001ab8162000169565b9050919050565b600082825260208201905092915050565b6000819050919050565b7f43616e6e6f742063726f7373203939252e2055736520612076616c756520626560008201527f747765656e20302d393900000000000000000000000000000000000000000000602082015250565b6200022781620001c3565b81146200023357600080fd5b50565b61436580620002466000396000f3fe6080604052600436106101185760003560e01c806370bc8539116100a0578063c9d27afe11610064578063c9d27afe1461060e578063d00a71c614610637578063d459156314610660578063e63bc62d14610689578063fda4527a146106b25761022a565b806370bc8539146104fa57806371e8ff01146105375780638c67d4201461054e578063938351b81461058b578063a8fef100146105d15761022a565b80633bcfe167116100e75780633bcfe16714610406578063412fc32a1461042f57806348985deb1461044b578063583f5ba11461049157806370480275146104d15761022a565b80631785f53c1461033757806324d7806c1461036057806327b7c1ba1461039d578063318670cb146103c65761022a565b3661022a5734600960003373ffffffffffffffffffffffffffffffffffffffff1673ffffffffffffffffffffffffffffffffffffffff168152602001908152602001600020600082825461016c9190613974565b9250508190555034600260008282546101859190613974565b92505081905550655af3107a40003461019e91906139ca565b600660003373ffffffffffffffffffffffffffffffffffffffff1673ffffffffffffffffffffffffffffffffffffffff16815260200190815260200160002060008282546101ec9190613974565b925050819055507f3d27d812b049caf41fcc29cadcf63d52ad2b9f285ff79d360653b0a29bd8dbb460405161022090613523565b60405180910390a1005b34600960003373ffffffffffffffffffffffffffffffffffffffff1673ffffffffffffffffffffffffffffffffffffffff16815260200190815260200160002060008282546102799190613974565b9250508190555034600260008282546102929190613974565b92505081905550655af3107a4000346102ab91906139ca565b600660003373ffffffffffffffffffffffffffffffffffffffff1673ffffffffffffffffffffffffffffffffffffffff16815260200190815260200160002060008282546102f99190613974565b925050819055507f3d27d812b049caf41fcc29cadcf63d52ad2b9f285ff79d360653b0a29bd8dbb460405161032d90613523565b60405180910390a1005b34801561034357600080fd5b5061035e60048036038101906103599190612e86565b6106ef565b005b34801561036c57600080fd5b5061038760048036038101906103829190612e86565b6107d6565b6040516103949190613508565b60405180910390f35b3480156103a957600080fd5b506103c460048036038101906103bf9190613055565b6107f6565b005b3480156103d257600080fd5b506103ed60048036038101906103e89190612e86565b6109cb565b6040516103fd94939291906137fe565b60405180910390f35b34801561041257600080fd5b5061042d60048036038101906104289190612faf565b610aa3565b005b61044960048036038101906104449190612eeb565b610d20565b005b34801561045757600080fd5b50610472600480360381019061046d9190612eaf565b610dff565b6040516104889a9998979695949392919061384a565b60405180910390f35b34801561049d57600080fd5b506104b860048036038101906104b39190612ff0565b611068565b6040516104c894939291906137fe565b60405180910390f35b3480156104dd57600080fd5b506104f860048036038101906104f39190612e86565b611150565b005b34801561050657600080fd5b50610521600480360381019061051c9190612eaf565b611237565b60405161052e9190613508565b60405180910390f35b34801561054357600080fd5b5061054c611266565b005b34801561055a57600080fd5b5061057560048036038101906105709190612f14565b61133b565b6040516105829190613508565b60405180910390f35b34801561059757600080fd5b506105b260048036038101906105ad9190612ff0565b611a64565b6040516105c89a9998979695949392919061384a565b60405180910390f35b3480156105dd57600080fd5b506105f860048036038101906105f39190612e86565b611cc0565b60405161060591906137e3565b60405180910390f35b34801561061a57600080fd5b5061063560048036038101906106309190613019565b611cd8565b005b34801561064357600080fd5b5061065e60048036038101906106599190613055565b61220b565b005b34801561066c57600080fd5b5061068760048036038101906106829190612ff0565b61243e565b005b34801561069557600080fd5b506106b060048036038101906106ab9190612ff0565b612559565b005b3480156106be57600080fd5b506106d960048036038101906106d49190612e86565b612cc5565b6040516106e691906137e3565b60405180910390f35b600560003373ffffffffffffffffffffffffffffffffffffffff1673ffffffffffffffffffffffffffffffffffffffff16815260200190815260200160002060009054906101000a900460ff1661077b576040517f08c379a000000000000000000000000000000000000000000000000000000000815260040161077290613723565b60405180910390fd5b6000600560008373ffffffffffffffffffffffffffffffffffffffff1673ffffffffffffffffffffffffffffffffffffffff16815260200190815260200160002060006101000a81548160ff02191690831515021790555050565b60056020528060005260406000206000915054906101000a900460ff1681565b600560003373ffffffffffffffffffffffffffffffffffffffff1673ffffffffffffffffffffffffffffffffffffffff16815260200190815260200160002060009054906101000a900460ff16610882576040517f08c379a000000000000000000000000000000000000000000000000000000000815260040161087990613723565b60405180910390fd5b600c82815481106108bc577f4e487b7100000000000000000000000000000000000000000000000000000000600052603260045260246000fd5b90600052602060002090600d0201600c0160000160019054906101000a900460ff1661091d576040517f08c379a000000000000000000000000000000000000000000000000000000000815260040161091490613763565b60405180910390fd5b6000600c8381548110610959577f4e487b7100000000000000000000000000000000000000000000000000000000600052603260045260246000fd5b90600052602060002090600d0201905080600c0160000160019054906101000a900460ff166109bd576040517f08c379a00000000000000000000000000000000000000000000000000000000081526004016109b490613643565b60405180910390fd5b818160020181905550505050565b600a6020528060005260406000206000915090508060000154908060010160009054906101000a900473ffffffffffffffffffffffffffffffffffffffff1690806002015490806003018054610a2090613b25565b80601f0160208091040260200160405190810160405280929190818152602001828054610a4c90613b25565b8015610a995780601f10610a6e57610100808354040283529160200191610a99565b820191906000526020600020905b815481529060010190602001808311610a7c57829003601f168201915b5050505050905084565b600560003373ffffffffffffffffffffffffffffffffffffffff1673ffffffffffffffffffffffffffffffffffffffff16815260200190815260200160002060009054906101000a900460ff1615610b30576040517f08c379a0000000000000000000000000000000000000000000000000000000008152600401610b2790613543565b60405180910390fd5b6000604051806080016040528060045481526020013373ffffffffffffffffffffffffffffffffffffffff16815260200160008152602001838152509050600b8190806001815401808255809150506001900390600052602060002090600402016000909190919091506000820151816000015560208201518160010160006101000a81548173ffffffffffffffffffffffffffffffffffffffff021916908373ffffffffffffffffffffffffffffffffffffffff160217905550604082015181600201556060820151816003019080519060200190610c11929190612cdd565b50505080600a60003373ffffffffffffffffffffffffffffffffffffffff1673ffffffffffffffffffffffffffffffffffffffff1681526020019081526020016000206000820151816000015560208201518160010160006101000a81548173ffffffffffffffffffffffffffffffffffffffff021916908373ffffffffffffffffffffffffffffffffffffffff160217905550604082015181600201556060820151816003019080519060200190610ccb929190612cdd565b5090505060046000815480929190610ce290613b88565b91905055507fcbd46a911831c76d92578ceca757258656add2111ee59ac2ebb757df9708180b604051610d1490613703565b60405180910390a15050565b3460026000828254610d329190613974565b9250508190555080610dfc5734600960003373ffffffffffffffffffffffffffffffffffffffff1673ffffffffffffffffffffffffffffffffffffffff1681526020019081526020016000206000828254610d8d9190613974565b92505081905550655af3107a400034610da691906139ca565b600660003373ffffffffffffffffffffffffffffffffffffffff1673ffffffffffffffffffffffffffffffffffffffff1681526020019081526020016000206000828254610df49190613974565b925050819055505b50565b60076020528160005260406000208181548110610e1b57600080fd5b90600052602060002090600d0201600091509150508060000154908060010154908060020154908060030154908060040160405180608001604052908160008201548152602001600182015481526020016002820154815260200160038201548152505090806008018054610e8f90613b25565b80601f0160208091040260200160405190810160405280929190818152602001828054610ebb90613b25565b8015610f085780601f10610edd57610100808354040283529160200191610f08565b820191906000526020600020905b815481529060010190602001808311610eeb57829003601f168201915b505050505090806009018054610f1d90613b25565b80601f0160208091040260200160405190810160405280929190818152602001828054610f4990613b25565b8015610f965780601f10610f6b57610100808354040283529160200191610f96565b820191906000526020600020905b815481529060010190602001808311610f7957829003601f168201915b50505050509080600a0160009054906101000a900473ffffffffffffffffffffffffffffffffffffffff169080600b0160009054906101000a900473ffffffffffffffffffffffffffffffffffffffff169080600c016040518060800160405290816000820160009054906101000a900460ff161515151581526020016000820160019054906101000a900460ff161515151581526020016000820160029054906101000a900460ff161515151581526020016000820160039054906101000a900460ff16151515158152505090508a565b600b818154811061107857600080fd5b90600052602060002090600402016000915090508060000154908060010160009054906101000a900473ffffffffffffffffffffffffffffffffffffffff16908060020154908060030180546110cd90613b25565b80601f01602080910402602001604051908101604052809291908181526020018280546110f990613b25565b80156111465780601f1061111b57610100808354040283529160200191611146565b820191906000526020600020905b81548152906001019060200180831161112957829003601f168201915b5050505050905084565b600560003373ffffffffffffffffffffffffffffffffffffffff1673ffffffffffffffffffffffffffffffffffffffff16815260200190815260200160002060009054906101000a900460ff166111dc576040517f08c379a00000000000000000000000000000000000000000000000000000000081526004016111d390613723565b60405180910390fd5b6001600560008373ffffffffffffffffffffffffffffffffffffffff1673ffffffffffffffffffffffffffffffffffffffff16815260200190815260200160002060006101000a81548160ff02191690831515021790555050565b60086020528160005260406000206020528060005260406000206000915091509054906101000a900460ff1681565b600560003373ffffffffffffffffffffffffffffffffffffffff1673ffffffffffffffffffffffffffffffffffffffff16815260200190815260200160002060009054906101000a900460ff166112f2576040517f08c379a00000000000000000000000000000000000000000000000000000000081526004016112e990613623565b60405180910390fd5b3373ffffffffffffffffffffffffffffffffffffffff166108fc479081150290604051600060405180830381858888f19350505050158015611338573d6000803e3d6000fd5b50565b600080600960003373ffffffffffffffffffffffffffffffffffffffff1673ffffffffffffffffffffffffffffffffffffffff1681526020019081526020016000205411806113da575060011515600560003373ffffffffffffffffffffffffffffffffffffffff1673ffffffffffffffffffffffffffffffffffffffff16815260200190815260200160002060009054906101000a900460ff161515145b611419576040517f08c379a0000000000000000000000000000000000000000000000000000000008152600401611410906135e3565b60405180910390fd5b6000600560003373ffffffffffffffffffffffffffffffffffffffff1673ffffffffffffffffffffffffffffffffffffffff16815260200190815260200160002060009054906101000a900460ff1690506000600560003373ffffffffffffffffffffffffffffffffffffffff1673ffffffffffffffffffffffffffffffffffffffff16815260200190815260200160002060009054906101000a900460ff16905060006040518061014001604052806003548152602001878152602001600054815260200160015481526020016040518060800160405280600081526020016000815260200160008152602001600081525081526020018b8b8080601f016020809104026020016040519081016040528093929190818152602001838380828437600081840152601f19601f82011690508083019250505050505050815260200189898080601f016020809104026020016040519081016040528093929190818152602001838380828437600081840152601f19601f8201169050808301925050505050505081526020018673ffffffffffffffffffffffffffffffffffffffff1681526020013373ffffffffffffffffffffffffffffffffffffffff168152602001604051806080016040528086151581526020018515158152602001600015158152602001600015158152508152509050600c8190806001815401808255809150506001900390600052602060002090600d02016000909190919091506000820151816000015560208201518160010155604082015181600201556060820151816003015560808201518160040160008201518160000155602082015181600101556040820151816002015560608201518160030155505060a08201518160080190805190602001906116b0929190612cdd565b5060c08201518160090190805190602001906116cd929190612cdd565b5060e082015181600a0160006101000a81548173ffffffffffffffffffffffffffffffffffffffff021916908373ffffffffffffffffffffffffffffffffffffffff16021790555061010082015181600b0160006101000a81548173ffffffffffffffffffffffffffffffffffffffff021916908373ffffffffffffffffffffffffffffffffffffffff16021790555061012082015181600c0160008201518160000160006101000a81548160ff02191690831515021790555060208201518160000160016101000a81548160ff02191690831515021790555060408201518160000160026101000a81548160ff02191690831515021790555060608201518160000160036101000a81548160ff02191690831515021790555050505050600760003373ffffffffffffffffffffffffffffffffffffffff1673ffffffffffffffffffffffffffffffffffffffff1681526020019081526020016000208190806001815401808255809150506001900390600052602060002090600d02016000909190919091506000820151816000015560208201518160010155604082015181600201556060820151816003015560808201518160040160008201518160000155602082015181600101556040820151816002015560608201518160030155505060a08201518160080190805190602001906118cb929190612cdd565b5060c08201518160090190805190602001906118e8929190612cdd565b5060e082015181600a0160006101000a81548173ffffffffffffffffffffffffffffffffffffffff021916908373ffffffffffffffffffffffffffffffffffffffff16021790555061010082015181600b0160006101000a81548173ffffffffffffffffffffffffffffffffffffffff021916908373ffffffffffffffffffffffffffffffffffffffff16021790555061012082015181600c0160008201518160000160006101000a81548160ff02191690831515021790555060208201518160000160016101000a81548160ff02191690831515021790555060408201518160000160026101000a81548160ff02191690831515021790555060608201518160000160036101000a81548160ff0219169083151502179055505050505060036000815480929190611a1990613b88565b91905055507fcbd46a911831c76d92578ceca757258656add2111ee59ac2ebb757df9708180b604051611a4b906137a3565b60405180910390a1600193505050509695505050505050565b600c8181548110611a7457600080fd5b90600052602060002090600d02016000915090508060000154908060010154908060020154908060030154908060040160405180608001604052908160008201548152602001600182015481526020016002820154815260200160038201548152505090806008018054611ae790613b25565b80601f0160208091040260200160405190810160405280929190818152602001828054611b1390613b25565b8015611b605780601f10611b3557610100808354040283529160200191611b60565b820191906000526020600020905b815481529060010190602001808311611b4357829003601f168201915b505050505090806009018054611b7590613b25565b80601f0160208091040260200160405190810160405280929190818152602001828054611ba190613b25565b8015611bee5780601f10611bc357610100808354040283529160200191611bee565b820191906000526020600020905b815481529060010190602001808311611bd157829003601f168201915b50505050509080600a0160009054906101000a900473ffffffffffffffffffffffffffffffffffffffff169080600b0160009054906101000a900473ffffffffffffffffffffffffffffffffffffffff169080600c016040518060800160405290816000820160009054906101000a900460ff161515151581526020016000820160019054906101000a900460ff161515151581526020016000820160029054906101000a900460ff161515151581526020016000820160039054906101000a900460ff16151515158152505090508a565b60066020528060005260406000206000915090505481565b81600c8181548110611d13577f4e487b7100000000000000000000000000000000000000000000000000000000600052603260045260246000fd5b90600052602060002090600d0201600301544210611d66576040517f08c379a0000000000000000000000000000000000000000000000000000000008152600401611d5d90613683565b60405180910390fd5b600860003373ffffffffffffffffffffffffffffffffffffffff1673ffffffffffffffffffffffffffffffffffffffff168152602001908152602001600020600084815260200190815260200160002060009054906101000a900460ff1615611e04576040517f08c379a0000000000000000000000000000000000000000000000000000000008152600401611dfb906136a3565b60405180910390fd5b600c8381548110611e3e577f4e487b7100000000000000000000000000000000000000000000000000000000600052603260045260246000fd5b90600052602060002090600d0201600c0160000160039054906101000a900460ff1615611ea0576040517f08c379a0000000000000000000000000000000000000000000000000000000008152600401611e9790613603565b60405180910390fd5b6000600c8481548110611edc577f4e487b7100000000000000000000000000000000000000000000000000000000600052603260045260246000fd5b90600052602060002090600d02019050828015611f425750600560003373ffffffffffffffffffffffffffffffffffffffff1673ffffffffffffffffffffffffffffffffffffffff16815260200190815260200160002060009054906101000a900460ff165b15611f6b576001816004016001016000828254611f5f9190613974565b92505081905550612167565b828015611fc25750600560003373ffffffffffffffffffffffffffffffffffffffff1673ffffffffffffffffffffffffffffffffffffffff16815260200190815260200160002060009054906101000a900460ff16155b1561202957600660003373ffffffffffffffffffffffffffffffffffffffff1673ffffffffffffffffffffffffffffffffffffffff1681526020019081526020016000205481600401600001600082825461201d9190613974565b92505081905550612166565b821580156120805750600560003373ffffffffffffffffffffffffffffffffffffffff1673ffffffffffffffffffffffffffffffffffffffff16815260200190815260200160002060009054906101000a900460ff165b156120a957600181600401600301600082825461209d9190613974565b92505081905550612165565b821580156121015750600560003373ffffffffffffffffffffffffffffffffffffffff1673ffffffffffffffffffffffffffffffffffffffff16815260200190815260200160002060009054906101000a900460ff16155b1561216457600660003373ffffffffffffffffffffffffffffffffffffffff1673ffffffffffffffffffffffffffffffffffffffff1681526020019081526020016000205481600401600201600082825461215c9190613974565b925050819055505b5b5b5b6001600860003373ffffffffffffffffffffffffffffffffffffffff1673ffffffffffffffffffffffffffffffffffffffff168152602001908152602001600020600086815260200190815260200160002060006101000a81548160ff0219169083151502179055507fcbd46a911831c76d92578ceca757258656add2111ee59ac2ebb757df9708180b6040516121fd906135a3565b60405180910390a150505050565b600660003373ffffffffffffffffffffffffffffffffffffffff1673ffffffffffffffffffffffffffffffffffffffff16815260200190815260200160002054811061228c576040517f08c379a0000000000000000000000000000000000000000000000000000000008152600401612283906136c3565b60405180910390fd5b80600b83815481106122c7577f4e487b7100000000000000000000000000000000000000000000000000000000600052603260045260246000fd5b906000526020600020906004020160020160008282546122e79190613974565b925050819055508060066000600b858154811061232d577f4e487b7100000000000000000000000000000000000000000000000000000000600052603260045260246000fd5b906000526020600020906004020160010160009054906101000a900473ffffffffffffffffffffffffffffffffffffffff1673ffffffffffffffffffffffffffffffffffffffff1673ffffffffffffffffffffffffffffffffffffffff16815260200190815260200160002060008282546123a89190613974565b9250508190555080600660003373ffffffffffffffffffffffffffffffffffffffff1673ffffffffffffffffffffffffffffffffffffffff16815260200190815260200160002060008282546123fe9190613a55565b925050819055507fcbd46a911831c76d92578ceca757258656add2111ee59ac2ebb757df9708180b604051612432906136e3565b60405180910390a15050565b600560003373ffffffffffffffffffffffffffffffffffffffff1673ffffffffffffffffffffffffffffffffffffffff16815260200190815260200160002060009054906101000a900460ff166124ca576040517f08c379a00000000000000000000000000000000000000000000000000000000081526004016124c190613723565b60405180910390fd5b6064811080156124db575060008110155b61251a576040517f08c379a0000000000000000000000000000000000000000000000000000000008152600401612511906135c3565b60405180910390fd5b806000819055507fcbd46a911831c76d92578ceca757258656add2111ee59ac2ebb757df9708180b60405161254e90613563565b60405180910390a150565b80600c8181548110612594577f4e487b7100000000000000000000000000000000000000000000000000000000600052603260045260246000fd5b90600052602060002090600d0201600301544210156125e8576040517f08c379a00000000000000000000000000000000000000000000000000000000081526004016125df90613583565b60405180910390fd5b600c8281548110612622577f4e487b7100000000000000000000000000000000000000000000000000000000600052603260045260246000fd5b90600052602060002090600d0201600c0160000160039054906101000a900460ff1615612684576040517f08c379a000000000000000000000000000000000000000000000000000000000815260040161267b906137c3565b60405180910390fd5b600c82815481106126be577f4e487b7100000000000000000000000000000000000000000000000000000000600052603260045260246000fd5b90600052602060002090600d0201600c0160000160019054906101000a900460ff1661271f576040517f08c379a000000000000000000000000000000000000000000000000000000000815260040161271690613663565b60405180910390fd5b47600c838154811061275a577f4e487b7100000000000000000000000000000000000000000000000000000000600052603260045260246000fd5b90600052602060002090600d020160010154106127ac576040517f08c379a00000000000000000000000000000000000000000000000000000000081526004016127a390613783565b60405180910390fd5b6000600c83815481106127e8577f4e487b7100000000000000000000000000000000000000000000000000000000600052603260045260246000fd5b90600052602060002090600d0201600401905060008160030154826001015411612813576000612816565b60015b905060008260020154836000015411612830576000612833565b60015b9050600081612843576000612846565b60015b60ff16600c8781548110612883577f4e487b7100000000000000000000000000000000000000000000000000000000600052603260045260246000fd5b90600052602060002090600d02016002015460646128a19190613a55565b6128ab91906139fb565b836128b75760006128ba565b60015b60ff16600c88815481106128f7577f4e487b7100000000000000000000000000000000000000000000000000000000600052603260045260246000fd5b90600052602060002090600d02016002015461291391906139fb565b61291d9190613974565b90506032811115612bee5747600c8781548110612963577f4e487b7100000000000000000000000000000000000000000000000000000000600052603260045260246000fd5b90600052602060002090600d020160010154106129b5576040517f08c379a00000000000000000000000000000000000000000000000000000000081526004016129ac90613783565b60405180910390fd5b6001600c87815481106129f1577f4e487b7100000000000000000000000000000000000000000000000000000000600052603260045260246000fd5b90600052602060002090600d0201600c0160000160026101000a81548160ff0219169083151502179055506001600c8781548110612a58577f4e487b7100000000000000000000000000000000000000000000000000000000600052603260045260246000fd5b90600052602060002090600d0201600c0160000160036101000a81548160ff021916908315150217905550600080600c8881548110612ac0577f4e487b7100000000000000000000000000000000000000000000000000000000600052603260045260246000fd5b90600052602060002090600d0201600a0160009054906101000a900473ffffffffffffffffffffffffffffffffffffffff1673ffffffffffffffffffffffffffffffffffffffff16600c8981548110612b42577f4e487b7100000000000000000000000000000000000000000000000000000000600052603260045260246000fd5b90600052602060002090600d020160010154604051612b60906134f3565b60006040518083038185875af1925050503d8060008114612b9d576040519150601f19603f3d011682016040523d82523d6000602084013e612ba2565b606091505b509150915081612be7576040517f08c379a0000000000000000000000000000000000000000000000000000000008152600401612bde90613743565b60405180910390fd5b5050612cbd565b6000600c8781548110612c2a577f4e487b7100000000000000000000000000000000000000000000000000000000600052603260045260246000fd5b90600052602060002090600d0201600c0160000160026101000a81548160ff0219169083151502179055506001600c8781548110612c91577f4e487b7100000000000000000000000000000000000000000000000000000000600052603260045260246000fd5b90600052602060002090600d0201600c0160000160036101000a81548160ff0219169083151502179055505b505050505050565b60096020528060005260406000206000915090505481565b828054612ce990613b25565b90600052602060002090601f016020900481019282612d0b5760008555612d52565b82601f10612d2457805160ff1916838001178555612d52565b82800160010185558215612d52579182015b82811115612d51578251825591602001919060010190612d36565b5b509050612d5f9190612d63565b5090565b5b80821115612d7c576000816000905550600101612d64565b5090565b6000612d93612d8e8461391c565b6138f7565b905082815260208101848484011115612dab57600080fd5b612db6848285613ae3565b509392505050565b600081359050612dcd816142d3565b92915050565b600081359050612de2816142ea565b92915050565b600081359050612df781614301565b92915050565b60008083601f840112612e0f57600080fd5b8235905067ffffffffffffffff811115612e2857600080fd5b602083019150836001820283011115612e4057600080fd5b9250929050565b600082601f830112612e5857600080fd5b8135612e68848260208601612d80565b91505092915050565b600081359050612e8081614318565b92915050565b600060208284031215612e9857600080fd5b6000612ea684828501612dbe565b91505092915050565b60008060408385031215612ec257600080fd5b6000612ed085828601612dbe565b9250506020612ee185828601612e71565b9150509250929050565b600060208284031215612efd57600080fd5b6000612f0b84828501612de8565b91505092915050565b60008060008060008060808789031215612f2d57600080fd5b600087013567ffffffffffffffff811115612f4757600080fd5b612f5389828a01612dfd565b9650965050602087013567ffffffffffffffff811115612f7257600080fd5b612f7e89828a01612dfd565b94509450506040612f9189828a01612e71565b9250506060612fa289828a01612dd3565b9150509295509295509295565b600060208284031215612fc157600080fd5b600082013567ffffffffffffffff811115612fdb57600080fd5b612fe784828501612e47565b91505092915050565b60006020828403121561300257600080fd5b600061301084828501612e71565b91505092915050565b6000806040838503121561302c57600080fd5b600061303a85828601612e71565b925050602061304b85828601612de8565b9150509250929050565b6000806040838503121561306857600080fd5b600061307685828601612e71565b925050602061308785828601612e71565b9150509250929050565b61309a81613a9b565b82525050565b6130a981613a89565b82525050565b6130b881613aad565b82525050565b6130c781613aad565b82525050565b60006130d88261394d565b6130e28185613963565b93506130f2818560208601613af2565b6130fb81613c8d565b840191505092915050565b6000613113603883613963565b915061311e82613c9e565b604082019050919050565b6000613136601483613963565b915061314182613ced565b602082019050919050565b6000613159604983613963565b915061316482613d16565b606082019050919050565b600061317c601783613963565b915061318782613d8b565b602082019050919050565b600061319f602783613963565b91506131aa82613db4565b604082019050919050565b60006131c2602a83613963565b91506131cd82613e03565b604082019050919050565b60006131e5603c83613963565b91506131f082613e52565b604082019050919050565b6000613208602e83613963565b915061321382613ea1565b604082019050919050565b600061322b602583613963565b915061323682613ef0565b604082019050919050565b600061324e603d83613963565b915061325982613f3f565b604082019050919050565b6000613271602783613963565b915061327c82613f8e565b604082019050919050565b6000613294601b83613963565b915061329f82613fdd565b602082019050919050565b60006132b7602f83613963565b91506132c282614006565b604082019050919050565b60006132da602983613963565b91506132e582614055565b604082019050919050565b60006132fd602a83613963565b9150613308826140a4565b604082019050919050565b6000613320603f83613963565b915061332b826140f3565b604082019050919050565b6000613343602a83613963565b915061334e82614142565b604082019050919050565b6000613366601283613963565b915061337182614191565b602082019050919050565b6000613389600083613958565b9150613394826141ba565b600082019050919050565b60006133ac601b83613963565b91506133b7826141bd565b602082019050919050565b60006133cf604783613963565b91506133da826141e6565b606082019050919050565b60006133f2602e83613963565b91506133fd8261425b565b604082019050919050565b6000613415601183613963565b9150613420826142aa565b602082019050919050565b60808201600082015161344160008501826134d5565b50602082015161345460208501826134d5565b50604082015161346760408501826134d5565b50606082015161347a60608501826134d5565b50505050565b60808201600082015161349660008501826130af565b5060208201516134a960208501826130af565b5060408201516134bc60408501826130af565b5060608201516134cf60608501826130af565b50505050565b6134de81613ad9565b82525050565b6134ed81613ad9565b82525050565b60006134fe8261337c565b9150819050919050565b600060208201905061351d60008301846130be565b92915050565b6000602082019050818103600083015261353c81613106565b9050919050565b6000602082019050818103600083015261355c81613129565b9050919050565b6000602082019050818103600083015261357c8161314c565b9050919050565b6000602082019050818103600083015261359c8161316f565b9050919050565b600060208201905081810360008301526135bc81613192565b9050919050565b600060208201905081810360008301526135dc816131b5565b9050919050565b600060208201905081810360008301526135fc816131d8565b9050919050565b6000602082019050818103600083015261361c816131fb565b9050919050565b6000602082019050818103600083015261363c8161321e565b9050919050565b6000602082019050818103600083015261365c81613241565b9050919050565b6000602082019050818103600083015261367c81613264565b9050919050565b6000602082019050818103600083015261369c81613287565b9050919050565b600060208201905081810360008301526136bc816132aa565b9050919050565b600060208201905081810360008301526136dc816132cd565b9050919050565b600060208201905081810360008301526136fc816132f0565b9050919050565b6000602082019050818103600083015261371c81613313565b9050919050565b6000602082019050818103600083015261373c81613336565b9050919050565b6000602082019050818103600083015261375c81613359565b9050919050565b6000602082019050818103600083015261377c8161339f565b9050919050565b6000602082019050818103600083015261379c816133c2565b9050919050565b600060208201905081810360008301526137bc816133e5565b9050919050565b600060208201905081810360008301526137dc81613408565b9050919050565b60006020820190506137f860008301846134e4565b92915050565b600060808201905061381360008301876134e4565b61382060208301866130a0565b61382d60408301856134e4565b818103606083015261383f81846130cd565b905095945050505050565b600061020082019050613860600083018d6134e4565b61386d602083018c6134e4565b61387a604083018b6134e4565b613887606083018a6134e4565b613894608083018961342b565b8181036101008301526138a781886130cd565b90508181036101208301526138bc81876130cd565b90506138cc610140830186613091565b6138da6101608301856130a0565b6138e8610180830184613480565b9b9a5050505050505050505050565b6000613901613912565b905061390d8282613b57565b919050565b6000604051905090565b600067ffffffffffffffff82111561393757613936613c5e565b5b61394082613c8d565b9050602081019050919050565b600081519050919050565b600081905092915050565b600082825260208201905092915050565b600061397f82613ad9565b915061398a83613ad9565b9250827fffffffffffffffffffffffffffffffffffffffffffffffffffffffffffffffff038211156139bf576139be613bd1565b5b828201905092915050565b60006139d582613ad9565b91506139e083613ad9565b9250826139f0576139ef613c00565b5b828204905092915050565b6000613a0682613ad9565b9150613a1183613ad9565b9250817fffffffffffffffffffffffffffffffffffffffffffffffffffffffffffffffff0483118215151615613a4a57613a49613bd1565b5b828202905092915050565b6000613a6082613ad9565b9150613a6b83613ad9565b925082821015613a7e57613a7d613bd1565b5b828203905092915050565b6000613a9482613ab9565b9050919050565b6000613aa682613ab9565b9050919050565b60008115159050919050565b600073ffffffffffffffffffffffffffffffffffffffff82169050919050565b6000819050919050565b82818337600083830152505050565b60005b83811015613b10578082015181840152602081019050613af5565b83811115613b1f576000848401525b50505050565b60006002820490506001821680613b3d57607f821691505b60208210811415613b5157613b50613c2f565b5b50919050565b613b6082613c8d565b810181811067ffffffffffffffff82111715613b7f57613b7e613c5e565b5b80604052505050565b6000613b9382613ad9565b91507fffffffffffffffffffffffffffffffffffffffffffffffffffffffffffffffff821415613bc657613bc5613bd1565b5b600182019050919050565b7f4e487b7100000000000000000000000000000000000000000000000000000000600052601160045260246000fd5b7f4e487b7100000000000000000000000000000000000000000000000000000000600052601260045260246000fd5b7f4e487b7100000000000000000000000000000000000000000000000000000000600052602260045260246000fd5b7f4e487b7100000000000000000000000000000000000000000000000000000000600052604160045260246000fd5b6000601f19601f8301169050919050565b7f5468616e6b20796f7520666f7220646f6e6174696e672c20596f75206861766560008201527f20726563696576656420566f74696e6720526967687473210000000000000000602082015250565b7f41646d696e732063616e27742072657175657374000000000000000000000000600082015250565b7f4e657720476c6f62616c2056616c7565207365742e2057696c6c20626520757060008201527f646174656420696e20616c6c206e65772070726f706f73616c73206d6164652060208201527f6865726561667465720000000000000000000000000000000000000000000000604082015250565b7f446561646c696e65206e6f742070617373656420796574000000000000000000600082015250565b7f596f757220766f746520686173206265656e206361737465642073756363657360008201527f7366756c6c792100000000000000000000000000000000000000000000000000602082015250565b7f43616e6e6f742063726f7373203939252e2055736520612076616c756520626560008201527f747765656e20302d393900000000000000000000000000000000000000000000602082015250565b7f4d757374206861766520646f6e61746564206f722073686f756c64206265206160008201527f6e2061646d696e20746f2063726561746520612070726f706f73616c00000000602082015250565b7f416c72656164792050726f63657373656420616e642063616e6e6f742062652060008201527f766f7465642075706f6e206e6f77000000000000000000000000000000000000602082015250565b7f5265717565737465722073686f756c6420626520616e2061646d696e206f666660008201527f696369616c000000000000000000000000000000000000000000000000000000602082015250565b7f556e617070726f7665642070726f706f73616c732063616e6e6f7420756e646560008201527f72676f20612062616c6c6f74207365636c7573696f6e206368616e6765000000602082015250565b7f556e617070726f7665642070726f706f73616c732063616e277420626520707260008201527f6f63657373656400000000000000000000000000000000000000000000000000602082015250565b7f446561646c696e652068617320616c7265616479207061737365640000000000600082015250565b7f416c726561647920766f74656420666f7220746869732070726f706f73616c2e60008201527f2043616e6e6f742072652d636173740000000000000000000000000000000000602082015250565b7f4e6f7420656e6f75676820746f20646f6e61746520746865207265717565737460008201527f656420616d6f756e740000000000000000000000000000000000000000000000602082015250565b7f596f75722072696768747320686173206265656e20646f6e617465642073756360008201527f6365737366756c6c792100000000000000000000000000000000000000000000602082015250565b7f596f757220275269676874732720446f6e6174696f6e2072657175657374206860008201527f6173206265656e207375626d6974746564207375636365737366756c6c792100602082015250565b7f54686973206d6574686f642063616e206f6e6c792062652063616c6c6564206260008201527f7920616e2061646d696e00000000000000000000000000000000000000000000602082015250565b7f5472616e73616374696f6e206661696c65640000000000000000000000000000600082015250565b50565b7f5468652070726f706f73616c2069736e277420617070726f7665640000000000600082015250565b7f4e6f7420656e6f7567682066756e647320746f2073656e642069662070726f7060008201527f6f73616c2073756363656564732e20576169742074696c6c207472656173757260208201527f792067726f777300000000000000000000000000000000000000000000000000604082015250565b7f596f75722050726f706f73616c20686173206265656e207375626d697474656460008201527f207375636365737366756c6c7921000000000000000000000000000000000000602082015250565b7f416c72656164792050726f636573736564000000000000000000000000000000600082015250565b6142dc81613a89565b81146142e757600080fd5b50565b6142f381613a9b565b81146142fe57600080fd5b50565b61430a81613aad565b811461431557600080fd5b50565b61432181613ad9565b811461432c57600080fd5b5056fea264697066735822122082027df7421a6389f454e97cd6e9069001ae4f592128a8b4677203e77cac987264736f6c63430008040033",
  "linkReferences": {},
  "deployedLinkReferences": {}
}