{
  "blockchain/contracts/CharityDAO_V2.sol": {
    "CharityDAO": {
      "abi": [
        {
          "inputs": [
            {
              "internalType": "uint256",
              "name": "_globalBallotSeclusion",
              "type": "uint256"
            },
            {
              "internalType": "uint256",
              "name": "_globalDeadline",
              "type": "uint256"
            }
          ],
          "stateMutability": "nonpayable",
          "type": "constructor"
        },
        {
          "anonymous": false,
          "inputs": [
            {
              "indexed": false,
              "internalType": "string",
              "name": "message",
              "type": "string"
            }
          ],
          "name": "InfoMessage",
          "type": "event"
        },
        {
          "anonymous": false,
          "inputs": [
            {
              "indexed": false,
              "internalType": "string",
              "name": "message",
              "type": "string"
            }
          ],
          "name": "ThanksMessage",
          "type": "event"
        },
        {
          "stateMutability": "payable",
          "type": "fallback"
        },
        {
          "inputs": [
            {
              "internalType": "address",
              "name": "_member",
              "type": "address"
            }
          ],
          "name": "addAdmin",
          "outputs": [],
          "stateMutability": "nonpayable",
          "type": "function"
        },
        {
          "inputs": [
            {
              "internalType": "uint256",
              "name": "",
              "type": "uint256"
            }
          ],
          "name": "allProposals",
          "outputs": [
            {
              "internalType": "uint256",
              "name": "proposalID",
              "type": "uint256"
            },
            {
              "internalType": "uint256",
              "name": "proposalPrice",
              "type": "uint256"
            },
            {
              "internalType": "uint256",
              "name": "ballotSeclusion",
              "type": "uint256"
            },
            {
              "internalType": "uint256",
              "name": "voteDeadline",
              "type": "uint256"
            },
            {
              "components": [
                {
                  "internalType": "uint256",
                  "name": "forVotes",
                  "type": "uint256"
                },
                {
                  "internalType": "uint256",
                  "name": "forVotesGov",
                  "type": "uint256"
                },
                {
                  "internalType": "uint256",
                  "name": "againstVotes",
                  "type": "uint256"
                },
                {
                  "internalType": "uint256",
                  "name": "againstVotesGov",
                  "type": "uint256"
                }
              ],
              "internalType": "struct CharityDAO.Ballot",
              "name": "ballot",
              "type": "tuple"
            },
            {
              "internalType": "string",
              "name": "proposalName",
              "type": "string"
            },
            {
              "internalType": "string",
              "name": "proposalDesc",
              "type": "string"
            },
            {
              "internalType": "address payable",
              "name": "beneficiaryWallet",
              "type": "address"
            },
            {
              "internalType": "address",
              "name": "proposerWallet",
              "type": "address"
            },
            {
              "internalType": "bool",
              "name": "isProposedByAdmin",
              "type": "bool"
            },
            {
              "internalType": "bool",
              "name": "isApproved",
              "type": "bool"
            },
            {
              "internalType": "bool",
              "name": "isPassed",
              "type": "bool"
            }
          ],
          "stateMutability": "view",
          "type": "function"
        },
        {
          "inputs": [
            {
              "internalType": "bool",
              "name": "_isAnonymous",
              "type": "bool"
            }
          ],
          "name": "donate",
          "outputs": [],
          "stateMutability": "payable",
          "type": "function"
        },
        {
          "inputs": [
            {
              "internalType": "uint256",
              "name": "_id",
              "type": "uint256"
            },
            {
              "internalType": "uint256",
              "name": "_amountOfRights",
              "type": "uint256"
            }
          ],
          "name": "donateVotingRights",
          "outputs": [],
          "stateMutability": "nonpayable",
          "type": "function"
        },
        {
          "inputs": [
            {
              "internalType": "address",
              "name": "",
              "type": "address"
            },
            {
              "internalType": "uint256",
              "name": "",
              "type": "uint256"
            }
          ],
          "name": "hasVotedToProposal",
          "outputs": [
            {
              "internalType": "bool",
              "name": "",
              "type": "bool"
            }
          ],
          "stateMutability": "view",
          "type": "function"
        },
        {
          "inputs": [
            {
              "internalType": "address",
              "name": "",
              "type": "address"
            }
          ],
          "name": "isAdmin",
          "outputs": [
            {
              "internalType": "bool",
              "name": "",
              "type": "bool"
            }
          ],
          "stateMutability": "view",
          "type": "function"
        },
        {
          "inputs": [
            {
              "internalType": "string",
              "name": "_proposalName",
              "type": "string"
            },
            {
              "internalType": "string",
              "name": "_proposalDesc",
              "type": "string"
            },
            {
              "internalType": "uint256",
              "name": "_proposalPrice",
              "type": "uint256"
            },
            {
              "internalType": "address payable",
              "name": "_beneficiaryWallet",
              "type": "address"
            }
          ],
          "name": "makeProposal",
          "outputs": [
            {
              "internalType": "bool",
              "name": "",
              "type": "bool"
            }
          ],
          "stateMutability": "nonpayable",
          "type": "function"
        },
        {
          "inputs": [
            {
              "internalType": "string",
              "name": "_pitch",
              "type": "string"
            }
          ],
          "name": "makeRightsDonationProposal",
          "outputs": [],
          "stateMutability": "nonpayable",
          "type": "function"
        },
        {
          "inputs": [
            {
              "internalType": "address",
              "name": "",
              "type": "address"
            },
            {
              "internalType": "uint256",
              "name": "",
              "type": "uint256"
            }
          ],
          "name": "myProposals",
          "outputs": [
            {
              "internalType": "uint256",
              "name": "proposalID",
              "type": "uint256"
            },
            {
              "internalType": "uint256",
              "name": "proposalPrice",
              "type": "uint256"
            },
            {
              "internalType": "uint256",
              "name": "ballotSeclusion",
              "type": "uint256"
            },
            {
              "internalType": "uint256",
              "name": "voteDeadline",
              "type": "uint256"
            },
            {
              "components": [
                {
                  "internalType": "uint256",
                  "name": "forVotes",
                  "type": "uint256"
                },
                {
                  "internalType": "uint256",
                  "name": "forVotesGov",
                  "type": "uint256"
                },
                {
                  "internalType": "uint256",
                  "name": "againstVotes",
                  "type": "uint256"
                },
                {
                  "internalType": "uint256",
                  "name": "againstVotesGov",
                  "type": "uint256"
                }
              ],
              "internalType": "struct CharityDAO.Ballot",
              "name": "ballot",
              "type": "tuple"
            },
            {
              "internalType": "string",
              "name": "proposalName",
              "type": "string"
            },
            {
              "internalType": "string",
              "name": "proposalDesc",
              "type": "string"
            },
            {
              "internalType": "address payable",
              "name": "beneficiaryWallet",
              "type": "address"
            },
            {
              "internalType": "address",
              "name": "proposerWallet",
              "type": "address"
            },
            {
              "internalType": "bool",
              "name": "isProposedByAdmin",
              "type": "bool"
            },
            {
              "internalType": "bool",
              "name": "isApproved",
              "type": "bool"
            },
            {
              "internalType": "bool",
              "name": "isPassed",
              "type": "bool"
            }
          ],
          "stateMutability": "view",
          "type": "function"
        },
        {
          "inputs": [
            {
              "internalType": "address",
              "name": "",
              "type": "address"
            }
          ],
          "name": "myVotingRightsRequest",
          "outputs": [
            {
              "internalType": "uint256",
              "name": "id",
              "type": "uint256"
            },
            {
              "internalType": "address",
              "name": "proposer",
              "type": "address"
            },
            {
              "internalType": "uint256",
              "name": "hasBeenDonated",
              "type": "uint256"
            },
            {
              "internalType": "string",
              "name": "pitch",
              "type": "string"
            }
          ],
          "stateMutability": "view",
          "type": "function"
        },
        {
          "inputs": [
            {
              "internalType": "address",
              "name": "_member",
              "type": "address"
            }
          ],
          "name": "removeAdmin",
          "outputs": [],
          "stateMutability": "nonpayable",
          "type": "function"
        },
        {
          "inputs": [
            {
              "internalType": "uint256",
              "name": "_id",
              "type": "uint256"
            },
            {
              "internalType": "uint256",
              "name": "_value",
              "type": "uint256"
            }
          ],
          "name": "setBallotSeclusionById",
          "outputs": [],
          "stateMutability": "nonpayable",
          "type": "function"
        },
        {
          "inputs": [
            {
              "internalType": "uint256",
              "name": "_value",
              "type": "uint256"
            }
          ],
          "name": "setGlobalBallotSeclusion",
          "outputs": [],
          "stateMutability": "nonpayable",
          "type": "function"
        },
        {
          "inputs": [
            {
              "internalType": "address",
              "name": "",
              "type": "address"
            }
          ],
          "name": "totalIndividualDonations",
          "outputs": [
            {
              "internalType": "uint256",
              "name": "",
              "type": "uint256"
            }
          ],
          "stateMutability": "view",
          "type": "function"
        },
        {
          "inputs": [
            {
              "internalType": "uint256",
              "name": "_proposalId",
              "type": "uint256"
            },
            {
              "internalType": "bool",
              "name": "_vote",
              "type": "bool"
            }
          ],
          "name": "vote",
          "outputs": [],
          "stateMutability": "nonpayable",
          "type": "function"
        },
        {
          "inputs": [
            {
              "internalType": "address",
              "name": "",
              "type": "address"
            }
          ],
          "name": "votingRights",
          "outputs": [
            {
              "internalType": "uint256",
              "name": "",
              "type": "uint256"
            }
          ],
          "stateMutability": "view",
          "type": "function"
        },
        {
          "inputs": [
            {
              "internalType": "uint256",
              "name": "",
              "type": "uint256"
            }
          ],
          "name": "votingRightsRequestQueue",
          "outputs": [
            {
              "internalType": "uint256",
              "name": "id",
              "type": "uint256"
            },
            {
              "internalType": "address",
              "name": "proposer",
              "type": "address"
            },
            {
              "internalType": "uint256",
              "name": "hasBeenDonated",
              "type": "uint256"
            },
            {
              "internalType": "string",
              "name": "pitch",
              "type": "string"
            }
          ],
          "stateMutability": "view",
          "type": "function"
        },
        {
          "inputs": [],
          "name": "wipeBalance",
          "outputs": [],
          "stateMutability": "nonpayable",
          "type": "function"
        },
        {
          "stateMutability": "payable",
          "type": "receive"
        }
      ],
      "evm": {
        "bytecode": {
          "linkReferences": {},
          "object": "60806040523480156200001157600080fd5b506040516200377d3803806200377d833981810160405281019062000037919062000128565b60648210801562000049575060008210155b6200008b576040517f08c379a0000000000000000000000000000000000000000000000000000000008152600401620000829062000190565b60405180910390fd5b81600081905550806001819055506000600281905550600060038190555060006004819055506001600560003373ffffffffffffffffffffffffffffffffffffffff1673ffffffffffffffffffffffffffffffffffffffff16815260200190815260200160002060006101000a81548160ff021916908315150217905550505062000236565b60008151905062000122816200021c565b92915050565b600080604083850312156200013c57600080fd5b60006200014c8582860162000111565b92505060206200015f8582860162000111565b9150509250929050565b600062000178602a83620001b2565b91506200018582620001cd565b604082019050919050565b60006020820190508181036000830152620001ab8162000169565b9050919050565b600082825260208201905092915050565b6000819050919050565b7f43616e6e6f742063726f7373203939252e2055736520612076616c756520626560008201527f747765656e20302d393900000000000000000000000000000000000000000000602082015250565b6200022781620001c3565b81146200023357600080fd5b50565b61353780620002466000396000f3fe60806040526004361061010d5760003560e01c806370bc853911610095578063a8fef10011610064578063a8fef100146105ca578063c9d27afe14610607578063d00a71c614610630578063d459156314610659578063fda4527a146106825761021f565b806370bc8539146104f157806371e8ff011461052e5780638c67d42014610545578063938351b8146105825761021f565b80633bcfe167116100dc5780633bcfe167146103fb578063412fc32a1461042457806348985deb14610440578063583f5ba11461048857806370480275146104c85761021f565b80631785f53c1461032c57806324d7806c1461035557806327b7c1ba14610392578063318670cb146103bb5761021f565b3661021f5734600960003373ffffffffffffffffffffffffffffffffffffffff1673ffffffffffffffffffffffffffffffffffffffff16815260200190815260200160002060008282546101619190612d5a565b92505081905550346002600082825461017a9190612d5a565b92505081905550655af3107a4000346101939190612db0565b600660003373ffffffffffffffffffffffffffffffffffffffff1673ffffffffffffffffffffffffffffffffffffffff16815260200190815260200160002060008282546101e19190612d5a565b925050819055507f3d27d812b049caf41fcc29cadcf63d52ad2b9f285ff79d360653b0a29bd8dbb4604051610215906129d6565b60405180910390a1005b34600960003373ffffffffffffffffffffffffffffffffffffffff1673ffffffffffffffffffffffffffffffffffffffff168152602001908152602001600020600082825461026e9190612d5a565b9250508190555034600260008282546102879190612d5a565b92505081905550655af3107a4000346102a09190612db0565b600660003373ffffffffffffffffffffffffffffffffffffffff1673ffffffffffffffffffffffffffffffffffffffff16815260200190815260200160002060008282546102ee9190612d5a565b925050819055507f3d27d812b049caf41fcc29cadcf63d52ad2b9f285ff79d360653b0a29bd8dbb4604051610322906129d6565b60405180910390a1005b34801561033857600080fd5b50610353600480360381019061034e91906124ca565b6106bf565b005b34801561036157600080fd5b5061037c600480360381019061037791906124ca565b6107a6565b60405161038991906129bb565b60405180910390f35b34801561039e57600080fd5b506103b960048036038101906103b49190612699565b6107c6565b005b3480156103c757600080fd5b506103e260048036038101906103dd91906124ca565b610995565b6040516103f29493929190612bd1565b60405180910390f35b34801561040757600080fd5b50610422600480360381019061041d91906125f3565b610a6d565b005b61043e6004803603810190610439919061252f565b610cea565b005b34801561044c57600080fd5b50610467600480360381019061046291906124f3565b610dc9565b60405161047f9c9b9a99989796959493929190612c1d565b60405180910390f35b34801561049457600080fd5b506104af60048036038101906104aa9190612634565b610fef565b6040516104bf9493929190612bd1565b60405180910390f35b3480156104d457600080fd5b506104ef60048036038101906104ea91906124ca565b6110d7565b005b3480156104fd57600080fd5b50610518600480360381019061051391906124f3565b6111be565b60405161052591906129bb565b60405180910390f35b34801561053a57600080fd5b506105436111ed565b005b34801561055157600080fd5b5061056c60048036038101906105679190612558565b6112c2565b60405161057991906129bb565b60405180910390f35b34801561058e57600080fd5b506105a960048036038101906105a49190612634565b611982565b6040516105c19c9b9a99989796959493929190612c1d565b60405180910390f35b3480156105d657600080fd5b506105f160048036038101906105ec91906124ca565b611b9b565b6040516105fe9190612bb6565b60405180910390f35b34801561061357600080fd5b5061062e6004803603810190610629919061265d565b611bb3565b005b34801561063c57600080fd5b5061065760048036038101906106529190612699565b611fbb565b005b34801561066557600080fd5b50610680600480360381019061067b9190612634565b6121ee565b005b34801561068e57600080fd5b506106a960048036038101906106a491906124ca565b612309565b6040516106b69190612bb6565b60405180910390f35b600560003373ffffffffffffffffffffffffffffffffffffffff1673ffffffffffffffffffffffffffffffffffffffff16815260200190815260200160002060009054906101000a900460ff1661074b576040517f08c379a000000000000000000000000000000000000000000000000000000000815260040161074290612b56565b60405180910390fd5b6000600560008373ffffffffffffffffffffffffffffffffffffffff1673ffffffffffffffffffffffffffffffffffffffff16815260200190815260200160002060006101000a81548160ff02191690831515021790555050565b60056020528060005260406000206000915054906101000a900460ff1681565b600560003373ffffffffffffffffffffffffffffffffffffffff1673ffffffffffffffffffffffffffffffffffffffff16815260200190815260200160002060009054906101000a900460ff16610852576040517f08c379a000000000000000000000000000000000000000000000000000000000815260040161084990612b56565b60405180910390fd5b600c828154811061088c577f4e487b7100000000000000000000000000000000000000000000000000000000600052603260045260246000fd5b90600052602060002090600c0201600b0160159054906101000a900460ff166108ea576040517f08c379a00000000000000000000000000000000000000000000000000000000081526004016108e190612b76565b60405180910390fd5b6000600c8381548110610926577f4e487b7100000000000000000000000000000000000000000000000000000000600052603260045260246000fd5b90600052602060002090600c0201905080600b0160159054906101000a900460ff16610987576040517f08c379a000000000000000000000000000000000000000000000000000000000815260040161097e90612ab6565b60405180910390fd5b818160020181905550505050565b600a6020528060005260406000206000915090508060000154908060010160009054906101000a900473ffffffffffffffffffffffffffffffffffffffff16908060020154908060030180546109ea90612eb1565b80601f0160208091040260200160405190810160405280929190818152602001828054610a1690612eb1565b8015610a635780601f10610a3857610100808354040283529160200191610a63565b820191906000526020600020905b815481529060010190602001808311610a4657829003601f168201915b5050505050905084565b600560003373ffffffffffffffffffffffffffffffffffffffff1673ffffffffffffffffffffffffffffffffffffffff16815260200190815260200160002060009054906101000a900460ff1615610afa576040517f08c379a0000000000000000000000000000000000000000000000000000000008152600401610af1906129f6565b60405180910390fd5b6000604051806080016040528060045481526020013373ffffffffffffffffffffffffffffffffffffffff16815260200160008152602001838152509050600b8190806001815401808255809150506001900390600052602060002090600402016000909190919091506000820151816000015560208201518160010160006101000a81548173ffffffffffffffffffffffffffffffffffffffff021916908373ffffffffffffffffffffffffffffffffffffffff160217905550604082015181600201556060820151816003019080519060200190610bdb929190612321565b50505080600a60003373ffffffffffffffffffffffffffffffffffffffff1673ffffffffffffffffffffffffffffffffffffffff1681526020019081526020016000206000820151816000015560208201518160010160006101000a81548173ffffffffffffffffffffffffffffffffffffffff021916908373ffffffffffffffffffffffffffffffffffffffff160217905550604082015181600201556060820151816003019080519060200190610c95929190612321565b5090505060046000815480929190610cac90612f14565b91905055507fcbd46a911831c76d92578ceca757258656add2111ee59ac2ebb757df9708180b604051610cde90612b36565b60405180910390a15050565b3460026000828254610cfc9190612d5a565b9250508190555080610dc65734600960003373ffffffffffffffffffffffffffffffffffffffff1673ffffffffffffffffffffffffffffffffffffffff1681526020019081526020016000206000828254610d579190612d5a565b92505081905550655af3107a400034610d709190612db0565b600660003373ffffffffffffffffffffffffffffffffffffffff1673ffffffffffffffffffffffffffffffffffffffff1681526020019081526020016000206000828254610dbe9190612d5a565b925050819055505b50565b60076020528160005260406000208181548110610de557600080fd5b90600052602060002090600c0201600091509150508060000154908060010154908060020154908060030154908060040160405180608001604052908160008201548152602001600182015481526020016002820154815260200160038201548152505090806008018054610e5990612eb1565b80601f0160208091040260200160405190810160405280929190818152602001828054610e8590612eb1565b8015610ed25780601f10610ea757610100808354040283529160200191610ed2565b820191906000526020600020905b815481529060010190602001808311610eb557829003601f168201915b505050505090806009018054610ee790612eb1565b80601f0160208091040260200160405190810160405280929190818152602001828054610f1390612eb1565b8015610f605780601f10610f3557610100808354040283529160200191610f60565b820191906000526020600020905b815481529060010190602001808311610f4357829003601f168201915b50505050509080600a0160009054906101000a900473ffffffffffffffffffffffffffffffffffffffff169080600b0160009054906101000a900473ffffffffffffffffffffffffffffffffffffffff169080600b0160149054906101000a900460ff169080600b0160159054906101000a900460ff169080600b0160169054906101000a900460ff1690508c565b600b8181548110610fff57600080fd5b90600052602060002090600402016000915090508060000154908060010160009054906101000a900473ffffffffffffffffffffffffffffffffffffffff169080600201549080600301805461105490612eb1565b80601f016020809104026020016040519081016040528092919081815260200182805461108090612eb1565b80156110cd5780601f106110a2576101008083540402835291602001916110cd565b820191906000526020600020905b8154815290600101906020018083116110b057829003601f168201915b5050505050905084565b600560003373ffffffffffffffffffffffffffffffffffffffff1673ffffffffffffffffffffffffffffffffffffffff16815260200190815260200160002060009054906101000a900460ff16611163576040517f08c379a000000000000000000000000000000000000000000000000000000000815260040161115a90612b56565b60405180910390fd5b6001600560008373ffffffffffffffffffffffffffffffffffffffff1673ffffffffffffffffffffffffffffffffffffffff16815260200190815260200160002060006101000a81548160ff02191690831515021790555050565b60086020528160005260406000206020528060005260406000206000915091509054906101000a900460ff1681565b600560003373ffffffffffffffffffffffffffffffffffffffff1673ffffffffffffffffffffffffffffffffffffffff16815260200190815260200160002060009054906101000a900460ff16611279576040517f08c379a000000000000000000000000000000000000000000000000000000000815260040161127090612a96565b60405180910390fd5b3373ffffffffffffffffffffffffffffffffffffffff166108fc479081150290604051600060405180830381858888f193505050501580156112bf573d6000803e3d6000fd5b50565b600080600960003373ffffffffffffffffffffffffffffffffffffffff1673ffffffffffffffffffffffffffffffffffffffff168152602001908152602001600020541180611361575060011515600560003373ffffffffffffffffffffffffffffffffffffffff1673ffffffffffffffffffffffffffffffffffffffff16815260200190815260200160002060009054906101000a900460ff161515145b6113a0576040517f08c379a000000000000000000000000000000000000000000000000000000000815260040161139790612a76565b60405180910390fd5b6000600560003373ffffffffffffffffffffffffffffffffffffffff1673ffffffffffffffffffffffffffffffffffffffff16815260200190815260200160002060009054906101000a900460ff1690506000600560003373ffffffffffffffffffffffffffffffffffffffff1673ffffffffffffffffffffffffffffffffffffffff16815260200190815260200160002060009054906101000a900460ff16905060006040518061018001604052806003548152602001878152602001600054815260200160015481526020016040518060800160405280600081526020016000815260200160008152602001600081525081526020018b8b8080601f016020809104026020016040519081016040528093929190818152602001838380828437600081840152601f19601f82011690508083019250505050505050815260200189898080601f016020809104026020016040519081016040528093929190818152602001838380828437600081840152601f19601f8201169050808301925050505050505081526020018673ffffffffffffffffffffffffffffffffffffffff1681526020013373ffffffffffffffffffffffffffffffffffffffff16815260200184151581526020018315158152602001600015158152509050600c8190806001815401808255809150506001900390600052602060002090600c02016000909190919091506000820151816000015560208201518160010155604082015181600201556060820151816003015560808201518160040160008201518160000155602082015181600101556040820151816002015560608201518160030155505060a0820151816008019080519060200190611620929190612321565b5060c082015181600901908051906020019061163d929190612321565b5060e082015181600a0160006101000a81548173ffffffffffffffffffffffffffffffffffffffff021916908373ffffffffffffffffffffffffffffffffffffffff16021790555061010082015181600b0160006101000a81548173ffffffffffffffffffffffffffffffffffffffff021916908373ffffffffffffffffffffffffffffffffffffffff16021790555061012082015181600b0160146101000a81548160ff02191690831515021790555061014082015181600b0160156101000a81548160ff02191690831515021790555061016082015181600b0160166101000a81548160ff0219169083151502179055505050600760003373ffffffffffffffffffffffffffffffffffffffff1673ffffffffffffffffffffffffffffffffffffffff1681526020019081526020016000208190806001815401808255809150506001900390600052602060002090600c02016000909190919091506000820151816000015560208201518160010155604082015181600201556060820151816003015560808201518160040160008201518160000155602082015181600101556040820151816002015560608201518160030155505060a0820151816008019080519060200190611812929190612321565b5060c082015181600901908051906020019061182f929190612321565b5060e082015181600a0160006101000a81548173ffffffffffffffffffffffffffffffffffffffff021916908373ffffffffffffffffffffffffffffffffffffffff16021790555061010082015181600b0160006101000a81548173ffffffffffffffffffffffffffffffffffffffff021916908373ffffffffffffffffffffffffffffffffffffffff16021790555061012082015181600b0160146101000a81548160ff02191690831515021790555061014082015181600b0160156101000a81548160ff02191690831515021790555061016082015181600b0160166101000a81548160ff02191690831515021790555050506003600081548092919061193790612f14565b91905055507fcbd46a911831c76d92578ceca757258656add2111ee59ac2ebb757df9708180b60405161196990612b96565b60405180910390a1600193505050509695505050505050565b600c818154811061199257600080fd5b90600052602060002090600c02016000915090508060000154908060010154908060020154908060030154908060040160405180608001604052908160008201548152602001600182015481526020016002820154815260200160038201548152505090806008018054611a0590612eb1565b80601f0160208091040260200160405190810160405280929190818152602001828054611a3190612eb1565b8015611a7e5780601f10611a5357610100808354040283529160200191611a7e565b820191906000526020600020905b815481529060010190602001808311611a6157829003601f168201915b505050505090806009018054611a9390612eb1565b80601f0160208091040260200160405190810160405280929190818152602001828054611abf90612eb1565b8015611b0c5780601f10611ae157610100808354040283529160200191611b0c565b820191906000526020600020905b815481529060010190602001808311611aef57829003601f168201915b50505050509080600a0160009054906101000a900473ffffffffffffffffffffffffffffffffffffffff169080600b0160009054906101000a900473ffffffffffffffffffffffffffffffffffffffff169080600b0160149054906101000a900460ff169080600b0160159054906101000a900460ff169080600b0160169054906101000a900460ff1690508c565b60066020528060005260406000206000915090505481565b600860003373ffffffffffffffffffffffffffffffffffffffff1673ffffffffffffffffffffffffffffffffffffffff168152602001908152602001600020600083815260200190815260200160002060009054906101000a900460ff1615611c51576040517f08c379a0000000000000000000000000000000000000000000000000000000008152600401611c4890612ad6565b60405180910390fd5b6000600c8381548110611c8d577f4e487b7100000000000000000000000000000000000000000000000000000000600052603260045260246000fd5b90600052602060002090600c02019050818015611cf35750600560003373ffffffffffffffffffffffffffffffffffffffff1673ffffffffffffffffffffffffffffffffffffffff16815260200190815260200160002060009054906101000a900460ff165b15611d1c576001816004016001016000828254611d109190612d5a565b92505081905550611f18565b818015611d735750600560003373ffffffffffffffffffffffffffffffffffffffff1673ffffffffffffffffffffffffffffffffffffffff16815260200190815260200160002060009054906101000a900460ff16155b15611dda57600660003373ffffffffffffffffffffffffffffffffffffffff1673ffffffffffffffffffffffffffffffffffffffff16815260200190815260200160002054816004016000016000828254611dce9190612d5a565b92505081905550611f17565b81158015611e315750600560003373ffffffffffffffffffffffffffffffffffffffff1673ffffffffffffffffffffffffffffffffffffffff16815260200190815260200160002060009054906101000a900460ff165b15611e5a576001816004016003016000828254611e4e9190612d5a565b92505081905550611f16565b81158015611eb25750600560003373ffffffffffffffffffffffffffffffffffffffff1673ffffffffffffffffffffffffffffffffffffffff16815260200190815260200160002060009054906101000a900460ff16155b15611f1557600660003373ffffffffffffffffffffffffffffffffffffffff1673ffffffffffffffffffffffffffffffffffffffff16815260200190815260200160002054816004016002016000828254611f0d9190612d5a565b925050819055505b5b5b5b6001600860003373ffffffffffffffffffffffffffffffffffffffff1673ffffffffffffffffffffffffffffffffffffffff168152602001908152602001600020600085815260200190815260200160002060006101000a81548160ff0219169083151502179055507fcbd46a911831c76d92578ceca757258656add2111ee59ac2ebb757df9708180b604051611fae90612a36565b60405180910390a1505050565b600660003373ffffffffffffffffffffffffffffffffffffffff1673ffffffffffffffffffffffffffffffffffffffff16815260200190815260200160002054811061203c576040517f08c379a000000000000000000000000000000000000000000000000000000000815260040161203390612af6565b60405180910390fd5b80600b8381548110612077577f4e487b7100000000000000000000000000000000000000000000000000000000600052603260045260246000fd5b906000526020600020906004020160020160008282546120979190612d5a565b925050819055508060066000600b85815481106120dd577f4e487b7100000000000000000000000000000000000000000000000000000000600052603260045260246000fd5b906000526020600020906004020160010160009054906101000a900473ffffffffffffffffffffffffffffffffffffffff1673ffffffffffffffffffffffffffffffffffffffff1673ffffffffffffffffffffffffffffffffffffffff16815260200190815260200160002060008282546121589190612d5a565b9250508190555080600660003373ffffffffffffffffffffffffffffffffffffffff1673ffffffffffffffffffffffffffffffffffffffff16815260200190815260200160002060008282546121ae9190612de1565b925050819055507fcbd46a911831c76d92578ceca757258656add2111ee59ac2ebb757df9708180b6040516121e290612b16565b60405180910390a15050565b600560003373ffffffffffffffffffffffffffffffffffffffff1673ffffffffffffffffffffffffffffffffffffffff16815260200190815260200160002060009054906101000a900460ff1661227a576040517f08c379a000000000000000000000000000000000000000000000000000000000815260040161227190612b56565b60405180910390fd5b60648110801561228b575060008110155b6122ca576040517f08c379a00000000000000000000000000000000000000000000000000000000081526004016122c190612a56565b60405180910390fd5b806000819055507fcbd46a911831c76d92578ceca757258656add2111ee59ac2ebb757df9708180b6040516122fe90612a16565b60405180910390a150565b60096020528060005260406000206000915090505481565b82805461232d90612eb1565b90600052602060002090601f01602090048101928261234f5760008555612396565b82601f1061236857805160ff1916838001178555612396565b82800160010185558215612396579182015b8281111561239557825182559160200191906001019061237a565b5b5090506123a391906123a7565b5090565b5b808211156123c05760008160009055506001016123a8565b5090565b60006123d76123d284612d0d565b612ce8565b9050828152602081018484840111156123ef57600080fd5b6123fa848285612e6f565b509392505050565b600081359050612411816134a5565b92915050565b600081359050612426816134bc565b92915050565b60008135905061243b816134d3565b92915050565b60008083601f84011261245357600080fd5b8235905067ffffffffffffffff81111561246c57600080fd5b60208301915083600182028301111561248457600080fd5b9250929050565b600082601f83011261249c57600080fd5b81356124ac8482602086016123c4565b91505092915050565b6000813590506124c4816134ea565b92915050565b6000602082840312156124dc57600080fd5b60006124ea84828501612402565b91505092915050565b6000806040838503121561250657600080fd5b600061251485828601612402565b9250506020612525858286016124b5565b9150509250929050565b60006020828403121561254157600080fd5b600061254f8482850161242c565b91505092915050565b6000806000806000806080878903121561257157600080fd5b600087013567ffffffffffffffff81111561258b57600080fd5b61259789828a01612441565b9650965050602087013567ffffffffffffffff8111156125b657600080fd5b6125c289828a01612441565b945094505060406125d589828a016124b5565b92505060606125e689828a01612417565b9150509295509295509295565b60006020828403121561260557600080fd5b600082013567ffffffffffffffff81111561261f57600080fd5b61262b8482850161248b565b91505092915050565b60006020828403121561264657600080fd5b6000612654848285016124b5565b91505092915050565b6000806040838503121561267057600080fd5b600061267e858286016124b5565b925050602061268f8582860161242c565b9150509250929050565b600080604083850312156126ac57600080fd5b60006126ba858286016124b5565b92505060206126cb858286016124b5565b9150509250929050565b6126de81612e27565b82525050565b6126ed81612e15565b82525050565b6126fc81612e39565b82525050565b600061270d82612d3e565b6127178185612d49565b9350612727818560208601612e7e565b61273081613019565b840191505092915050565b6000612748603883612d49565b91506127538261302a565b604082019050919050565b600061276b601483612d49565b915061277682613079565b602082019050919050565b600061278e604983612d49565b9150612799826130a2565b606082019050919050565b60006127b1602783612d49565b91506127bc82613117565b604082019050919050565b60006127d4602a83612d49565b91506127df82613166565b604082019050919050565b60006127f7603c83612d49565b9150612802826131b5565b604082019050919050565b600061281a602583612d49565b915061282582613204565b604082019050919050565b600061283d603d83612d49565b915061284882613253565b604082019050919050565b6000612860602f83612d49565b915061286b826132a2565b604082019050919050565b6000612883602983612d49565b915061288e826132f1565b604082019050919050565b60006128a6602a83612d49565b91506128b182613340565b604082019050919050565b60006128c9603f83612d49565b91506128d48261338f565b604082019050919050565b60006128ec602a83612d49565b91506128f7826133de565b604082019050919050565b600061290f601b83612d49565b915061291a8261342d565b602082019050919050565b6000612932602e83612d49565b915061293d82613456565b604082019050919050565b60808201600082015161295e600085018261299d565b506020820151612971602085018261299d565b506040820151612984604085018261299d565b506060820151612997606085018261299d565b50505050565b6129a681612e65565b82525050565b6129b581612e65565b82525050565b60006020820190506129d060008301846126f3565b92915050565b600060208201905081810360008301526129ef8161273b565b9050919050565b60006020820190508181036000830152612a0f8161275e565b9050919050565b60006020820190508181036000830152612a2f81612781565b9050919050565b60006020820190508181036000830152612a4f816127a4565b9050919050565b60006020820190508181036000830152612a6f816127c7565b9050919050565b60006020820190508181036000830152612a8f816127ea565b9050919050565b60006020820190508181036000830152612aaf8161280d565b9050919050565b60006020820190508181036000830152612acf81612830565b9050919050565b60006020820190508181036000830152612aef81612853565b9050919050565b60006020820190508181036000830152612b0f81612876565b9050919050565b60006020820190508181036000830152612b2f81612899565b9050919050565b60006020820190508181036000830152612b4f816128bc565b9050919050565b60006020820190508181036000830152612b6f816128df565b9050919050565b60006020820190508181036000830152612b8f81612902565b9050919050565b60006020820190508181036000830152612baf81612925565b9050919050565b6000602082019050612bcb60008301846129ac565b92915050565b6000608082019050612be660008301876129ac565b612bf360208301866126e4565b612c0060408301856129ac565b8181036060830152612c128184612702565b905095945050505050565b60006101e082019050612c33600083018f6129ac565b612c40602083018e6129ac565b612c4d604083018d6129ac565b612c5a606083018c6129ac565b612c67608083018b612948565b818103610100830152612c7a818a612702565b9050818103610120830152612c8f8189612702565b9050612c9f6101408301886126d5565b612cad6101608301876126e4565b612cbb6101808301866126f3565b612cc96101a08301856126f3565b612cd76101c08301846126f3565b9d9c50505050505050505050505050565b6000612cf2612d03565b9050612cfe8282612ee3565b919050565b6000604051905090565b600067ffffffffffffffff821115612d2857612d27612fea565b5b612d3182613019565b9050602081019050919050565b600081519050919050565b600082825260208201905092915050565b6000612d6582612e65565b9150612d7083612e65565b9250827fffffffffffffffffffffffffffffffffffffffffffffffffffffffffffffffff03821115612da557612da4612f5d565b5b828201905092915050565b6000612dbb82612e65565b9150612dc683612e65565b925082612dd657612dd5612f8c565b5b828204905092915050565b6000612dec82612e65565b9150612df783612e65565b925082821015612e0a57612e09612f5d565b5b828203905092915050565b6000612e2082612e45565b9050919050565b6000612e3282612e45565b9050919050565b60008115159050919050565b600073ffffffffffffffffffffffffffffffffffffffff82169050919050565b6000819050919050565b82818337600083830152505050565b60005b83811015612e9c578082015181840152602081019050612e81565b83811115612eab576000848401525b50505050565b60006002820490506001821680612ec957607f821691505b60208210811415612edd57612edc612fbb565b5b50919050565b612eec82613019565b810181811067ffffffffffffffff82111715612f0b57612f0a612fea565b5b80604052505050565b6000612f1f82612e65565b91507fffffffffffffffffffffffffffffffffffffffffffffffffffffffffffffffff821415612f5257612f51612f5d565b5b600182019050919050565b7f4e487b7100000000000000000000000000000000000000000000000000000000600052601160045260246000fd5b7f4e487b7100000000000000000000000000000000000000000000000000000000600052601260045260246000fd5b7f4e487b7100000000000000000000000000000000000000000000000000000000600052602260045260246000fd5b7f4e487b7100000000000000000000000000000000000000000000000000000000600052604160045260246000fd5b6000601f19601f8301169050919050565b7f5468616e6b20796f7520666f7220646f6e6174696e672c20596f75206861766560008201527f20726563696576656420566f74696e6720526967687473210000000000000000602082015250565b7f41646d696e732063616e27742072657175657374000000000000000000000000600082015250565b7f4e657720476c6f62616c2056616c7565207365742e2057696c6c20626520757060008201527f646174656420696e20616c6c206e65772070726f706f73616c73206d6164652060208201527f6865726561667465720000000000000000000000000000000000000000000000604082015250565b7f596f757220766f746520686173206265656e206361737465642073756363657360008201527f7366756c6c792100000000000000000000000000000000000000000000000000602082015250565b7f43616e6e6f742063726f7373203939252e2055736520612076616c756520626560008201527f747765656e20302d393900000000000000000000000000000000000000000000602082015250565b7f4d757374206861766520646f6e61746564206f722073686f756c64206265206160008201527f6e2061646d696e20746f2063726561746520612070726f706f73616c00000000602082015250565b7f5265717565737465722073686f756c6420626520616e2061646d696e206f666660008201527f696369616c000000000000000000000000000000000000000000000000000000602082015250565b7f556e617070726f7665642070726f706f73616c732063616e6e6f7420756e646560008201527f72676f20612062616c6c6f74207365636c7573696f6e206368616e6765000000602082015250565b7f416c726561647920766f74656420666f7220746869732070726f706f73616c2e60008201527f2043616e6e6f742072652d636173740000000000000000000000000000000000602082015250565b7f4e6f7420656e6f75676820746f20646f6e61746520746865207265717565737460008201527f656420616d6f756e740000000000000000000000000000000000000000000000602082015250565b7f596f75722072696768747320686173206265656e20646f6e617465642073756360008201527f6365737366756c6c792100000000000000000000000000000000000000000000602082015250565b7f596f757220275269676874732720446f6e6174696f6e2072657175657374206860008201527f6173206265656e207375626d6974746564207375636365737366756c6c792100602082015250565b7f54686973206d6574686f642063616e206f6e6c792062652063616c6c6564206260008201527f7920616e2061646d696e00000000000000000000000000000000000000000000602082015250565b7f5468652070726f706f73616c2069736e277420617070726f7665640000000000600082015250565b7f596f75722050726f706f73616c20686173206265656e207375626d697474656460008201527f207375636365737366756c6c7921000000000000000000000000000000000000602082015250565b6134ae81612e15565b81146134b957600080fd5b50565b6134c581612e27565b81146134d057600080fd5b50565b6134dc81612e39565b81146134e757600080fd5b50565b6134f381612e65565b81146134fe57600080fd5b5056fea2646970667358221220d0838defa754477924c1297b3bb334622baf2c776cf048190f250ab41baf0fed64736f6c63430008040033",
          "opcodes": "PUSH1 0x80 PUSH1 0x40 MSTORE CALLVALUE DUP1 ISZERO PUSH3 0x11 JUMPI PUSH1 0x0 DUP1 REVERT JUMPDEST POP PUSH1 0x40 MLOAD PUSH3 0x377D CODESIZE SUB DUP1 PUSH3 0x377D DUP4 CODECOPY DUP2 DUP2 ADD PUSH1 0x40 MSTORE DUP2 ADD SWAP1 PUSH3 0x37 SWAP2 SWAP1 PUSH3 0x128 JUMP JUMPDEST PUSH1 0x64 DUP3 LT DUP1 ISZERO PUSH3 0x49 JUMPI POP PUSH1 0x0 DUP3 LT ISZERO JUMPDEST PUSH3 0x8B JUMPI PUSH1 0x40 MLOAD PUSH32 0x8C379A000000000000000000000000000000000000000000000000000000000 DUP2 MSTORE PUSH1 0x4 ADD PUSH3 0x82 SWAP1 PUSH3 0x190 JUMP JUMPDEST PUSH1 0x40 MLOAD DUP1 SWAP2 SUB SWAP1 REVERT JUMPDEST DUP2 PUSH1 0x0 DUP2 SWAP1 SSTORE POP DUP1 PUSH1 0x1 DUP2 SWAP1 SSTORE POP PUSH1 0x0 PUSH1 0x2 DUP2 SWAP1 SSTORE POP PUSH1 0x0 PUSH1 0x3 DUP2 SWAP1 SSTORE POP PUSH1 0x0 PUSH1 0x4 DUP2 SWAP1 SSTORE POP PUSH1 0x1 PUSH1 0x5 PUSH1 0x0 CALLER PUSH20 0xFFFFFFFFFFFFFFFFFFFFFFFFFFFFFFFFFFFFFFFF AND PUSH20 0xFFFFFFFFFFFFFFFFFFFFFFFFFFFFFFFFFFFFFFFF AND DUP2 MSTORE PUSH1 0x20 ADD SWAP1 DUP2 MSTORE PUSH1 0x20 ADD PUSH1 0x0 KECCAK256 PUSH1 0x0 PUSH2 0x100 EXP DUP2 SLOAD DUP2 PUSH1 0xFF MUL NOT AND SWAP1 DUP4 ISZERO ISZERO MUL OR SWAP1 SSTORE POP POP POP PUSH3 0x236 JUMP JUMPDEST PUSH1 0x0 DUP2 MLOAD SWAP1 POP PUSH3 0x122 DUP2 PUSH3 0x21C JUMP JUMPDEST SWAP3 SWAP2 POP POP JUMP JUMPDEST PUSH1 0x0 DUP1 PUSH1 0x40 DUP4 DUP6 SUB SLT ISZERO PUSH3 0x13C JUMPI PUSH1 0x0 DUP1 REVERT JUMPDEST PUSH1 0x0 PUSH3 0x14C DUP6 DUP3 DUP7 ADD PUSH3 0x111 JUMP JUMPDEST SWAP3 POP POP PUSH1 0x20 PUSH3 0x15F DUP6 DUP3 DUP7 ADD PUSH3 0x111 JUMP JUMPDEST SWAP2 POP POP SWAP3 POP SWAP3 SWAP1 POP JUMP JUMPDEST PUSH1 0x0 PUSH3 0x178 PUSH1 0x2A DUP4 PUSH3 0x1B2 JUMP JUMPDEST SWAP2 POP PUSH3 0x185 DUP3 PUSH3 0x1CD JUMP JUMPDEST PUSH1 0x40 DUP3 ADD SWAP1 POP SWAP2 SWAP1 POP JUMP JUMPDEST PUSH1 0x0 PUSH1 0x20 DUP3 ADD SWAP1 POP DUP2 DUP2 SUB PUSH1 0x0 DUP4 ADD MSTORE PUSH3 0x1AB DUP2 PUSH3 0x169 JUMP JUMPDEST SWAP1 POP SWAP2 SWAP1 POP JUMP JUMPDEST PUSH1 0x0 DUP3 DUP3 MSTORE PUSH1 0x20 DUP3 ADD SWAP1 POP SWAP3 SWAP2 POP POP JUMP JUMPDEST PUSH1 0x0 DUP2 SWAP1 POP SWAP2 SWAP1 POP JUMP JUMPDEST PUSH32 0x43616E6E6F742063726F7373203939252E2055736520612076616C7565206265 PUSH1 0x0 DUP3 ADD MSTORE PUSH32 0x747765656E20302D393900000000000000000000000000000000000000000000 PUSH1 0x20 DUP3 ADD MSTORE POP JUMP JUMPDEST PUSH3 0x227 DUP2 PUSH3 0x1C3 JUMP JUMPDEST DUP2 EQ PUSH3 0x233 JUMPI PUSH1 0x0 DUP1 REVERT JUMPDEST POP JUMP JUMPDEST PUSH2 0x3537 DUP1 PUSH3 0x246 PUSH1 0x0 CODECOPY PUSH1 0x0 RETURN INVALID PUSH1 0x80 PUSH1 0x40 MSTORE PUSH1 0x4 CALLDATASIZE LT PUSH2 0x10D JUMPI PUSH1 0x0 CALLDATALOAD PUSH1 0xE0 SHR DUP1 PUSH4 0x70BC8539 GT PUSH2 0x95 JUMPI DUP1 PUSH4 0xA8FEF100 GT PUSH2 0x64 JUMPI DUP1 PUSH4 0xA8FEF100 EQ PUSH2 0x5CA JUMPI DUP1 PUSH4 0xC9D27AFE EQ PUSH2 0x607 JUMPI DUP1 PUSH4 0xD00A71C6 EQ PUSH2 0x630 JUMPI DUP1 PUSH4 0xD4591563 EQ PUSH2 0x659 JUMPI DUP1 PUSH4 0xFDA4527A EQ PUSH2 0x682 JUMPI PUSH2 0x21F JUMP JUMPDEST DUP1 PUSH4 0x70BC8539 EQ PUSH2 0x4F1 JUMPI DUP1 PUSH4 0x71E8FF01 EQ PUSH2 0x52E JUMPI DUP1 PUSH4 0x8C67D420 EQ PUSH2 0x545 JUMPI DUP1 PUSH4 0x938351B8 EQ PUSH2 0x582 JUMPI PUSH2 0x21F JUMP JUMPDEST DUP1 PUSH4 0x3BCFE167 GT PUSH2 0xDC JUMPI DUP1 PUSH4 0x3BCFE167 EQ PUSH2 0x3FB JUMPI DUP1 PUSH4 0x412FC32A EQ PUSH2 0x424 JUMPI DUP1 PUSH4 0x48985DEB EQ PUSH2 0x440 JUMPI DUP1 PUSH4 0x583F5BA1 EQ PUSH2 0x488 JUMPI DUP1 PUSH4 0x70480275 EQ PUSH2 0x4C8 JUMPI PUSH2 0x21F JUMP JUMPDEST DUP1 PUSH4 0x1785F53C EQ PUSH2 0x32C JUMPI DUP1 PUSH4 0x24D7806C EQ PUSH2 0x355 JUMPI DUP1 PUSH4 0x27B7C1BA EQ PUSH2 0x392 JUMPI DUP1 PUSH4 0x318670CB EQ PUSH2 0x3BB JUMPI PUSH2 0x21F JUMP JUMPDEST CALLDATASIZE PUSH2 0x21F JUMPI CALLVALUE PUSH1 0x9 PUSH1 0x0 CALLER PUSH20 0xFFFFFFFFFFFFFFFFFFFFFFFFFFFFFFFFFFFFFFFF AND PUSH20 0xFFFFFFFFFFFFFFFFFFFFFFFFFFFFFFFFFFFFFFFF AND DUP2 MSTORE PUSH1 0x20 ADD SWAP1 DUP2 MSTORE PUSH1 0x20 ADD PUSH1 0x0 KECCAK256 PUSH1 0x0 DUP3 DUP3 SLOAD PUSH2 0x161 SWAP2 SWAP1 PUSH2 0x2D5A JUMP JUMPDEST SWAP3 POP POP DUP2 SWAP1 SSTORE POP CALLVALUE PUSH1 0x2 PUSH1 0x0 DUP3 DUP3 SLOAD PUSH2 0x17A SWAP2 SWAP1 PUSH2 0x2D5A JUMP JUMPDEST SWAP3 POP POP DUP2 SWAP1 SSTORE POP PUSH6 0x5AF3107A4000 CALLVALUE PUSH2 0x193 SWAP2 SWAP1 PUSH2 0x2DB0 JUMP JUMPDEST PUSH1 0x6 PUSH1 0x0 CALLER PUSH20 0xFFFFFFFFFFFFFFFFFFFFFFFFFFFFFFFFFFFFFFFF AND PUSH20 0xFFFFFFFFFFFFFFFFFFFFFFFFFFFFFFFFFFFFFFFF AND DUP2 MSTORE PUSH1 0x20 ADD SWAP1 DUP2 MSTORE PUSH1 0x20 ADD PUSH1 0x0 KECCAK256 PUSH1 0x0 DUP3 DUP3 SLOAD PUSH2 0x1E1 SWAP2 SWAP1 PUSH2 0x2D5A JUMP JUMPDEST SWAP3 POP POP DUP2 SWAP1 SSTORE POP PUSH32 0x3D27D812B049CAF41FCC29CADCF63D52AD2B9F285FF79D360653B0A29BD8DBB4 PUSH1 0x40 MLOAD PUSH2 0x215 SWAP1 PUSH2 0x29D6 JUMP JUMPDEST PUSH1 0x40 MLOAD DUP1 SWAP2 SUB SWAP1 LOG1 STOP JUMPDEST CALLVALUE PUSH1 0x9 PUSH1 0x0 CALLER PUSH20 0xFFFFFFFFFFFFFFFFFFFFFFFFFFFFFFFFFFFFFFFF AND PUSH20 0xFFFFFFFFFFFFFFFFFFFFFFFFFFFFFFFFFFFFFFFF AND DUP2 MSTORE PUSH1 0x20 ADD SWAP1 DUP2 MSTORE PUSH1 0x20 ADD PUSH1 0x0 KECCAK256 PUSH1 0x0 DUP3 DUP3 SLOAD PUSH2 0x26E SWAP2 SWAP1 PUSH2 0x2D5A JUMP JUMPDEST SWAP3 POP POP DUP2 SWAP1 SSTORE POP CALLVALUE PUSH1 0x2 PUSH1 0x0 DUP3 DUP3 SLOAD PUSH2 0x287 SWAP2 SWAP1 PUSH2 0x2D5A JUMP JUMPDEST SWAP3 POP POP DUP2 SWAP1 SSTORE POP PUSH6 0x5AF3107A4000 CALLVALUE PUSH2 0x2A0 SWAP2 SWAP1 PUSH2 0x2DB0 JUMP JUMPDEST PUSH1 0x6 PUSH1 0x0 CALLER PUSH20 0xFFFFFFFFFFFFFFFFFFFFFFFFFFFFFFFFFFFFFFFF AND PUSH20 0xFFFFFFFFFFFFFFFFFFFFFFFFFFFFFFFFFFFFFFFF AND DUP2 MSTORE PUSH1 0x20 ADD SWAP1 DUP2 MSTORE PUSH1 0x20 ADD PUSH1 0x0 KECCAK256 PUSH1 0x0 DUP3 DUP3 SLOAD PUSH2 0x2EE SWAP2 SWAP1 PUSH2 0x2D5A JUMP JUMPDEST SWAP3 POP POP DUP2 SWAP1 SSTORE POP PUSH32 0x3D27D812B049CAF41FCC29CADCF63D52AD2B9F285FF79D360653B0A29BD8DBB4 PUSH1 0x40 MLOAD PUSH2 0x322 SWAP1 PUSH2 0x29D6 JUMP JUMPDEST PUSH1 0x40 MLOAD DUP1 SWAP2 SUB SWAP1 LOG1 STOP JUMPDEST CALLVALUE DUP1 ISZERO PUSH2 0x338 JUMPI PUSH1 0x0 DUP1 REVERT JUMPDEST POP PUSH2 0x353 PUSH1 0x4 DUP1 CALLDATASIZE SUB DUP2 ADD SWAP1 PUSH2 0x34E SWAP2 SWAP1 PUSH2 0x24CA JUMP JUMPDEST PUSH2 0x6BF JUMP JUMPDEST STOP JUMPDEST CALLVALUE DUP1 ISZERO PUSH2 0x361 JUMPI PUSH1 0x0 DUP1 REVERT JUMPDEST POP PUSH2 0x37C PUSH1 0x4 DUP1 CALLDATASIZE SUB DUP2 ADD SWAP1 PUSH2 0x377 SWAP2 SWAP1 PUSH2 0x24CA JUMP JUMPDEST PUSH2 0x7A6 JUMP JUMPDEST PUSH1 0x40 MLOAD PUSH2 0x389 SWAP2 SWAP1 PUSH2 0x29BB JUMP JUMPDEST PUSH1 0x40 MLOAD DUP1 SWAP2 SUB SWAP1 RETURN JUMPDEST CALLVALUE DUP1 ISZERO PUSH2 0x39E JUMPI PUSH1 0x0 DUP1 REVERT JUMPDEST POP PUSH2 0x3B9 PUSH1 0x4 DUP1 CALLDATASIZE SUB DUP2 ADD SWAP1 PUSH2 0x3B4 SWAP2 SWAP1 PUSH2 0x2699 JUMP JUMPDEST PUSH2 0x7C6 JUMP JUMPDEST STOP JUMPDEST CALLVALUE DUP1 ISZERO PUSH2 0x3C7 JUMPI PUSH1 0x0 DUP1 REVERT JUMPDEST POP PUSH2 0x3E2 PUSH1 0x4 DUP1 CALLDATASIZE SUB DUP2 ADD SWAP1 PUSH2 0x3DD SWAP2 SWAP1 PUSH2 0x24CA JUMP JUMPDEST PUSH2 0x995 JUMP JUMPDEST PUSH1 0x40 MLOAD PUSH2 0x3F2 SWAP5 SWAP4 SWAP3 SWAP2 SWAP1 PUSH2 0x2BD1 JUMP JUMPDEST PUSH1 0x40 MLOAD DUP1 SWAP2 SUB SWAP1 RETURN JUMPDEST CALLVALUE DUP1 ISZERO PUSH2 0x407 JUMPI PUSH1 0x0 DUP1 REVERT JUMPDEST POP PUSH2 0x422 PUSH1 0x4 DUP1 CALLDATASIZE SUB DUP2 ADD SWAP1 PUSH2 0x41D SWAP2 SWAP1 PUSH2 0x25F3 JUMP JUMPDEST PUSH2 0xA6D JUMP JUMPDEST STOP JUMPDEST PUSH2 0x43E PUSH1 0x4 DUP1 CALLDATASIZE SUB DUP2 ADD SWAP1 PUSH2 0x439 SWAP2 SWAP1 PUSH2 0x252F JUMP JUMPDEST PUSH2 0xCEA JUMP JUMPDEST STOP JUMPDEST CALLVALUE DUP1 ISZERO PUSH2 0x44C JUMPI PUSH1 0x0 DUP1 REVERT JUMPDEST POP PUSH2 0x467 PUSH1 0x4 DUP1 CALLDATASIZE SUB DUP2 ADD SWAP1 PUSH2 0x462 SWAP2 SWAP1 PUSH2 0x24F3 JUMP JUMPDEST PUSH2 0xDC9 JUMP JUMPDEST PUSH1 0x40 MLOAD PUSH2 0x47F SWAP13 SWAP12 SWAP11 SWAP10 SWAP9 SWAP8 SWAP7 SWAP6 SWAP5 SWAP4 SWAP3 SWAP2 SWAP1 PUSH2 0x2C1D JUMP JUMPDEST PUSH1 0x40 MLOAD DUP1 SWAP2 SUB SWAP1 RETURN JUMPDEST CALLVALUE DUP1 ISZERO PUSH2 0x494 JUMPI PUSH1 0x0 DUP1 REVERT JUMPDEST POP PUSH2 0x4AF PUSH1 0x4 DUP1 CALLDATASIZE SUB DUP2 ADD SWAP1 PUSH2 0x4AA SWAP2 SWAP1 PUSH2 0x2634 JUMP JUMPDEST PUSH2 0xFEF JUMP JUMPDEST PUSH1 0x40 MLOAD PUSH2 0x4BF SWAP5 SWAP4 SWAP3 SWAP2 SWAP1 PUSH2 0x2BD1 JUMP JUMPDEST PUSH1 0x40 MLOAD DUP1 SWAP2 SUB SWAP1 RETURN JUMPDEST CALLVALUE DUP1 ISZERO PUSH2 0x4D4 JUMPI PUSH1 0x0 DUP1 REVERT JUMPDEST POP PUSH2 0x4EF PUSH1 0x4 DUP1 CALLDATASIZE SUB DUP2 ADD SWAP1 PUSH2 0x4EA SWAP2 SWAP1 PUSH2 0x24CA JUMP JUMPDEST PUSH2 0x10D7 JUMP JUMPDEST STOP JUMPDEST CALLVALUE DUP1 ISZERO PUSH2 0x4FD JUMPI PUSH1 0x0 DUP1 REVERT JUMPDEST POP PUSH2 0x518 PUSH1 0x4 DUP1 CALLDATASIZE SUB DUP2 ADD SWAP1 PUSH2 0x513 SWAP2 SWAP1 PUSH2 0x24F3 JUMP JUMPDEST PUSH2 0x11BE JUMP JUMPDEST PUSH1 0x40 MLOAD PUSH2 0x525 SWAP2 SWAP1 PUSH2 0x29BB JUMP JUMPDEST PUSH1 0x40 MLOAD DUP1 SWAP2 SUB SWAP1 RETURN JUMPDEST CALLVALUE DUP1 ISZERO PUSH2 0x53A JUMPI PUSH1 0x0 DUP1 REVERT JUMPDEST POP PUSH2 0x543 PUSH2 0x11ED JUMP JUMPDEST STOP JUMPDEST CALLVALUE DUP1 ISZERO PUSH2 0x551 JUMPI PUSH1 0x0 DUP1 REVERT JUMPDEST POP PUSH2 0x56C PUSH1 0x4 DUP1 CALLDATASIZE SUB DUP2 ADD SWAP1 PUSH2 0x567 SWAP2 SWAP1 PUSH2 0x2558 JUMP JUMPDEST PUSH2 0x12C2 JUMP JUMPDEST PUSH1 0x40 MLOAD PUSH2 0x579 SWAP2 SWAP1 PUSH2 0x29BB JUMP JUMPDEST PUSH1 0x40 MLOAD DUP1 SWAP2 SUB SWAP1 RETURN JUMPDEST CALLVALUE DUP1 ISZERO PUSH2 0x58E JUMPI PUSH1 0x0 DUP1 REVERT JUMPDEST POP PUSH2 0x5A9 PUSH1 0x4 DUP1 CALLDATASIZE SUB DUP2 ADD SWAP1 PUSH2 0x5A4 SWAP2 SWAP1 PUSH2 0x2634 JUMP JUMPDEST PUSH2 0x1982 JUMP JUMPDEST PUSH1 0x40 MLOAD PUSH2 0x5C1 SWAP13 SWAP12 SWAP11 SWAP10 SWAP9 SWAP8 SWAP7 SWAP6 SWAP5 SWAP4 SWAP3 SWAP2 SWAP1 PUSH2 0x2C1D JUMP JUMPDEST PUSH1 0x40 MLOAD DUP1 SWAP2 SUB SWAP1 RETURN JUMPDEST CALLVALUE DUP1 ISZERO PUSH2 0x5D6 JUMPI PUSH1 0x0 DUP1 REVERT JUMPDEST POP PUSH2 0x5F1 PUSH1 0x4 DUP1 CALLDATASIZE SUB DUP2 ADD SWAP1 PUSH2 0x5EC SWAP2 SWAP1 PUSH2 0x24CA JUMP JUMPDEST PUSH2 0x1B9B JUMP JUMPDEST PUSH1 0x40 MLOAD PUSH2 0x5FE SWAP2 SWAP1 PUSH2 0x2BB6 JUMP JUMPDEST PUSH1 0x40 MLOAD DUP1 SWAP2 SUB SWAP1 RETURN JUMPDEST CALLVALUE DUP1 ISZERO PUSH2 0x613 JUMPI PUSH1 0x0 DUP1 REVERT JUMPDEST POP PUSH2 0x62E PUSH1 0x4 DUP1 CALLDATASIZE SUB DUP2 ADD SWAP1 PUSH2 0x629 SWAP2 SWAP1 PUSH2 0x265D JUMP JUMPDEST PUSH2 0x1BB3 JUMP JUMPDEST STOP JUMPDEST CALLVALUE DUP1 ISZERO PUSH2 0x63C JUMPI PUSH1 0x0 DUP1 REVERT JUMPDEST POP PUSH2 0x657 PUSH1 0x4 DUP1 CALLDATASIZE SUB DUP2 ADD SWAP1 PUSH2 0x652 SWAP2 SWAP1 PUSH2 0x2699 JUMP JUMPDEST PUSH2 0x1FBB JUMP JUMPDEST STOP JUMPDEST CALLVALUE DUP1 ISZERO PUSH2 0x665 JUMPI PUSH1 0x0 DUP1 REVERT JUMPDEST POP PUSH2 0x680 PUSH1 0x4 DUP1 CALLDATASIZE SUB DUP2 ADD SWAP1 PUSH2 0x67B SWAP2 SWAP1 PUSH2 0x2634 JUMP JUMPDEST PUSH2 0x21EE JUMP JUMPDEST STOP JUMPDEST CALLVALUE DUP1 ISZERO PUSH2 0x68E JUMPI PUSH1 0x0 DUP1 REVERT JUMPDEST POP PUSH2 0x6A9 PUSH1 0x4 DUP1 CALLDATASIZE SUB DUP2 ADD SWAP1 PUSH2 0x6A4 SWAP2 SWAP1 PUSH2 0x24CA JUMP JUMPDEST PUSH2 0x2309 JUMP JUMPDEST PUSH1 0x40 MLOAD PUSH2 0x6B6 SWAP2 SWAP1 PUSH2 0x2BB6 JUMP JUMPDEST PUSH1 0x40 MLOAD DUP1 SWAP2 SUB SWAP1 RETURN JUMPDEST PUSH1 0x5 PUSH1 0x0 CALLER PUSH20 0xFFFFFFFFFFFFFFFFFFFFFFFFFFFFFFFFFFFFFFFF AND PUSH20 0xFFFFFFFFFFFFFFFFFFFFFFFFFFFFFFFFFFFFFFFF AND DUP2 MSTORE PUSH1 0x20 ADD SWAP1 DUP2 MSTORE PUSH1 0x20 ADD PUSH1 0x0 KECCAK256 PUSH1 0x0 SWAP1 SLOAD SWAP1 PUSH2 0x100 EXP SWAP1 DIV PUSH1 0xFF AND PUSH2 0x74B JUMPI PUSH1 0x40 MLOAD PUSH32 0x8C379A000000000000000000000000000000000000000000000000000000000 DUP2 MSTORE PUSH1 0x4 ADD PUSH2 0x742 SWAP1 PUSH2 0x2B56 JUMP JUMPDEST PUSH1 0x40 MLOAD DUP1 SWAP2 SUB SWAP1 REVERT JUMPDEST PUSH1 0x0 PUSH1 0x5 PUSH1 0x0 DUP4 PUSH20 0xFFFFFFFFFFFFFFFFFFFFFFFFFFFFFFFFFFFFFFFF AND PUSH20 0xFFFFFFFFFFFFFFFFFFFFFFFFFFFFFFFFFFFFFFFF AND DUP2 MSTORE PUSH1 0x20 ADD SWAP1 DUP2 MSTORE PUSH1 0x20 ADD PUSH1 0x0 KECCAK256 PUSH1 0x0 PUSH2 0x100 EXP DUP2 SLOAD DUP2 PUSH1 0xFF MUL NOT AND SWAP1 DUP4 ISZERO ISZERO MUL OR SWAP1 SSTORE POP POP JUMP JUMPDEST PUSH1 0x5 PUSH1 0x20 MSTORE DUP1 PUSH1 0x0 MSTORE PUSH1 0x40 PUSH1 0x0 KECCAK256 PUSH1 0x0 SWAP2 POP SLOAD SWAP1 PUSH2 0x100 EXP SWAP1 DIV PUSH1 0xFF AND DUP2 JUMP JUMPDEST PUSH1 0x5 PUSH1 0x0 CALLER PUSH20 0xFFFFFFFFFFFFFFFFFFFFFFFFFFFFFFFFFFFFFFFF AND PUSH20 0xFFFFFFFFFFFFFFFFFFFFFFFFFFFFFFFFFFFFFFFF AND DUP2 MSTORE PUSH1 0x20 ADD SWAP1 DUP2 MSTORE PUSH1 0x20 ADD PUSH1 0x0 KECCAK256 PUSH1 0x0 SWAP1 SLOAD SWAP1 PUSH2 0x100 EXP SWAP1 DIV PUSH1 0xFF AND PUSH2 0x852 JUMPI PUSH1 0x40 MLOAD PUSH32 0x8C379A000000000000000000000000000000000000000000000000000000000 DUP2 MSTORE PUSH1 0x4 ADD PUSH2 0x849 SWAP1 PUSH2 0x2B56 JUMP JUMPDEST PUSH1 0x40 MLOAD DUP1 SWAP2 SUB SWAP1 REVERT JUMPDEST PUSH1 0xC DUP3 DUP2 SLOAD DUP2 LT PUSH2 0x88C JUMPI PUSH32 0x4E487B7100000000000000000000000000000000000000000000000000000000 PUSH1 0x0 MSTORE PUSH1 0x32 PUSH1 0x4 MSTORE PUSH1 0x24 PUSH1 0x0 REVERT JUMPDEST SWAP1 PUSH1 0x0 MSTORE PUSH1 0x20 PUSH1 0x0 KECCAK256 SWAP1 PUSH1 0xC MUL ADD PUSH1 0xB ADD PUSH1 0x15 SWAP1 SLOAD SWAP1 PUSH2 0x100 EXP SWAP1 DIV PUSH1 0xFF AND PUSH2 0x8EA JUMPI PUSH1 0x40 MLOAD PUSH32 0x8C379A000000000000000000000000000000000000000000000000000000000 DUP2 MSTORE PUSH1 0x4 ADD PUSH2 0x8E1 SWAP1 PUSH2 0x2B76 JUMP JUMPDEST PUSH1 0x40 MLOAD DUP1 SWAP2 SUB SWAP1 REVERT JUMPDEST PUSH1 0x0 PUSH1 0xC DUP4 DUP2 SLOAD DUP2 LT PUSH2 0x926 JUMPI PUSH32 0x4E487B7100000000000000000000000000000000000000000000000000000000 PUSH1 0x0 MSTORE PUSH1 0x32 PUSH1 0x4 MSTORE PUSH1 0x24 PUSH1 0x0 REVERT JUMPDEST SWAP1 PUSH1 0x0 MSTORE PUSH1 0x20 PUSH1 0x0 KECCAK256 SWAP1 PUSH1 0xC MUL ADD SWAP1 POP DUP1 PUSH1 0xB ADD PUSH1 0x15 SWAP1 SLOAD SWAP1 PUSH2 0x100 EXP SWAP1 DIV PUSH1 0xFF AND PUSH2 0x987 JUMPI PUSH1 0x40 MLOAD PUSH32 0x8C379A000000000000000000000000000000000000000000000000000000000 DUP2 MSTORE PUSH1 0x4 ADD PUSH2 0x97E SWAP1 PUSH2 0x2AB6 JUMP JUMPDEST PUSH1 0x40 MLOAD DUP1 SWAP2 SUB SWAP1 REVERT JUMPDEST DUP2 DUP2 PUSH1 0x2 ADD DUP2 SWAP1 SSTORE POP POP POP POP JUMP JUMPDEST PUSH1 0xA PUSH1 0x20 MSTORE DUP1 PUSH1 0x0 MSTORE PUSH1 0x40 PUSH1 0x0 KECCAK256 PUSH1 0x0 SWAP2 POP SWAP1 POP DUP1 PUSH1 0x0 ADD SLOAD SWAP1 DUP1 PUSH1 0x1 ADD PUSH1 0x0 SWAP1 SLOAD SWAP1 PUSH2 0x100 EXP SWAP1 DIV PUSH20 0xFFFFFFFFFFFFFFFFFFFFFFFFFFFFFFFFFFFFFFFF AND SWAP1 DUP1 PUSH1 0x2 ADD SLOAD SWAP1 DUP1 PUSH1 0x3 ADD DUP1 SLOAD PUSH2 0x9EA SWAP1 PUSH2 0x2EB1 JUMP JUMPDEST DUP1 PUSH1 0x1F ADD PUSH1 0x20 DUP1 SWAP2 DIV MUL PUSH1 0x20 ADD PUSH1 0x40 MLOAD SWAP1 DUP2 ADD PUSH1 0x40 MSTORE DUP1 SWAP3 SWAP2 SWAP1 DUP2 DUP2 MSTORE PUSH1 0x20 ADD DUP3 DUP1 SLOAD PUSH2 0xA16 SWAP1 PUSH2 0x2EB1 JUMP JUMPDEST DUP1 ISZERO PUSH2 0xA63 JUMPI DUP1 PUSH1 0x1F LT PUSH2 0xA38 JUMPI PUSH2 0x100 DUP1 DUP4 SLOAD DIV MUL DUP4 MSTORE SWAP2 PUSH1 0x20 ADD SWAP2 PUSH2 0xA63 JUMP JUMPDEST DUP3 ADD SWAP2 SWAP1 PUSH1 0x0 MSTORE PUSH1 0x20 PUSH1 0x0 KECCAK256 SWAP1 JUMPDEST DUP2 SLOAD DUP2 MSTORE SWAP1 PUSH1 0x1 ADD SWAP1 PUSH1 0x20 ADD DUP1 DUP4 GT PUSH2 0xA46 JUMPI DUP3 SWAP1 SUB PUSH1 0x1F AND DUP3 ADD SWAP2 JUMPDEST POP POP POP POP POP SWAP1 POP DUP5 JUMP JUMPDEST PUSH1 0x5 PUSH1 0x0 CALLER PUSH20 0xFFFFFFFFFFFFFFFFFFFFFFFFFFFFFFFFFFFFFFFF AND PUSH20 0xFFFFFFFFFFFFFFFFFFFFFFFFFFFFFFFFFFFFFFFF AND DUP2 MSTORE PUSH1 0x20 ADD SWAP1 DUP2 MSTORE PUSH1 0x20 ADD PUSH1 0x0 KECCAK256 PUSH1 0x0 SWAP1 SLOAD SWAP1 PUSH2 0x100 EXP SWAP1 DIV PUSH1 0xFF AND ISZERO PUSH2 0xAFA JUMPI PUSH1 0x40 MLOAD PUSH32 0x8C379A000000000000000000000000000000000000000000000000000000000 DUP2 MSTORE PUSH1 0x4 ADD PUSH2 0xAF1 SWAP1 PUSH2 0x29F6 JUMP JUMPDEST PUSH1 0x40 MLOAD DUP1 SWAP2 SUB SWAP1 REVERT JUMPDEST PUSH1 0x0 PUSH1 0x40 MLOAD DUP1 PUSH1 0x80 ADD PUSH1 0x40 MSTORE DUP1 PUSH1 0x4 SLOAD DUP2 MSTORE PUSH1 0x20 ADD CALLER PUSH20 0xFFFFFFFFFFFFFFFFFFFFFFFFFFFFFFFFFFFFFFFF AND DUP2 MSTORE PUSH1 0x20 ADD PUSH1 0x0 DUP2 MSTORE PUSH1 0x20 ADD DUP4 DUP2 MSTORE POP SWAP1 POP PUSH1 0xB DUP2 SWAP1 DUP1 PUSH1 0x1 DUP2 SLOAD ADD DUP1 DUP3 SSTORE DUP1 SWAP2 POP POP PUSH1 0x1 SWAP1 SUB SWAP1 PUSH1 0x0 MSTORE PUSH1 0x20 PUSH1 0x0 KECCAK256 SWAP1 PUSH1 0x4 MUL ADD PUSH1 0x0 SWAP1 SWAP2 SWAP1 SWAP2 SWAP1 SWAP2 POP PUSH1 0x0 DUP3 ADD MLOAD DUP2 PUSH1 0x0 ADD SSTORE PUSH1 0x20 DUP3 ADD MLOAD DUP2 PUSH1 0x1 ADD PUSH1 0x0 PUSH2 0x100 EXP DUP2 SLOAD DUP2 PUSH20 0xFFFFFFFFFFFFFFFFFFFFFFFFFFFFFFFFFFFFFFFF MUL NOT AND SWAP1 DUP4 PUSH20 0xFFFFFFFFFFFFFFFFFFFFFFFFFFFFFFFFFFFFFFFF AND MUL OR SWAP1 SSTORE POP PUSH1 0x40 DUP3 ADD MLOAD DUP2 PUSH1 0x2 ADD SSTORE PUSH1 0x60 DUP3 ADD MLOAD DUP2 PUSH1 0x3 ADD SWAP1 DUP1 MLOAD SWAP1 PUSH1 0x20 ADD SWAP1 PUSH2 0xBDB SWAP3 SWAP2 SWAP1 PUSH2 0x2321 JUMP JUMPDEST POP POP POP DUP1 PUSH1 0xA PUSH1 0x0 CALLER PUSH20 0xFFFFFFFFFFFFFFFFFFFFFFFFFFFFFFFFFFFFFFFF AND PUSH20 0xFFFFFFFFFFFFFFFFFFFFFFFFFFFFFFFFFFFFFFFF AND DUP2 MSTORE PUSH1 0x20 ADD SWAP1 DUP2 MSTORE PUSH1 0x20 ADD PUSH1 0x0 KECCAK256 PUSH1 0x0 DUP3 ADD MLOAD DUP2 PUSH1 0x0 ADD SSTORE PUSH1 0x20 DUP3 ADD MLOAD DUP2 PUSH1 0x1 ADD PUSH1 0x0 PUSH2 0x100 EXP DUP2 SLOAD DUP2 PUSH20 0xFFFFFFFFFFFFFFFFFFFFFFFFFFFFFFFFFFFFFFFF MUL NOT AND SWAP1 DUP4 PUSH20 0xFFFFFFFFFFFFFFFFFFFFFFFFFFFFFFFFFFFFFFFF AND MUL OR SWAP1 SSTORE POP PUSH1 0x40 DUP3 ADD MLOAD DUP2 PUSH1 0x2 ADD SSTORE PUSH1 0x60 DUP3 ADD MLOAD DUP2 PUSH1 0x3 ADD SWAP1 DUP1 MLOAD SWAP1 PUSH1 0x20 ADD SWAP1 PUSH2 0xC95 SWAP3 SWAP2 SWAP1 PUSH2 0x2321 JUMP JUMPDEST POP SWAP1 POP POP PUSH1 0x4 PUSH1 0x0 DUP2 SLOAD DUP1 SWAP3 SWAP2 SWAP1 PUSH2 0xCAC SWAP1 PUSH2 0x2F14 JUMP JUMPDEST SWAP2 SWAP1 POP SSTORE POP PUSH32 0xCBD46A911831C76D92578CECA757258656ADD2111EE59AC2EBB757DF9708180B PUSH1 0x40 MLOAD PUSH2 0xCDE SWAP1 PUSH2 0x2B36 JUMP JUMPDEST PUSH1 0x40 MLOAD DUP1 SWAP2 SUB SWAP1 LOG1 POP POP JUMP JUMPDEST CALLVALUE PUSH1 0x2 PUSH1 0x0 DUP3 DUP3 SLOAD PUSH2 0xCFC SWAP2 SWAP1 PUSH2 0x2D5A JUMP JUMPDEST SWAP3 POP POP DUP2 SWAP1 SSTORE POP DUP1 PUSH2 0xDC6 JUMPI CALLVALUE PUSH1 0x9 PUSH1 0x0 CALLER PUSH20 0xFFFFFFFFFFFFFFFFFFFFFFFFFFFFFFFFFFFFFFFF AND PUSH20 0xFFFFFFFFFFFFFFFFFFFFFFFFFFFFFFFFFFFFFFFF AND DUP2 MSTORE PUSH1 0x20 ADD SWAP1 DUP2 MSTORE PUSH1 0x20 ADD PUSH1 0x0 KECCAK256 PUSH1 0x0 DUP3 DUP3 SLOAD PUSH2 0xD57 SWAP2 SWAP1 PUSH2 0x2D5A JUMP JUMPDEST SWAP3 POP POP DUP2 SWAP1 SSTORE POP PUSH6 0x5AF3107A4000 CALLVALUE PUSH2 0xD70 SWAP2 SWAP1 PUSH2 0x2DB0 JUMP JUMPDEST PUSH1 0x6 PUSH1 0x0 CALLER PUSH20 0xFFFFFFFFFFFFFFFFFFFFFFFFFFFFFFFFFFFFFFFF AND PUSH20 0xFFFFFFFFFFFFFFFFFFFFFFFFFFFFFFFFFFFFFFFF AND DUP2 MSTORE PUSH1 0x20 ADD SWAP1 DUP2 MSTORE PUSH1 0x20 ADD PUSH1 0x0 KECCAK256 PUSH1 0x0 DUP3 DUP3 SLOAD PUSH2 0xDBE SWAP2 SWAP1 PUSH2 0x2D5A JUMP JUMPDEST SWAP3 POP POP DUP2 SWAP1 SSTORE POP JUMPDEST POP JUMP JUMPDEST PUSH1 0x7 PUSH1 0x20 MSTORE DUP2 PUSH1 0x0 MSTORE PUSH1 0x40 PUSH1 0x0 KECCAK256 DUP2 DUP2 SLOAD DUP2 LT PUSH2 0xDE5 JUMPI PUSH1 0x0 DUP1 REVERT JUMPDEST SWAP1 PUSH1 0x0 MSTORE PUSH1 0x20 PUSH1 0x0 KECCAK256 SWAP1 PUSH1 0xC MUL ADD PUSH1 0x0 SWAP2 POP SWAP2 POP POP DUP1 PUSH1 0x0 ADD SLOAD SWAP1 DUP1 PUSH1 0x1 ADD SLOAD SWAP1 DUP1 PUSH1 0x2 ADD SLOAD SWAP1 DUP1 PUSH1 0x3 ADD SLOAD SWAP1 DUP1 PUSH1 0x4 ADD PUSH1 0x40 MLOAD DUP1 PUSH1 0x80 ADD PUSH1 0x40 MSTORE SWAP1 DUP2 PUSH1 0x0 DUP3 ADD SLOAD DUP2 MSTORE PUSH1 0x20 ADD PUSH1 0x1 DUP3 ADD SLOAD DUP2 MSTORE PUSH1 0x20 ADD PUSH1 0x2 DUP3 ADD SLOAD DUP2 MSTORE PUSH1 0x20 ADD PUSH1 0x3 DUP3 ADD SLOAD DUP2 MSTORE POP POP SWAP1 DUP1 PUSH1 0x8 ADD DUP1 SLOAD PUSH2 0xE59 SWAP1 PUSH2 0x2EB1 JUMP JUMPDEST DUP1 PUSH1 0x1F ADD PUSH1 0x20 DUP1 SWAP2 DIV MUL PUSH1 0x20 ADD PUSH1 0x40 MLOAD SWAP1 DUP2 ADD PUSH1 0x40 MSTORE DUP1 SWAP3 SWAP2 SWAP1 DUP2 DUP2 MSTORE PUSH1 0x20 ADD DUP3 DUP1 SLOAD PUSH2 0xE85 SWAP1 PUSH2 0x2EB1 JUMP JUMPDEST DUP1 ISZERO PUSH2 0xED2 JUMPI DUP1 PUSH1 0x1F LT PUSH2 0xEA7 JUMPI PUSH2 0x100 DUP1 DUP4 SLOAD DIV MUL DUP4 MSTORE SWAP2 PUSH1 0x20 ADD SWAP2 PUSH2 0xED2 JUMP JUMPDEST DUP3 ADD SWAP2 SWAP1 PUSH1 0x0 MSTORE PUSH1 0x20 PUSH1 0x0 KECCAK256 SWAP1 JUMPDEST DUP2 SLOAD DUP2 MSTORE SWAP1 PUSH1 0x1 ADD SWAP1 PUSH1 0x20 ADD DUP1 DUP4 GT PUSH2 0xEB5 JUMPI DUP3 SWAP1 SUB PUSH1 0x1F AND DUP3 ADD SWAP2 JUMPDEST POP POP POP POP POP SWAP1 DUP1 PUSH1 0x9 ADD DUP1 SLOAD PUSH2 0xEE7 SWAP1 PUSH2 0x2EB1 JUMP JUMPDEST DUP1 PUSH1 0x1F ADD PUSH1 0x20 DUP1 SWAP2 DIV MUL PUSH1 0x20 ADD PUSH1 0x40 MLOAD SWAP1 DUP2 ADD PUSH1 0x40 MSTORE DUP1 SWAP3 SWAP2 SWAP1 DUP2 DUP2 MSTORE PUSH1 0x20 ADD DUP3 DUP1 SLOAD PUSH2 0xF13 SWAP1 PUSH2 0x2EB1 JUMP JUMPDEST DUP1 ISZERO PUSH2 0xF60 JUMPI DUP1 PUSH1 0x1F LT PUSH2 0xF35 JUMPI PUSH2 0x100 DUP1 DUP4 SLOAD DIV MUL DUP4 MSTORE SWAP2 PUSH1 0x20 ADD SWAP2 PUSH2 0xF60 JUMP JUMPDEST DUP3 ADD SWAP2 SWAP1 PUSH1 0x0 MSTORE PUSH1 0x20 PUSH1 0x0 KECCAK256 SWAP1 JUMPDEST DUP2 SLOAD DUP2 MSTORE SWAP1 PUSH1 0x1 ADD SWAP1 PUSH1 0x20 ADD DUP1 DUP4 GT PUSH2 0xF43 JUMPI DUP3 SWAP1 SUB PUSH1 0x1F AND DUP3 ADD SWAP2 JUMPDEST POP POP POP POP POP SWAP1 DUP1 PUSH1 0xA ADD PUSH1 0x0 SWAP1 SLOAD SWAP1 PUSH2 0x100 EXP SWAP1 DIV PUSH20 0xFFFFFFFFFFFFFFFFFFFFFFFFFFFFFFFFFFFFFFFF AND SWAP1 DUP1 PUSH1 0xB ADD PUSH1 0x0 SWAP1 SLOAD SWAP1 PUSH2 0x100 EXP SWAP1 DIV PUSH20 0xFFFFFFFFFFFFFFFFFFFFFFFFFFFFFFFFFFFFFFFF AND SWAP1 DUP1 PUSH1 0xB ADD PUSH1 0x14 SWAP1 SLOAD SWAP1 PUSH2 0x100 EXP SWAP1 DIV PUSH1 0xFF AND SWAP1 DUP1 PUSH1 0xB ADD PUSH1 0x15 SWAP1 SLOAD SWAP1 PUSH2 0x100 EXP SWAP1 DIV PUSH1 0xFF AND SWAP1 DUP1 PUSH1 0xB ADD PUSH1 0x16 SWAP1 SLOAD SWAP1 PUSH2 0x100 EXP SWAP1 DIV PUSH1 0xFF AND SWAP1 POP DUP13 JUMP JUMPDEST PUSH1 0xB DUP2 DUP2 SLOAD DUP2 LT PUSH2 0xFFF JUMPI PUSH1 0x0 DUP1 REVERT JUMPDEST SWAP1 PUSH1 0x0 MSTORE PUSH1 0x20 PUSH1 0x0 KECCAK256 SWAP1 PUSH1 0x4 MUL ADD PUSH1 0x0 SWAP2 POP SWAP1 POP DUP1 PUSH1 0x0 ADD SLOAD SWAP1 DUP1 PUSH1 0x1 ADD PUSH1 0x0 SWAP1 SLOAD SWAP1 PUSH2 0x100 EXP SWAP1 DIV PUSH20 0xFFFFFFFFFFFFFFFFFFFFFFFFFFFFFFFFFFFFFFFF AND SWAP1 DUP1 PUSH1 0x2 ADD SLOAD SWAP1 DUP1 PUSH1 0x3 ADD DUP1 SLOAD PUSH2 0x1054 SWAP1 PUSH2 0x2EB1 JUMP JUMPDEST DUP1 PUSH1 0x1F ADD PUSH1 0x20 DUP1 SWAP2 DIV MUL PUSH1 0x20 ADD PUSH1 0x40 MLOAD SWAP1 DUP2 ADD PUSH1 0x40 MSTORE DUP1 SWAP3 SWAP2 SWAP1 DUP2 DUP2 MSTORE PUSH1 0x20 ADD DUP3 DUP1 SLOAD PUSH2 0x1080 SWAP1 PUSH2 0x2EB1 JUMP JUMPDEST DUP1 ISZERO PUSH2 0x10CD JUMPI DUP1 PUSH1 0x1F LT PUSH2 0x10A2 JUMPI PUSH2 0x100 DUP1 DUP4 SLOAD DIV MUL DUP4 MSTORE SWAP2 PUSH1 0x20 ADD SWAP2 PUSH2 0x10CD JUMP JUMPDEST DUP3 ADD SWAP2 SWAP1 PUSH1 0x0 MSTORE PUSH1 0x20 PUSH1 0x0 KECCAK256 SWAP1 JUMPDEST DUP2 SLOAD DUP2 MSTORE SWAP1 PUSH1 0x1 ADD SWAP1 PUSH1 0x20 ADD DUP1 DUP4 GT PUSH2 0x10B0 JUMPI DUP3 SWAP1 SUB PUSH1 0x1F AND DUP3 ADD SWAP2 JUMPDEST POP POP POP POP POP SWAP1 POP DUP5 JUMP JUMPDEST PUSH1 0x5 PUSH1 0x0 CALLER PUSH20 0xFFFFFFFFFFFFFFFFFFFFFFFFFFFFFFFFFFFFFFFF AND PUSH20 0xFFFFFFFFFFFFFFFFFFFFFFFFFFFFFFFFFFFFFFFF AND DUP2 MSTORE PUSH1 0x20 ADD SWAP1 DUP2 MSTORE PUSH1 0x20 ADD PUSH1 0x0 KECCAK256 PUSH1 0x0 SWAP1 SLOAD SWAP1 PUSH2 0x100 EXP SWAP1 DIV PUSH1 0xFF AND PUSH2 0x1163 JUMPI PUSH1 0x40 MLOAD PUSH32 0x8C379A000000000000000000000000000000000000000000000000000000000 DUP2 MSTORE PUSH1 0x4 ADD PUSH2 0x115A SWAP1 PUSH2 0x2B56 JUMP JUMPDEST PUSH1 0x40 MLOAD DUP1 SWAP2 SUB SWAP1 REVERT JUMPDEST PUSH1 0x1 PUSH1 0x5 PUSH1 0x0 DUP4 PUSH20 0xFFFFFFFFFFFFFFFFFFFFFFFFFFFFFFFFFFFFFFFF AND PUSH20 0xFFFFFFFFFFFFFFFFFFFFFFFFFFFFFFFFFFFFFFFF AND DUP2 MSTORE PUSH1 0x20 ADD SWAP1 DUP2 MSTORE PUSH1 0x20 ADD PUSH1 0x0 KECCAK256 PUSH1 0x0 PUSH2 0x100 EXP DUP2 SLOAD DUP2 PUSH1 0xFF MUL NOT AND SWAP1 DUP4 ISZERO ISZERO MUL OR SWAP1 SSTORE POP POP JUMP JUMPDEST PUSH1 0x8 PUSH1 0x20 MSTORE DUP2 PUSH1 0x0 MSTORE PUSH1 0x40 PUSH1 0x0 KECCAK256 PUSH1 0x20 MSTORE DUP1 PUSH1 0x0 MSTORE PUSH1 0x40 PUSH1 0x0 KECCAK256 PUSH1 0x0 SWAP2 POP SWAP2 POP SWAP1 SLOAD SWAP1 PUSH2 0x100 EXP SWAP1 DIV PUSH1 0xFF AND DUP2 JUMP JUMPDEST PUSH1 0x5 PUSH1 0x0 CALLER PUSH20 0xFFFFFFFFFFFFFFFFFFFFFFFFFFFFFFFFFFFFFFFF AND PUSH20 0xFFFFFFFFFFFFFFFFFFFFFFFFFFFFFFFFFFFFFFFF AND DUP2 MSTORE PUSH1 0x20 ADD SWAP1 DUP2 MSTORE PUSH1 0x20 ADD PUSH1 0x0 KECCAK256 PUSH1 0x0 SWAP1 SLOAD SWAP1 PUSH2 0x100 EXP SWAP1 DIV PUSH1 0xFF AND PUSH2 0x1279 JUMPI PUSH1 0x40 MLOAD PUSH32 0x8C379A000000000000000000000000000000000000000000000000000000000 DUP2 MSTORE PUSH1 0x4 ADD PUSH2 0x1270 SWAP1 PUSH2 0x2A96 JUMP JUMPDEST PUSH1 0x40 MLOAD DUP1 SWAP2 SUB SWAP1 REVERT JUMPDEST CALLER PUSH20 0xFFFFFFFFFFFFFFFFFFFFFFFFFFFFFFFFFFFFFFFF AND PUSH2 0x8FC SELFBALANCE SWAP1 DUP2 ISZERO MUL SWAP1 PUSH1 0x40 MLOAD PUSH1 0x0 PUSH1 0x40 MLOAD DUP1 DUP4 SUB DUP2 DUP6 DUP9 DUP9 CALL SWAP4 POP POP POP POP ISZERO DUP1 ISZERO PUSH2 0x12BF JUMPI RETURNDATASIZE PUSH1 0x0 DUP1 RETURNDATACOPY RETURNDATASIZE PUSH1 0x0 REVERT JUMPDEST POP JUMP JUMPDEST PUSH1 0x0 DUP1 PUSH1 0x9 PUSH1 0x0 CALLER PUSH20 0xFFFFFFFFFFFFFFFFFFFFFFFFFFFFFFFFFFFFFFFF AND PUSH20 0xFFFFFFFFFFFFFFFFFFFFFFFFFFFFFFFFFFFFFFFF AND DUP2 MSTORE PUSH1 0x20 ADD SWAP1 DUP2 MSTORE PUSH1 0x20 ADD PUSH1 0x0 KECCAK256 SLOAD GT DUP1 PUSH2 0x1361 JUMPI POP PUSH1 0x1 ISZERO ISZERO PUSH1 0x5 PUSH1 0x0 CALLER PUSH20 0xFFFFFFFFFFFFFFFFFFFFFFFFFFFFFFFFFFFFFFFF AND PUSH20 0xFFFFFFFFFFFFFFFFFFFFFFFFFFFFFFFFFFFFFFFF AND DUP2 MSTORE PUSH1 0x20 ADD SWAP1 DUP2 MSTORE PUSH1 0x20 ADD PUSH1 0x0 KECCAK256 PUSH1 0x0 SWAP1 SLOAD SWAP1 PUSH2 0x100 EXP SWAP1 DIV PUSH1 0xFF AND ISZERO ISZERO EQ JUMPDEST PUSH2 0x13A0 JUMPI PUSH1 0x40 MLOAD PUSH32 0x8C379A000000000000000000000000000000000000000000000000000000000 DUP2 MSTORE PUSH1 0x4 ADD PUSH2 0x1397 SWAP1 PUSH2 0x2A76 JUMP JUMPDEST PUSH1 0x40 MLOAD DUP1 SWAP2 SUB SWAP1 REVERT JUMPDEST PUSH1 0x0 PUSH1 0x5 PUSH1 0x0 CALLER PUSH20 0xFFFFFFFFFFFFFFFFFFFFFFFFFFFFFFFFFFFFFFFF AND PUSH20 0xFFFFFFFFFFFFFFFFFFFFFFFFFFFFFFFFFFFFFFFF AND DUP2 MSTORE PUSH1 0x20 ADD SWAP1 DUP2 MSTORE PUSH1 0x20 ADD PUSH1 0x0 KECCAK256 PUSH1 0x0 SWAP1 SLOAD SWAP1 PUSH2 0x100 EXP SWAP1 DIV PUSH1 0xFF AND SWAP1 POP PUSH1 0x0 PUSH1 0x5 PUSH1 0x0 CALLER PUSH20 0xFFFFFFFFFFFFFFFFFFFFFFFFFFFFFFFFFFFFFFFF AND PUSH20 0xFFFFFFFFFFFFFFFFFFFFFFFFFFFFFFFFFFFFFFFF AND DUP2 MSTORE PUSH1 0x20 ADD SWAP1 DUP2 MSTORE PUSH1 0x20 ADD PUSH1 0x0 KECCAK256 PUSH1 0x0 SWAP1 SLOAD SWAP1 PUSH2 0x100 EXP SWAP1 DIV PUSH1 0xFF AND SWAP1 POP PUSH1 0x0 PUSH1 0x40 MLOAD DUP1 PUSH2 0x180 ADD PUSH1 0x40 MSTORE DUP1 PUSH1 0x3 SLOAD DUP2 MSTORE PUSH1 0x20 ADD DUP8 DUP2 MSTORE PUSH1 0x20 ADD PUSH1 0x0 SLOAD DUP2 MSTORE PUSH1 0x20 ADD PUSH1 0x1 SLOAD DUP2 MSTORE PUSH1 0x20 ADD PUSH1 0x40 MLOAD DUP1 PUSH1 0x80 ADD PUSH1 0x40 MSTORE DUP1 PUSH1 0x0 DUP2 MSTORE PUSH1 0x20 ADD PUSH1 0x0 DUP2 MSTORE PUSH1 0x20 ADD PUSH1 0x0 DUP2 MSTORE PUSH1 0x20 ADD PUSH1 0x0 DUP2 MSTORE POP DUP2 MSTORE PUSH1 0x20 ADD DUP12 DUP12 DUP1 DUP1 PUSH1 0x1F ADD PUSH1 0x20 DUP1 SWAP2 DIV MUL PUSH1 0x20 ADD PUSH1 0x40 MLOAD SWAP1 DUP2 ADD PUSH1 0x40 MSTORE DUP1 SWAP4 SWAP3 SWAP2 SWAP1 DUP2 DUP2 MSTORE PUSH1 0x20 ADD DUP4 DUP4 DUP1 DUP3 DUP5 CALLDATACOPY PUSH1 0x0 DUP2 DUP5 ADD MSTORE PUSH1 0x1F NOT PUSH1 0x1F DUP3 ADD AND SWAP1 POP DUP1 DUP4 ADD SWAP3 POP POP POP POP POP POP POP DUP2 MSTORE PUSH1 0x20 ADD DUP10 DUP10 DUP1 DUP1 PUSH1 0x1F ADD PUSH1 0x20 DUP1 SWAP2 DIV MUL PUSH1 0x20 ADD PUSH1 0x40 MLOAD SWAP1 DUP2 ADD PUSH1 0x40 MSTORE DUP1 SWAP4 SWAP3 SWAP2 SWAP1 DUP2 DUP2 MSTORE PUSH1 0x20 ADD DUP4 DUP4 DUP1 DUP3 DUP5 CALLDATACOPY PUSH1 0x0 DUP2 DUP5 ADD MSTORE PUSH1 0x1F NOT PUSH1 0x1F DUP3 ADD AND SWAP1 POP DUP1 DUP4 ADD SWAP3 POP POP POP POP POP POP POP DUP2 MSTORE PUSH1 0x20 ADD DUP7 PUSH20 0xFFFFFFFFFFFFFFFFFFFFFFFFFFFFFFFFFFFFFFFF AND DUP2 MSTORE PUSH1 0x20 ADD CALLER PUSH20 0xFFFFFFFFFFFFFFFFFFFFFFFFFFFFFFFFFFFFFFFF AND DUP2 MSTORE PUSH1 0x20 ADD DUP5 ISZERO ISZERO DUP2 MSTORE PUSH1 0x20 ADD DUP4 ISZERO ISZERO DUP2 MSTORE PUSH1 0x20 ADD PUSH1 0x0 ISZERO ISZERO DUP2 MSTORE POP SWAP1 POP PUSH1 0xC DUP2 SWAP1 DUP1 PUSH1 0x1 DUP2 SLOAD ADD DUP1 DUP3 SSTORE DUP1 SWAP2 POP POP PUSH1 0x1 SWAP1 SUB SWAP1 PUSH1 0x0 MSTORE PUSH1 0x20 PUSH1 0x0 KECCAK256 SWAP1 PUSH1 0xC MUL ADD PUSH1 0x0 SWAP1 SWAP2 SWAP1 SWAP2 SWAP1 SWAP2 POP PUSH1 0x0 DUP3 ADD MLOAD DUP2 PUSH1 0x0 ADD SSTORE PUSH1 0x20 DUP3 ADD MLOAD DUP2 PUSH1 0x1 ADD SSTORE PUSH1 0x40 DUP3 ADD MLOAD DUP2 PUSH1 0x2 ADD SSTORE PUSH1 0x60 DUP3 ADD MLOAD DUP2 PUSH1 0x3 ADD SSTORE PUSH1 0x80 DUP3 ADD MLOAD DUP2 PUSH1 0x4 ADD PUSH1 0x0 DUP3 ADD MLOAD DUP2 PUSH1 0x0 ADD SSTORE PUSH1 0x20 DUP3 ADD MLOAD DUP2 PUSH1 0x1 ADD SSTORE PUSH1 0x40 DUP3 ADD MLOAD DUP2 PUSH1 0x2 ADD SSTORE PUSH1 0x60 DUP3 ADD MLOAD DUP2 PUSH1 0x3 ADD SSTORE POP POP PUSH1 0xA0 DUP3 ADD MLOAD DUP2 PUSH1 0x8 ADD SWAP1 DUP1 MLOAD SWAP1 PUSH1 0x20 ADD SWAP1 PUSH2 0x1620 SWAP3 SWAP2 SWAP1 PUSH2 0x2321 JUMP JUMPDEST POP PUSH1 0xC0 DUP3 ADD MLOAD DUP2 PUSH1 0x9 ADD SWAP1 DUP1 MLOAD SWAP1 PUSH1 0x20 ADD SWAP1 PUSH2 0x163D SWAP3 SWAP2 SWAP1 PUSH2 0x2321 JUMP JUMPDEST POP PUSH1 0xE0 DUP3 ADD MLOAD DUP2 PUSH1 0xA ADD PUSH1 0x0 PUSH2 0x100 EXP DUP2 SLOAD DUP2 PUSH20 0xFFFFFFFFFFFFFFFFFFFFFFFFFFFFFFFFFFFFFFFF MUL NOT AND SWAP1 DUP4 PUSH20 0xFFFFFFFFFFFFFFFFFFFFFFFFFFFFFFFFFFFFFFFF AND MUL OR SWAP1 SSTORE POP PUSH2 0x100 DUP3 ADD MLOAD DUP2 PUSH1 0xB ADD PUSH1 0x0 PUSH2 0x100 EXP DUP2 SLOAD DUP2 PUSH20 0xFFFFFFFFFFFFFFFFFFFFFFFFFFFFFFFFFFFFFFFF MUL NOT AND SWAP1 DUP4 PUSH20 0xFFFFFFFFFFFFFFFFFFFFFFFFFFFFFFFFFFFFFFFF AND MUL OR SWAP1 SSTORE POP PUSH2 0x120 DUP3 ADD MLOAD DUP2 PUSH1 0xB ADD PUSH1 0x14 PUSH2 0x100 EXP DUP2 SLOAD DUP2 PUSH1 0xFF MUL NOT AND SWAP1 DUP4 ISZERO ISZERO MUL OR SWAP1 SSTORE POP PUSH2 0x140 DUP3 ADD MLOAD DUP2 PUSH1 0xB ADD PUSH1 0x15 PUSH2 0x100 EXP DUP2 SLOAD DUP2 PUSH1 0xFF MUL NOT AND SWAP1 DUP4 ISZERO ISZERO MUL OR SWAP1 SSTORE POP PUSH2 0x160 DUP3 ADD MLOAD DUP2 PUSH1 0xB ADD PUSH1 0x16 PUSH2 0x100 EXP DUP2 SLOAD DUP2 PUSH1 0xFF MUL NOT AND SWAP1 DUP4 ISZERO ISZERO MUL OR SWAP1 SSTORE POP POP POP PUSH1 0x7 PUSH1 0x0 CALLER PUSH20 0xFFFFFFFFFFFFFFFFFFFFFFFFFFFFFFFFFFFFFFFF AND PUSH20 0xFFFFFFFFFFFFFFFFFFFFFFFFFFFFFFFFFFFFFFFF AND DUP2 MSTORE PUSH1 0x20 ADD SWAP1 DUP2 MSTORE PUSH1 0x20 ADD PUSH1 0x0 KECCAK256 DUP2 SWAP1 DUP1 PUSH1 0x1 DUP2 SLOAD ADD DUP1 DUP3 SSTORE DUP1 SWAP2 POP POP PUSH1 0x1 SWAP1 SUB SWAP1 PUSH1 0x0 MSTORE PUSH1 0x20 PUSH1 0x0 KECCAK256 SWAP1 PUSH1 0xC MUL ADD PUSH1 0x0 SWAP1 SWAP2 SWAP1 SWAP2 SWAP1 SWAP2 POP PUSH1 0x0 DUP3 ADD MLOAD DUP2 PUSH1 0x0 ADD SSTORE PUSH1 0x20 DUP3 ADD MLOAD DUP2 PUSH1 0x1 ADD SSTORE PUSH1 0x40 DUP3 ADD MLOAD DUP2 PUSH1 0x2 ADD SSTORE PUSH1 0x60 DUP3 ADD MLOAD DUP2 PUSH1 0x3 ADD SSTORE PUSH1 0x80 DUP3 ADD MLOAD DUP2 PUSH1 0x4 ADD PUSH1 0x0 DUP3 ADD MLOAD DUP2 PUSH1 0x0 ADD SSTORE PUSH1 0x20 DUP3 ADD MLOAD DUP2 PUSH1 0x1 ADD SSTORE PUSH1 0x40 DUP3 ADD MLOAD DUP2 PUSH1 0x2 ADD SSTORE PUSH1 0x60 DUP3 ADD MLOAD DUP2 PUSH1 0x3 ADD SSTORE POP POP PUSH1 0xA0 DUP3 ADD MLOAD DUP2 PUSH1 0x8 ADD SWAP1 DUP1 MLOAD SWAP1 PUSH1 0x20 ADD SWAP1 PUSH2 0x1812 SWAP3 SWAP2 SWAP1 PUSH2 0x2321 JUMP JUMPDEST POP PUSH1 0xC0 DUP3 ADD MLOAD DUP2 PUSH1 0x9 ADD SWAP1 DUP1 MLOAD SWAP1 PUSH1 0x20 ADD SWAP1 PUSH2 0x182F SWAP3 SWAP2 SWAP1 PUSH2 0x2321 JUMP JUMPDEST POP PUSH1 0xE0 DUP3 ADD MLOAD DUP2 PUSH1 0xA ADD PUSH1 0x0 PUSH2 0x100 EXP DUP2 SLOAD DUP2 PUSH20 0xFFFFFFFFFFFFFFFFFFFFFFFFFFFFFFFFFFFFFFFF MUL NOT AND SWAP1 DUP4 PUSH20 0xFFFFFFFFFFFFFFFFFFFFFFFFFFFFFFFFFFFFFFFF AND MUL OR SWAP1 SSTORE POP PUSH2 0x100 DUP3 ADD MLOAD DUP2 PUSH1 0xB ADD PUSH1 0x0 PUSH2 0x100 EXP DUP2 SLOAD DUP2 PUSH20 0xFFFFFFFFFFFFFFFFFFFFFFFFFFFFFFFFFFFFFFFF MUL NOT AND SWAP1 DUP4 PUSH20 0xFFFFFFFFFFFFFFFFFFFFFFFFFFFFFFFFFFFFFFFF AND MUL OR SWAP1 SSTORE POP PUSH2 0x120 DUP3 ADD MLOAD DUP2 PUSH1 0xB ADD PUSH1 0x14 PUSH2 0x100 EXP DUP2 SLOAD DUP2 PUSH1 0xFF MUL NOT AND SWAP1 DUP4 ISZERO ISZERO MUL OR SWAP1 SSTORE POP PUSH2 0x140 DUP3 ADD MLOAD DUP2 PUSH1 0xB ADD PUSH1 0x15 PUSH2 0x100 EXP DUP2 SLOAD DUP2 PUSH1 0xFF MUL NOT AND SWAP1 DUP4 ISZERO ISZERO MUL OR SWAP1 SSTORE POP PUSH2 0x160 DUP3 ADD MLOAD DUP2 PUSH1 0xB ADD PUSH1 0x16 PUSH2 0x100 EXP DUP2 SLOAD DUP2 PUSH1 0xFF MUL NOT AND SWAP1 DUP4 ISZERO ISZERO MUL OR SWAP1 SSTORE POP POP POP PUSH1 0x3 PUSH1 0x0 DUP2 SLOAD DUP1 SWAP3 SWAP2 SWAP1 PUSH2 0x1937 SWAP1 PUSH2 0x2F14 JUMP JUMPDEST SWAP2 SWAP1 POP SSTORE POP PUSH32 0xCBD46A911831C76D92578CECA757258656ADD2111EE59AC2EBB757DF9708180B PUSH1 0x40 MLOAD PUSH2 0x1969 SWAP1 PUSH2 0x2B96 JUMP JUMPDEST PUSH1 0x40 MLOAD DUP1 SWAP2 SUB SWAP1 LOG1 PUSH1 0x1 SWAP4 POP POP POP POP SWAP7 SWAP6 POP POP POP POP POP POP JUMP JUMPDEST PUSH1 0xC DUP2 DUP2 SLOAD DUP2 LT PUSH2 0x1992 JUMPI PUSH1 0x0 DUP1 REVERT JUMPDEST SWAP1 PUSH1 0x0 MSTORE PUSH1 0x20 PUSH1 0x0 KECCAK256 SWAP1 PUSH1 0xC MUL ADD PUSH1 0x0 SWAP2 POP SWAP1 POP DUP1 PUSH1 0x0 ADD SLOAD SWAP1 DUP1 PUSH1 0x1 ADD SLOAD SWAP1 DUP1 PUSH1 0x2 ADD SLOAD SWAP1 DUP1 PUSH1 0x3 ADD SLOAD SWAP1 DUP1 PUSH1 0x4 ADD PUSH1 0x40 MLOAD DUP1 PUSH1 0x80 ADD PUSH1 0x40 MSTORE SWAP1 DUP2 PUSH1 0x0 DUP3 ADD SLOAD DUP2 MSTORE PUSH1 0x20 ADD PUSH1 0x1 DUP3 ADD SLOAD DUP2 MSTORE PUSH1 0x20 ADD PUSH1 0x2 DUP3 ADD SLOAD DUP2 MSTORE PUSH1 0x20 ADD PUSH1 0x3 DUP3 ADD SLOAD DUP2 MSTORE POP POP SWAP1 DUP1 PUSH1 0x8 ADD DUP1 SLOAD PUSH2 0x1A05 SWAP1 PUSH2 0x2EB1 JUMP JUMPDEST DUP1 PUSH1 0x1F ADD PUSH1 0x20 DUP1 SWAP2 DIV MUL PUSH1 0x20 ADD PUSH1 0x40 MLOAD SWAP1 DUP2 ADD PUSH1 0x40 MSTORE DUP1 SWAP3 SWAP2 SWAP1 DUP2 DUP2 MSTORE PUSH1 0x20 ADD DUP3 DUP1 SLOAD PUSH2 0x1A31 SWAP1 PUSH2 0x2EB1 JUMP JUMPDEST DUP1 ISZERO PUSH2 0x1A7E JUMPI DUP1 PUSH1 0x1F LT PUSH2 0x1A53 JUMPI PUSH2 0x100 DUP1 DUP4 SLOAD DIV MUL DUP4 MSTORE SWAP2 PUSH1 0x20 ADD SWAP2 PUSH2 0x1A7E JUMP JUMPDEST DUP3 ADD SWAP2 SWAP1 PUSH1 0x0 MSTORE PUSH1 0x20 PUSH1 0x0 KECCAK256 SWAP1 JUMPDEST DUP2 SLOAD DUP2 MSTORE SWAP1 PUSH1 0x1 ADD SWAP1 PUSH1 0x20 ADD DUP1 DUP4 GT PUSH2 0x1A61 JUMPI DUP3 SWAP1 SUB PUSH1 0x1F AND DUP3 ADD SWAP2 JUMPDEST POP POP POP POP POP SWAP1 DUP1 PUSH1 0x9 ADD DUP1 SLOAD PUSH2 0x1A93 SWAP1 PUSH2 0x2EB1 JUMP JUMPDEST DUP1 PUSH1 0x1F ADD PUSH1 0x20 DUP1 SWAP2 DIV MUL PUSH1 0x20 ADD PUSH1 0x40 MLOAD SWAP1 DUP2 ADD PUSH1 0x40 MSTORE DUP1 SWAP3 SWAP2 SWAP1 DUP2 DUP2 MSTORE PUSH1 0x20 ADD DUP3 DUP1 SLOAD PUSH2 0x1ABF SWAP1 PUSH2 0x2EB1 JUMP JUMPDEST DUP1 ISZERO PUSH2 0x1B0C JUMPI DUP1 PUSH1 0x1F LT PUSH2 0x1AE1 JUMPI PUSH2 0x100 DUP1 DUP4 SLOAD DIV MUL DUP4 MSTORE SWAP2 PUSH1 0x20 ADD SWAP2 PUSH2 0x1B0C JUMP JUMPDEST DUP3 ADD SWAP2 SWAP1 PUSH1 0x0 MSTORE PUSH1 0x20 PUSH1 0x0 KECCAK256 SWAP1 JUMPDEST DUP2 SLOAD DUP2 MSTORE SWAP1 PUSH1 0x1 ADD SWAP1 PUSH1 0x20 ADD DUP1 DUP4 GT PUSH2 0x1AEF JUMPI DUP3 SWAP1 SUB PUSH1 0x1F AND DUP3 ADD SWAP2 JUMPDEST POP POP POP POP POP SWAP1 DUP1 PUSH1 0xA ADD PUSH1 0x0 SWAP1 SLOAD SWAP1 PUSH2 0x100 EXP SWAP1 DIV PUSH20 0xFFFFFFFFFFFFFFFFFFFFFFFFFFFFFFFFFFFFFFFF AND SWAP1 DUP1 PUSH1 0xB ADD PUSH1 0x0 SWAP1 SLOAD SWAP1 PUSH2 0x100 EXP SWAP1 DIV PUSH20 0xFFFFFFFFFFFFFFFFFFFFFFFFFFFFFFFFFFFFFFFF AND SWAP1 DUP1 PUSH1 0xB ADD PUSH1 0x14 SWAP1 SLOAD SWAP1 PUSH2 0x100 EXP SWAP1 DIV PUSH1 0xFF AND SWAP1 DUP1 PUSH1 0xB ADD PUSH1 0x15 SWAP1 SLOAD SWAP1 PUSH2 0x100 EXP SWAP1 DIV PUSH1 0xFF AND SWAP1 DUP1 PUSH1 0xB ADD PUSH1 0x16 SWAP1 SLOAD SWAP1 PUSH2 0x100 EXP SWAP1 DIV PUSH1 0xFF AND SWAP1 POP DUP13 JUMP JUMPDEST PUSH1 0x6 PUSH1 0x20 MSTORE DUP1 PUSH1 0x0 MSTORE PUSH1 0x40 PUSH1 0x0 KECCAK256 PUSH1 0x0 SWAP2 POP SWAP1 POP SLOAD DUP2 JUMP JUMPDEST PUSH1 0x8 PUSH1 0x0 CALLER PUSH20 0xFFFFFFFFFFFFFFFFFFFFFFFFFFFFFFFFFFFFFFFF AND PUSH20 0xFFFFFFFFFFFFFFFFFFFFFFFFFFFFFFFFFFFFFFFF AND DUP2 MSTORE PUSH1 0x20 ADD SWAP1 DUP2 MSTORE PUSH1 0x20 ADD PUSH1 0x0 KECCAK256 PUSH1 0x0 DUP4 DUP2 MSTORE PUSH1 0x20 ADD SWAP1 DUP2 MSTORE PUSH1 0x20 ADD PUSH1 0x0 KECCAK256 PUSH1 0x0 SWAP1 SLOAD SWAP1 PUSH2 0x100 EXP SWAP1 DIV PUSH1 0xFF AND ISZERO PUSH2 0x1C51 JUMPI PUSH1 0x40 MLOAD PUSH32 0x8C379A000000000000000000000000000000000000000000000000000000000 DUP2 MSTORE PUSH1 0x4 ADD PUSH2 0x1C48 SWAP1 PUSH2 0x2AD6 JUMP JUMPDEST PUSH1 0x40 MLOAD DUP1 SWAP2 SUB SWAP1 REVERT JUMPDEST PUSH1 0x0 PUSH1 0xC DUP4 DUP2 SLOAD DUP2 LT PUSH2 0x1C8D JUMPI PUSH32 0x4E487B7100000000000000000000000000000000000000000000000000000000 PUSH1 0x0 MSTORE PUSH1 0x32 PUSH1 0x4 MSTORE PUSH1 0x24 PUSH1 0x0 REVERT JUMPDEST SWAP1 PUSH1 0x0 MSTORE PUSH1 0x20 PUSH1 0x0 KECCAK256 SWAP1 PUSH1 0xC MUL ADD SWAP1 POP DUP2 DUP1 ISZERO PUSH2 0x1CF3 JUMPI POP PUSH1 0x5 PUSH1 0x0 CALLER PUSH20 0xFFFFFFFFFFFFFFFFFFFFFFFFFFFFFFFFFFFFFFFF AND PUSH20 0xFFFFFFFFFFFFFFFFFFFFFFFFFFFFFFFFFFFFFFFF AND DUP2 MSTORE PUSH1 0x20 ADD SWAP1 DUP2 MSTORE PUSH1 0x20 ADD PUSH1 0x0 KECCAK256 PUSH1 0x0 SWAP1 SLOAD SWAP1 PUSH2 0x100 EXP SWAP1 DIV PUSH1 0xFF AND JUMPDEST ISZERO PUSH2 0x1D1C JUMPI PUSH1 0x1 DUP2 PUSH1 0x4 ADD PUSH1 0x1 ADD PUSH1 0x0 DUP3 DUP3 SLOAD PUSH2 0x1D10 SWAP2 SWAP1 PUSH2 0x2D5A JUMP JUMPDEST SWAP3 POP POP DUP2 SWAP1 SSTORE POP PUSH2 0x1F18 JUMP JUMPDEST DUP2 DUP1 ISZERO PUSH2 0x1D73 JUMPI POP PUSH1 0x5 PUSH1 0x0 CALLER PUSH20 0xFFFFFFFFFFFFFFFFFFFFFFFFFFFFFFFFFFFFFFFF AND PUSH20 0xFFFFFFFFFFFFFFFFFFFFFFFFFFFFFFFFFFFFFFFF AND DUP2 MSTORE PUSH1 0x20 ADD SWAP1 DUP2 MSTORE PUSH1 0x20 ADD PUSH1 0x0 KECCAK256 PUSH1 0x0 SWAP1 SLOAD SWAP1 PUSH2 0x100 EXP SWAP1 DIV PUSH1 0xFF AND ISZERO JUMPDEST ISZERO PUSH2 0x1DDA JUMPI PUSH1 0x6 PUSH1 0x0 CALLER PUSH20 0xFFFFFFFFFFFFFFFFFFFFFFFFFFFFFFFFFFFFFFFF AND PUSH20 0xFFFFFFFFFFFFFFFFFFFFFFFFFFFFFFFFFFFFFFFF AND DUP2 MSTORE PUSH1 0x20 ADD SWAP1 DUP2 MSTORE PUSH1 0x20 ADD PUSH1 0x0 KECCAK256 SLOAD DUP2 PUSH1 0x4 ADD PUSH1 0x0 ADD PUSH1 0x0 DUP3 DUP3 SLOAD PUSH2 0x1DCE SWAP2 SWAP1 PUSH2 0x2D5A JUMP JUMPDEST SWAP3 POP POP DUP2 SWAP1 SSTORE POP PUSH2 0x1F17 JUMP JUMPDEST DUP2 ISZERO DUP1 ISZERO PUSH2 0x1E31 JUMPI POP PUSH1 0x5 PUSH1 0x0 CALLER PUSH20 0xFFFFFFFFFFFFFFFFFFFFFFFFFFFFFFFFFFFFFFFF AND PUSH20 0xFFFFFFFFFFFFFFFFFFFFFFFFFFFFFFFFFFFFFFFF AND DUP2 MSTORE PUSH1 0x20 ADD SWAP1 DUP2 MSTORE PUSH1 0x20 ADD PUSH1 0x0 KECCAK256 PUSH1 0x0 SWAP1 SLOAD SWAP1 PUSH2 0x100 EXP SWAP1 DIV PUSH1 0xFF AND JUMPDEST ISZERO PUSH2 0x1E5A JUMPI PUSH1 0x1 DUP2 PUSH1 0x4 ADD PUSH1 0x3 ADD PUSH1 0x0 DUP3 DUP3 SLOAD PUSH2 0x1E4E SWAP2 SWAP1 PUSH2 0x2D5A JUMP JUMPDEST SWAP3 POP POP DUP2 SWAP1 SSTORE POP PUSH2 0x1F16 JUMP JUMPDEST DUP2 ISZERO DUP1 ISZERO PUSH2 0x1EB2 JUMPI POP PUSH1 0x5 PUSH1 0x0 CALLER PUSH20 0xFFFFFFFFFFFFFFFFFFFFFFFFFFFFFFFFFFFFFFFF AND PUSH20 0xFFFFFFFFFFFFFFFFFFFFFFFFFFFFFFFFFFFFFFFF AND DUP2 MSTORE PUSH1 0x20 ADD SWAP1 DUP2 MSTORE PUSH1 0x20 ADD PUSH1 0x0 KECCAK256 PUSH1 0x0 SWAP1 SLOAD SWAP1 PUSH2 0x100 EXP SWAP1 DIV PUSH1 0xFF AND ISZERO JUMPDEST ISZERO PUSH2 0x1F15 JUMPI PUSH1 0x6 PUSH1 0x0 CALLER PUSH20 0xFFFFFFFFFFFFFFFFFFFFFFFFFFFFFFFFFFFFFFFF AND PUSH20 0xFFFFFFFFFFFFFFFFFFFFFFFFFFFFFFFFFFFFFFFF AND DUP2 MSTORE PUSH1 0x20 ADD SWAP1 DUP2 MSTORE PUSH1 0x20 ADD PUSH1 0x0 KECCAK256 SLOAD DUP2 PUSH1 0x4 ADD PUSH1 0x2 ADD PUSH1 0x0 DUP3 DUP3 SLOAD PUSH2 0x1F0D SWAP2 SWAP1 PUSH2 0x2D5A JUMP JUMPDEST SWAP3 POP POP DUP2 SWAP1 SSTORE POP JUMPDEST JUMPDEST JUMPDEST JUMPDEST PUSH1 0x1 PUSH1 0x8 PUSH1 0x0 CALLER PUSH20 0xFFFFFFFFFFFFFFFFFFFFFFFFFFFFFFFFFFFFFFFF AND PUSH20 0xFFFFFFFFFFFFFFFFFFFFFFFFFFFFFFFFFFFFFFFF AND DUP2 MSTORE PUSH1 0x20 ADD SWAP1 DUP2 MSTORE PUSH1 0x20 ADD PUSH1 0x0 KECCAK256 PUSH1 0x0 DUP6 DUP2 MSTORE PUSH1 0x20 ADD SWAP1 DUP2 MSTORE PUSH1 0x20 ADD PUSH1 0x0 KECCAK256 PUSH1 0x0 PUSH2 0x100 EXP DUP2 SLOAD DUP2 PUSH1 0xFF MUL NOT AND SWAP1 DUP4 ISZERO ISZERO MUL OR SWAP1 SSTORE POP PUSH32 0xCBD46A911831C76D92578CECA757258656ADD2111EE59AC2EBB757DF9708180B PUSH1 0x40 MLOAD PUSH2 0x1FAE SWAP1 PUSH2 0x2A36 JUMP JUMPDEST PUSH1 0x40 MLOAD DUP1 SWAP2 SUB SWAP1 LOG1 POP POP POP JUMP JUMPDEST PUSH1 0x6 PUSH1 0x0 CALLER PUSH20 0xFFFFFFFFFFFFFFFFFFFFFFFFFFFFFFFFFFFFFFFF AND PUSH20 0xFFFFFFFFFFFFFFFFFFFFFFFFFFFFFFFFFFFFFFFF AND DUP2 MSTORE PUSH1 0x20 ADD SWAP1 DUP2 MSTORE PUSH1 0x20 ADD PUSH1 0x0 KECCAK256 SLOAD DUP2 LT PUSH2 0x203C JUMPI PUSH1 0x40 MLOAD PUSH32 0x8C379A000000000000000000000000000000000000000000000000000000000 DUP2 MSTORE PUSH1 0x4 ADD PUSH2 0x2033 SWAP1 PUSH2 0x2AF6 JUMP JUMPDEST PUSH1 0x40 MLOAD DUP1 SWAP2 SUB SWAP1 REVERT JUMPDEST DUP1 PUSH1 0xB DUP4 DUP2 SLOAD DUP2 LT PUSH2 0x2077 JUMPI PUSH32 0x4E487B7100000000000000000000000000000000000000000000000000000000 PUSH1 0x0 MSTORE PUSH1 0x32 PUSH1 0x4 MSTORE PUSH1 0x24 PUSH1 0x0 REVERT JUMPDEST SWAP1 PUSH1 0x0 MSTORE PUSH1 0x20 PUSH1 0x0 KECCAK256 SWAP1 PUSH1 0x4 MUL ADD PUSH1 0x2 ADD PUSH1 0x0 DUP3 DUP3 SLOAD PUSH2 0x2097 SWAP2 SWAP1 PUSH2 0x2D5A JUMP JUMPDEST SWAP3 POP POP DUP2 SWAP1 SSTORE POP DUP1 PUSH1 0x6 PUSH1 0x0 PUSH1 0xB DUP6 DUP2 SLOAD DUP2 LT PUSH2 0x20DD JUMPI PUSH32 0x4E487B7100000000000000000000000000000000000000000000000000000000 PUSH1 0x0 MSTORE PUSH1 0x32 PUSH1 0x4 MSTORE PUSH1 0x24 PUSH1 0x0 REVERT JUMPDEST SWAP1 PUSH1 0x0 MSTORE PUSH1 0x20 PUSH1 0x0 KECCAK256 SWAP1 PUSH1 0x4 MUL ADD PUSH1 0x1 ADD PUSH1 0x0 SWAP1 SLOAD SWAP1 PUSH2 0x100 EXP SWAP1 DIV PUSH20 0xFFFFFFFFFFFFFFFFFFFFFFFFFFFFFFFFFFFFFFFF AND PUSH20 0xFFFFFFFFFFFFFFFFFFFFFFFFFFFFFFFFFFFFFFFF AND PUSH20 0xFFFFFFFFFFFFFFFFFFFFFFFFFFFFFFFFFFFFFFFF AND DUP2 MSTORE PUSH1 0x20 ADD SWAP1 DUP2 MSTORE PUSH1 0x20 ADD PUSH1 0x0 KECCAK256 PUSH1 0x0 DUP3 DUP3 SLOAD PUSH2 0x2158 SWAP2 SWAP1 PUSH2 0x2D5A JUMP JUMPDEST SWAP3 POP POP DUP2 SWAP1 SSTORE POP DUP1 PUSH1 0x6 PUSH1 0x0 CALLER PUSH20 0xFFFFFFFFFFFFFFFFFFFFFFFFFFFFFFFFFFFFFFFF AND PUSH20 0xFFFFFFFFFFFFFFFFFFFFFFFFFFFFFFFFFFFFFFFF AND DUP2 MSTORE PUSH1 0x20 ADD SWAP1 DUP2 MSTORE PUSH1 0x20 ADD PUSH1 0x0 KECCAK256 PUSH1 0x0 DUP3 DUP3 SLOAD PUSH2 0x21AE SWAP2 SWAP1 PUSH2 0x2DE1 JUMP JUMPDEST SWAP3 POP POP DUP2 SWAP1 SSTORE POP PUSH32 0xCBD46A911831C76D92578CECA757258656ADD2111EE59AC2EBB757DF9708180B PUSH1 0x40 MLOAD PUSH2 0x21E2 SWAP1 PUSH2 0x2B16 JUMP JUMPDEST PUSH1 0x40 MLOAD DUP1 SWAP2 SUB SWAP1 LOG1 POP POP JUMP JUMPDEST PUSH1 0x5 PUSH1 0x0 CALLER PUSH20 0xFFFFFFFFFFFFFFFFFFFFFFFFFFFFFFFFFFFFFFFF AND PUSH20 0xFFFFFFFFFFFFFFFFFFFFFFFFFFFFFFFFFFFFFFFF AND DUP2 MSTORE PUSH1 0x20 ADD SWAP1 DUP2 MSTORE PUSH1 0x20 ADD PUSH1 0x0 KECCAK256 PUSH1 0x0 SWAP1 SLOAD SWAP1 PUSH2 0x100 EXP SWAP1 DIV PUSH1 0xFF AND PUSH2 0x227A JUMPI PUSH1 0x40 MLOAD PUSH32 0x8C379A000000000000000000000000000000000000000000000000000000000 DUP2 MSTORE PUSH1 0x4 ADD PUSH2 0x2271 SWAP1 PUSH2 0x2B56 JUMP JUMPDEST PUSH1 0x40 MLOAD DUP1 SWAP2 SUB SWAP1 REVERT JUMPDEST PUSH1 0x64 DUP2 LT DUP1 ISZERO PUSH2 0x228B JUMPI POP PUSH1 0x0 DUP2 LT ISZERO JUMPDEST PUSH2 0x22CA JUMPI PUSH1 0x40 MLOAD PUSH32 0x8C379A000000000000000000000000000000000000000000000000000000000 DUP2 MSTORE PUSH1 0x4 ADD PUSH2 0x22C1 SWAP1 PUSH2 0x2A56 JUMP JUMPDEST PUSH1 0x40 MLOAD DUP1 SWAP2 SUB SWAP1 REVERT JUMPDEST DUP1 PUSH1 0x0 DUP2 SWAP1 SSTORE POP PUSH32 0xCBD46A911831C76D92578CECA757258656ADD2111EE59AC2EBB757DF9708180B PUSH1 0x40 MLOAD PUSH2 0x22FE SWAP1 PUSH2 0x2A16 JUMP JUMPDEST PUSH1 0x40 MLOAD DUP1 SWAP2 SUB SWAP1 LOG1 POP JUMP JUMPDEST PUSH1 0x9 PUSH1 0x20 MSTORE DUP1 PUSH1 0x0 MSTORE PUSH1 0x40 PUSH1 0x0 KECCAK256 PUSH1 0x0 SWAP2 POP SWAP1 POP SLOAD DUP2 JUMP JUMPDEST DUP3 DUP1 SLOAD PUSH2 0x232D SWAP1 PUSH2 0x2EB1 JUMP JUMPDEST SWAP1 PUSH1 0x0 MSTORE PUSH1 0x20 PUSH1 0x0 KECCAK256 SWAP1 PUSH1 0x1F ADD PUSH1 0x20 SWAP1 DIV DUP2 ADD SWAP3 DUP3 PUSH2 0x234F JUMPI PUSH1 0x0 DUP6 SSTORE PUSH2 0x2396 JUMP JUMPDEST DUP3 PUSH1 0x1F LT PUSH2 0x2368 JUMPI DUP1 MLOAD PUSH1 0xFF NOT AND DUP4 DUP1 ADD OR DUP6 SSTORE PUSH2 0x2396 JUMP JUMPDEST DUP3 DUP1 ADD PUSH1 0x1 ADD DUP6 SSTORE DUP3 ISZERO PUSH2 0x2396 JUMPI SWAP2 DUP3 ADD JUMPDEST DUP3 DUP2 GT ISZERO PUSH2 0x2395 JUMPI DUP3 MLOAD DUP3 SSTORE SWAP2 PUSH1 0x20 ADD SWAP2 SWAP1 PUSH1 0x1 ADD SWAP1 PUSH2 0x237A JUMP JUMPDEST JUMPDEST POP SWAP1 POP PUSH2 0x23A3 SWAP2 SWAP1 PUSH2 0x23A7 JUMP JUMPDEST POP SWAP1 JUMP JUMPDEST JUMPDEST DUP1 DUP3 GT ISZERO PUSH2 0x23C0 JUMPI PUSH1 0x0 DUP2 PUSH1 0x0 SWAP1 SSTORE POP PUSH1 0x1 ADD PUSH2 0x23A8 JUMP JUMPDEST POP SWAP1 JUMP JUMPDEST PUSH1 0x0 PUSH2 0x23D7 PUSH2 0x23D2 DUP5 PUSH2 0x2D0D JUMP JUMPDEST PUSH2 0x2CE8 JUMP JUMPDEST SWAP1 POP DUP3 DUP2 MSTORE PUSH1 0x20 DUP2 ADD DUP5 DUP5 DUP5 ADD GT ISZERO PUSH2 0x23EF JUMPI PUSH1 0x0 DUP1 REVERT JUMPDEST PUSH2 0x23FA DUP5 DUP3 DUP6 PUSH2 0x2E6F JUMP JUMPDEST POP SWAP4 SWAP3 POP POP POP JUMP JUMPDEST PUSH1 0x0 DUP2 CALLDATALOAD SWAP1 POP PUSH2 0x2411 DUP2 PUSH2 0x34A5 JUMP JUMPDEST SWAP3 SWAP2 POP POP JUMP JUMPDEST PUSH1 0x0 DUP2 CALLDATALOAD SWAP1 POP PUSH2 0x2426 DUP2 PUSH2 0x34BC JUMP JUMPDEST SWAP3 SWAP2 POP POP JUMP JUMPDEST PUSH1 0x0 DUP2 CALLDATALOAD SWAP1 POP PUSH2 0x243B DUP2 PUSH2 0x34D3 JUMP JUMPDEST SWAP3 SWAP2 POP POP JUMP JUMPDEST PUSH1 0x0 DUP1 DUP4 PUSH1 0x1F DUP5 ADD SLT PUSH2 0x2453 JUMPI PUSH1 0x0 DUP1 REVERT JUMPDEST DUP3 CALLDATALOAD SWAP1 POP PUSH8 0xFFFFFFFFFFFFFFFF DUP2 GT ISZERO PUSH2 0x246C JUMPI PUSH1 0x0 DUP1 REVERT JUMPDEST PUSH1 0x20 DUP4 ADD SWAP2 POP DUP4 PUSH1 0x1 DUP3 MUL DUP4 ADD GT ISZERO PUSH2 0x2484 JUMPI PUSH1 0x0 DUP1 REVERT JUMPDEST SWAP3 POP SWAP3 SWAP1 POP JUMP JUMPDEST PUSH1 0x0 DUP3 PUSH1 0x1F DUP4 ADD SLT PUSH2 0x249C JUMPI PUSH1 0x0 DUP1 REVERT JUMPDEST DUP2 CALLDATALOAD PUSH2 0x24AC DUP5 DUP3 PUSH1 0x20 DUP7 ADD PUSH2 0x23C4 JUMP JUMPDEST SWAP2 POP POP SWAP3 SWAP2 POP POP JUMP JUMPDEST PUSH1 0x0 DUP2 CALLDATALOAD SWAP1 POP PUSH2 0x24C4 DUP2 PUSH2 0x34EA JUMP JUMPDEST SWAP3 SWAP2 POP POP JUMP JUMPDEST PUSH1 0x0 PUSH1 0x20 DUP3 DUP5 SUB SLT ISZERO PUSH2 0x24DC JUMPI PUSH1 0x0 DUP1 REVERT JUMPDEST PUSH1 0x0 PUSH2 0x24EA DUP5 DUP3 DUP6 ADD PUSH2 0x2402 JUMP JUMPDEST SWAP2 POP POP SWAP3 SWAP2 POP POP JUMP JUMPDEST PUSH1 0x0 DUP1 PUSH1 0x40 DUP4 DUP6 SUB SLT ISZERO PUSH2 0x2506 JUMPI PUSH1 0x0 DUP1 REVERT JUMPDEST PUSH1 0x0 PUSH2 0x2514 DUP6 DUP3 DUP7 ADD PUSH2 0x2402 JUMP JUMPDEST SWAP3 POP POP PUSH1 0x20 PUSH2 0x2525 DUP6 DUP3 DUP7 ADD PUSH2 0x24B5 JUMP JUMPDEST SWAP2 POP POP SWAP3 POP SWAP3 SWAP1 POP JUMP JUMPDEST PUSH1 0x0 PUSH1 0x20 DUP3 DUP5 SUB SLT ISZERO PUSH2 0x2541 JUMPI PUSH1 0x0 DUP1 REVERT JUMPDEST PUSH1 0x0 PUSH2 0x254F DUP5 DUP3 DUP6 ADD PUSH2 0x242C JUMP JUMPDEST SWAP2 POP POP SWAP3 SWAP2 POP POP JUMP JUMPDEST PUSH1 0x0 DUP1 PUSH1 0x0 DUP1 PUSH1 0x0 DUP1 PUSH1 0x80 DUP8 DUP10 SUB SLT ISZERO PUSH2 0x2571 JUMPI PUSH1 0x0 DUP1 REVERT JUMPDEST PUSH1 0x0 DUP8 ADD CALLDATALOAD PUSH8 0xFFFFFFFFFFFFFFFF DUP2 GT ISZERO PUSH2 0x258B JUMPI PUSH1 0x0 DUP1 REVERT JUMPDEST PUSH2 0x2597 DUP10 DUP3 DUP11 ADD PUSH2 0x2441 JUMP JUMPDEST SWAP7 POP SWAP7 POP POP PUSH1 0x20 DUP8 ADD CALLDATALOAD PUSH8 0xFFFFFFFFFFFFFFFF DUP2 GT ISZERO PUSH2 0x25B6 JUMPI PUSH1 0x0 DUP1 REVERT JUMPDEST PUSH2 0x25C2 DUP10 DUP3 DUP11 ADD PUSH2 0x2441 JUMP JUMPDEST SWAP5 POP SWAP5 POP POP PUSH1 0x40 PUSH2 0x25D5 DUP10 DUP3 DUP11 ADD PUSH2 0x24B5 JUMP JUMPDEST SWAP3 POP POP PUSH1 0x60 PUSH2 0x25E6 DUP10 DUP3 DUP11 ADD PUSH2 0x2417 JUMP JUMPDEST SWAP2 POP POP SWAP3 SWAP6 POP SWAP3 SWAP6 POP SWAP3 SWAP6 JUMP JUMPDEST PUSH1 0x0 PUSH1 0x20 DUP3 DUP5 SUB SLT ISZERO PUSH2 0x2605 JUMPI PUSH1 0x0 DUP1 REVERT JUMPDEST PUSH1 0x0 DUP3 ADD CALLDATALOAD PUSH8 0xFFFFFFFFFFFFFFFF DUP2 GT ISZERO PUSH2 0x261F JUMPI PUSH1 0x0 DUP1 REVERT JUMPDEST PUSH2 0x262B DUP5 DUP3 DUP6 ADD PUSH2 0x248B JUMP JUMPDEST SWAP2 POP POP SWAP3 SWAP2 POP POP JUMP JUMPDEST PUSH1 0x0 PUSH1 0x20 DUP3 DUP5 SUB SLT ISZERO PUSH2 0x2646 JUMPI PUSH1 0x0 DUP1 REVERT JUMPDEST PUSH1 0x0 PUSH2 0x2654 DUP5 DUP3 DUP6 ADD PUSH2 0x24B5 JUMP JUMPDEST SWAP2 POP POP SWAP3 SWAP2 POP POP JUMP JUMPDEST PUSH1 0x0 DUP1 PUSH1 0x40 DUP4 DUP6 SUB SLT ISZERO PUSH2 0x2670 JUMPI PUSH1 0x0 DUP1 REVERT JUMPDEST PUSH1 0x0 PUSH2 0x267E DUP6 DUP3 DUP7 ADD PUSH2 0x24B5 JUMP JUMPDEST SWAP3 POP POP PUSH1 0x20 PUSH2 0x268F DUP6 DUP3 DUP7 ADD PUSH2 0x242C JUMP JUMPDEST SWAP2 POP POP SWAP3 POP SWAP3 SWAP1 POP JUMP JUMPDEST PUSH1 0x0 DUP1 PUSH1 0x40 DUP4 DUP6 SUB SLT ISZERO PUSH2 0x26AC JUMPI PUSH1 0x0 DUP1 REVERT JUMPDEST PUSH1 0x0 PUSH2 0x26BA DUP6 DUP3 DUP7 ADD PUSH2 0x24B5 JUMP JUMPDEST SWAP3 POP POP PUSH1 0x20 PUSH2 0x26CB DUP6 DUP3 DUP7 ADD PUSH2 0x24B5 JUMP JUMPDEST SWAP2 POP POP SWAP3 POP SWAP3 SWAP1 POP JUMP JUMPDEST PUSH2 0x26DE DUP2 PUSH2 0x2E27 JUMP JUMPDEST DUP3 MSTORE POP POP JUMP JUMPDEST PUSH2 0x26ED DUP2 PUSH2 0x2E15 JUMP JUMPDEST DUP3 MSTORE POP POP JUMP JUMPDEST PUSH2 0x26FC DUP2 PUSH2 0x2E39 JUMP JUMPDEST DUP3 MSTORE POP POP JUMP JUMPDEST PUSH1 0x0 PUSH2 0x270D DUP3 PUSH2 0x2D3E JUMP JUMPDEST PUSH2 0x2717 DUP2 DUP6 PUSH2 0x2D49 JUMP JUMPDEST SWAP4 POP PUSH2 0x2727 DUP2 DUP6 PUSH1 0x20 DUP7 ADD PUSH2 0x2E7E JUMP JUMPDEST PUSH2 0x2730 DUP2 PUSH2 0x3019 JUMP JUMPDEST DUP5 ADD SWAP2 POP POP SWAP3 SWAP2 POP POP JUMP JUMPDEST PUSH1 0x0 PUSH2 0x2748 PUSH1 0x38 DUP4 PUSH2 0x2D49 JUMP JUMPDEST SWAP2 POP PUSH2 0x2753 DUP3 PUSH2 0x302A JUMP JUMPDEST PUSH1 0x40 DUP3 ADD SWAP1 POP SWAP2 SWAP1 POP JUMP JUMPDEST PUSH1 0x0 PUSH2 0x276B PUSH1 0x14 DUP4 PUSH2 0x2D49 JUMP JUMPDEST SWAP2 POP PUSH2 0x2776 DUP3 PUSH2 0x3079 JUMP JUMPDEST PUSH1 0x20 DUP3 ADD SWAP1 POP SWAP2 SWAP1 POP JUMP JUMPDEST PUSH1 0x0 PUSH2 0x278E PUSH1 0x49 DUP4 PUSH2 0x2D49 JUMP JUMPDEST SWAP2 POP PUSH2 0x2799 DUP3 PUSH2 0x30A2 JUMP JUMPDEST PUSH1 0x60 DUP3 ADD SWAP1 POP SWAP2 SWAP1 POP JUMP JUMPDEST PUSH1 0x0 PUSH2 0x27B1 PUSH1 0x27 DUP4 PUSH2 0x2D49 JUMP JUMPDEST SWAP2 POP PUSH2 0x27BC DUP3 PUSH2 0x3117 JUMP JUMPDEST PUSH1 0x40 DUP3 ADD SWAP1 POP SWAP2 SWAP1 POP JUMP JUMPDEST PUSH1 0x0 PUSH2 0x27D4 PUSH1 0x2A DUP4 PUSH2 0x2D49 JUMP JUMPDEST SWAP2 POP PUSH2 0x27DF DUP3 PUSH2 0x3166 JUMP JUMPDEST PUSH1 0x40 DUP3 ADD SWAP1 POP SWAP2 SWAP1 POP JUMP JUMPDEST PUSH1 0x0 PUSH2 0x27F7 PUSH1 0x3C DUP4 PUSH2 0x2D49 JUMP JUMPDEST SWAP2 POP PUSH2 0x2802 DUP3 PUSH2 0x31B5 JUMP JUMPDEST PUSH1 0x40 DUP3 ADD SWAP1 POP SWAP2 SWAP1 POP JUMP JUMPDEST PUSH1 0x0 PUSH2 0x281A PUSH1 0x25 DUP4 PUSH2 0x2D49 JUMP JUMPDEST SWAP2 POP PUSH2 0x2825 DUP3 PUSH2 0x3204 JUMP JUMPDEST PUSH1 0x40 DUP3 ADD SWAP1 POP SWAP2 SWAP1 POP JUMP JUMPDEST PUSH1 0x0 PUSH2 0x283D PUSH1 0x3D DUP4 PUSH2 0x2D49 JUMP JUMPDEST SWAP2 POP PUSH2 0x2848 DUP3 PUSH2 0x3253 JUMP JUMPDEST PUSH1 0x40 DUP3 ADD SWAP1 POP SWAP2 SWAP1 POP JUMP JUMPDEST PUSH1 0x0 PUSH2 0x2860 PUSH1 0x2F DUP4 PUSH2 0x2D49 JUMP JUMPDEST SWAP2 POP PUSH2 0x286B DUP3 PUSH2 0x32A2 JUMP JUMPDEST PUSH1 0x40 DUP3 ADD SWAP1 POP SWAP2 SWAP1 POP JUMP JUMPDEST PUSH1 0x0 PUSH2 0x2883 PUSH1 0x29 DUP4 PUSH2 0x2D49 JUMP JUMPDEST SWAP2 POP PUSH2 0x288E DUP3 PUSH2 0x32F1 JUMP JUMPDEST PUSH1 0x40 DUP3 ADD SWAP1 POP SWAP2 SWAP1 POP JUMP JUMPDEST PUSH1 0x0 PUSH2 0x28A6 PUSH1 0x2A DUP4 PUSH2 0x2D49 JUMP JUMPDEST SWAP2 POP PUSH2 0x28B1 DUP3 PUSH2 0x3340 JUMP JUMPDEST PUSH1 0x40 DUP3 ADD SWAP1 POP SWAP2 SWAP1 POP JUMP JUMPDEST PUSH1 0x0 PUSH2 0x28C9 PUSH1 0x3F DUP4 PUSH2 0x2D49 JUMP JUMPDEST SWAP2 POP PUSH2 0x28D4 DUP3 PUSH2 0x338F JUMP JUMPDEST PUSH1 0x40 DUP3 ADD SWAP1 POP SWAP2 SWAP1 POP JUMP JUMPDEST PUSH1 0x0 PUSH2 0x28EC PUSH1 0x2A DUP4 PUSH2 0x2D49 JUMP JUMPDEST SWAP2 POP PUSH2 0x28F7 DUP3 PUSH2 0x33DE JUMP JUMPDEST PUSH1 0x40 DUP3 ADD SWAP1 POP SWAP2 SWAP1 POP JUMP JUMPDEST PUSH1 0x0 PUSH2 0x290F PUSH1 0x1B DUP4 PUSH2 0x2D49 JUMP JUMPDEST SWAP2 POP PUSH2 0x291A DUP3 PUSH2 0x342D JUMP JUMPDEST PUSH1 0x20 DUP3 ADD SWAP1 POP SWAP2 SWAP1 POP JUMP JUMPDEST PUSH1 0x0 PUSH2 0x2932 PUSH1 0x2E DUP4 PUSH2 0x2D49 JUMP JUMPDEST SWAP2 POP PUSH2 0x293D DUP3 PUSH2 0x3456 JUMP JUMPDEST PUSH1 0x40 DUP3 ADD SWAP1 POP SWAP2 SWAP1 POP JUMP JUMPDEST PUSH1 0x80 DUP3 ADD PUSH1 0x0 DUP3 ADD MLOAD PUSH2 0x295E PUSH1 0x0 DUP6 ADD DUP3 PUSH2 0x299D JUMP JUMPDEST POP PUSH1 0x20 DUP3 ADD MLOAD PUSH2 0x2971 PUSH1 0x20 DUP6 ADD DUP3 PUSH2 0x299D JUMP JUMPDEST POP PUSH1 0x40 DUP3 ADD MLOAD PUSH2 0x2984 PUSH1 0x40 DUP6 ADD DUP3 PUSH2 0x299D JUMP JUMPDEST POP PUSH1 0x60 DUP3 ADD MLOAD PUSH2 0x2997 PUSH1 0x60 DUP6 ADD DUP3 PUSH2 0x299D JUMP JUMPDEST POP POP POP POP JUMP JUMPDEST PUSH2 0x29A6 DUP2 PUSH2 0x2E65 JUMP JUMPDEST DUP3 MSTORE POP POP JUMP JUMPDEST PUSH2 0x29B5 DUP2 PUSH2 0x2E65 JUMP JUMPDEST DUP3 MSTORE POP POP JUMP JUMPDEST PUSH1 0x0 PUSH1 0x20 DUP3 ADD SWAP1 POP PUSH2 0x29D0 PUSH1 0x0 DUP4 ADD DUP5 PUSH2 0x26F3 JUMP JUMPDEST SWAP3 SWAP2 POP POP JUMP JUMPDEST PUSH1 0x0 PUSH1 0x20 DUP3 ADD SWAP1 POP DUP2 DUP2 SUB PUSH1 0x0 DUP4 ADD MSTORE PUSH2 0x29EF DUP2 PUSH2 0x273B JUMP JUMPDEST SWAP1 POP SWAP2 SWAP1 POP JUMP JUMPDEST PUSH1 0x0 PUSH1 0x20 DUP3 ADD SWAP1 POP DUP2 DUP2 SUB PUSH1 0x0 DUP4 ADD MSTORE PUSH2 0x2A0F DUP2 PUSH2 0x275E JUMP JUMPDEST SWAP1 POP SWAP2 SWAP1 POP JUMP JUMPDEST PUSH1 0x0 PUSH1 0x20 DUP3 ADD SWAP1 POP DUP2 DUP2 SUB PUSH1 0x0 DUP4 ADD MSTORE PUSH2 0x2A2F DUP2 PUSH2 0x2781 JUMP JUMPDEST SWAP1 POP SWAP2 SWAP1 POP JUMP JUMPDEST PUSH1 0x0 PUSH1 0x20 DUP3 ADD SWAP1 POP DUP2 DUP2 SUB PUSH1 0x0 DUP4 ADD MSTORE PUSH2 0x2A4F DUP2 PUSH2 0x27A4 JUMP JUMPDEST SWAP1 POP SWAP2 SWAP1 POP JUMP JUMPDEST PUSH1 0x0 PUSH1 0x20 DUP3 ADD SWAP1 POP DUP2 DUP2 SUB PUSH1 0x0 DUP4 ADD MSTORE PUSH2 0x2A6F DUP2 PUSH2 0x27C7 JUMP JUMPDEST SWAP1 POP SWAP2 SWAP1 POP JUMP JUMPDEST PUSH1 0x0 PUSH1 0x20 DUP3 ADD SWAP1 POP DUP2 DUP2 SUB PUSH1 0x0 DUP4 ADD MSTORE PUSH2 0x2A8F DUP2 PUSH2 0x27EA JUMP JUMPDEST SWAP1 POP SWAP2 SWAP1 POP JUMP JUMPDEST PUSH1 0x0 PUSH1 0x20 DUP3 ADD SWAP1 POP DUP2 DUP2 SUB PUSH1 0x0 DUP4 ADD MSTORE PUSH2 0x2AAF DUP2 PUSH2 0x280D JUMP JUMPDEST SWAP1 POP SWAP2 SWAP1 POP JUMP JUMPDEST PUSH1 0x0 PUSH1 0x20 DUP3 ADD SWAP1 POP DUP2 DUP2 SUB PUSH1 0x0 DUP4 ADD MSTORE PUSH2 0x2ACF DUP2 PUSH2 0x2830 JUMP JUMPDEST SWAP1 POP SWAP2 SWAP1 POP JUMP JUMPDEST PUSH1 0x0 PUSH1 0x20 DUP3 ADD SWAP1 POP DUP2 DUP2 SUB PUSH1 0x0 DUP4 ADD MSTORE PUSH2 0x2AEF DUP2 PUSH2 0x2853 JUMP JUMPDEST SWAP1 POP SWAP2 SWAP1 POP JUMP JUMPDEST PUSH1 0x0 PUSH1 0x20 DUP3 ADD SWAP1 POP DUP2 DUP2 SUB PUSH1 0x0 DUP4 ADD MSTORE PUSH2 0x2B0F DUP2 PUSH2 0x2876 JUMP JUMPDEST SWAP1 POP SWAP2 SWAP1 POP JUMP JUMPDEST PUSH1 0x0 PUSH1 0x20 DUP3 ADD SWAP1 POP DUP2 DUP2 SUB PUSH1 0x0 DUP4 ADD MSTORE PUSH2 0x2B2F DUP2 PUSH2 0x2899 JUMP JUMPDEST SWAP1 POP SWAP2 SWAP1 POP JUMP JUMPDEST PUSH1 0x0 PUSH1 0x20 DUP3 ADD SWAP1 POP DUP2 DUP2 SUB PUSH1 0x0 DUP4 ADD MSTORE PUSH2 0x2B4F DUP2 PUSH2 0x28BC JUMP JUMPDEST SWAP1 POP SWAP2 SWAP1 POP JUMP JUMPDEST PUSH1 0x0 PUSH1 0x20 DUP3 ADD SWAP1 POP DUP2 DUP2 SUB PUSH1 0x0 DUP4 ADD MSTORE PUSH2 0x2B6F DUP2 PUSH2 0x28DF JUMP JUMPDEST SWAP1 POP SWAP2 SWAP1 POP JUMP JUMPDEST PUSH1 0x0 PUSH1 0x20 DUP3 ADD SWAP1 POP DUP2 DUP2 SUB PUSH1 0x0 DUP4 ADD MSTORE PUSH2 0x2B8F DUP2 PUSH2 0x2902 JUMP JUMPDEST SWAP1 POP SWAP2 SWAP1 POP JUMP JUMPDEST PUSH1 0x0 PUSH1 0x20 DUP3 ADD SWAP1 POP DUP2 DUP2 SUB PUSH1 0x0 DUP4 ADD MSTORE PUSH2 0x2BAF DUP2 PUSH2 0x2925 JUMP JUMPDEST SWAP1 POP SWAP2 SWAP1 POP JUMP JUMPDEST PUSH1 0x0 PUSH1 0x20 DUP3 ADD SWAP1 POP PUSH2 0x2BCB PUSH1 0x0 DUP4 ADD DUP5 PUSH2 0x29AC JUMP JUMPDEST SWAP3 SWAP2 POP POP JUMP JUMPDEST PUSH1 0x0 PUSH1 0x80 DUP3 ADD SWAP1 POP PUSH2 0x2BE6 PUSH1 0x0 DUP4 ADD DUP8 PUSH2 0x29AC JUMP JUMPDEST PUSH2 0x2BF3 PUSH1 0x20 DUP4 ADD DUP7 PUSH2 0x26E4 JUMP JUMPDEST PUSH2 0x2C00 PUSH1 0x40 DUP4 ADD DUP6 PUSH2 0x29AC JUMP JUMPDEST DUP2 DUP2 SUB PUSH1 0x60 DUP4 ADD MSTORE PUSH2 0x2C12 DUP2 DUP5 PUSH2 0x2702 JUMP JUMPDEST SWAP1 POP SWAP6 SWAP5 POP POP POP POP POP JUMP JUMPDEST PUSH1 0x0 PUSH2 0x1E0 DUP3 ADD SWAP1 POP PUSH2 0x2C33 PUSH1 0x0 DUP4 ADD DUP16 PUSH2 0x29AC JUMP JUMPDEST PUSH2 0x2C40 PUSH1 0x20 DUP4 ADD DUP15 PUSH2 0x29AC JUMP JUMPDEST PUSH2 0x2C4D PUSH1 0x40 DUP4 ADD DUP14 PUSH2 0x29AC JUMP JUMPDEST PUSH2 0x2C5A PUSH1 0x60 DUP4 ADD DUP13 PUSH2 0x29AC JUMP JUMPDEST PUSH2 0x2C67 PUSH1 0x80 DUP4 ADD DUP12 PUSH2 0x2948 JUMP JUMPDEST DUP2 DUP2 SUB PUSH2 0x100 DUP4 ADD MSTORE PUSH2 0x2C7A DUP2 DUP11 PUSH2 0x2702 JUMP JUMPDEST SWAP1 POP DUP2 DUP2 SUB PUSH2 0x120 DUP4 ADD MSTORE PUSH2 0x2C8F DUP2 DUP10 PUSH2 0x2702 JUMP JUMPDEST SWAP1 POP PUSH2 0x2C9F PUSH2 0x140 DUP4 ADD DUP9 PUSH2 0x26D5 JUMP JUMPDEST PUSH2 0x2CAD PUSH2 0x160 DUP4 ADD DUP8 PUSH2 0x26E4 JUMP JUMPDEST PUSH2 0x2CBB PUSH2 0x180 DUP4 ADD DUP7 PUSH2 0x26F3 JUMP JUMPDEST PUSH2 0x2CC9 PUSH2 0x1A0 DUP4 ADD DUP6 PUSH2 0x26F3 JUMP JUMPDEST PUSH2 0x2CD7 PUSH2 0x1C0 DUP4 ADD DUP5 PUSH2 0x26F3 JUMP JUMPDEST SWAP14 SWAP13 POP POP POP POP POP POP POP POP POP POP POP POP POP JUMP JUMPDEST PUSH1 0x0 PUSH2 0x2CF2 PUSH2 0x2D03 JUMP JUMPDEST SWAP1 POP PUSH2 0x2CFE DUP3 DUP3 PUSH2 0x2EE3 JUMP JUMPDEST SWAP2 SWAP1 POP JUMP JUMPDEST PUSH1 0x0 PUSH1 0x40 MLOAD SWAP1 POP SWAP1 JUMP JUMPDEST PUSH1 0x0 PUSH8 0xFFFFFFFFFFFFFFFF DUP3 GT ISZERO PUSH2 0x2D28 JUMPI PUSH2 0x2D27 PUSH2 0x2FEA JUMP JUMPDEST JUMPDEST PUSH2 0x2D31 DUP3 PUSH2 0x3019 JUMP JUMPDEST SWAP1 POP PUSH1 0x20 DUP2 ADD SWAP1 POP SWAP2 SWAP1 POP JUMP JUMPDEST PUSH1 0x0 DUP2 MLOAD SWAP1 POP SWAP2 SWAP1 POP JUMP JUMPDEST PUSH1 0x0 DUP3 DUP3 MSTORE PUSH1 0x20 DUP3 ADD SWAP1 POP SWAP3 SWAP2 POP POP JUMP JUMPDEST PUSH1 0x0 PUSH2 0x2D65 DUP3 PUSH2 0x2E65 JUMP JUMPDEST SWAP2 POP PUSH2 0x2D70 DUP4 PUSH2 0x2E65 JUMP JUMPDEST SWAP3 POP DUP3 PUSH32 0xFFFFFFFFFFFFFFFFFFFFFFFFFFFFFFFFFFFFFFFFFFFFFFFFFFFFFFFFFFFFFFFF SUB DUP3 GT ISZERO PUSH2 0x2DA5 JUMPI PUSH2 0x2DA4 PUSH2 0x2F5D JUMP JUMPDEST JUMPDEST DUP3 DUP3 ADD SWAP1 POP SWAP3 SWAP2 POP POP JUMP JUMPDEST PUSH1 0x0 PUSH2 0x2DBB DUP3 PUSH2 0x2E65 JUMP JUMPDEST SWAP2 POP PUSH2 0x2DC6 DUP4 PUSH2 0x2E65 JUMP JUMPDEST SWAP3 POP DUP3 PUSH2 0x2DD6 JUMPI PUSH2 0x2DD5 PUSH2 0x2F8C JUMP JUMPDEST JUMPDEST DUP3 DUP3 DIV SWAP1 POP SWAP3 SWAP2 POP POP JUMP JUMPDEST PUSH1 0x0 PUSH2 0x2DEC DUP3 PUSH2 0x2E65 JUMP JUMPDEST SWAP2 POP PUSH2 0x2DF7 DUP4 PUSH2 0x2E65 JUMP JUMPDEST SWAP3 POP DUP3 DUP3 LT ISZERO PUSH2 0x2E0A JUMPI PUSH2 0x2E09 PUSH2 0x2F5D JUMP JUMPDEST JUMPDEST DUP3 DUP3 SUB SWAP1 POP SWAP3 SWAP2 POP POP JUMP JUMPDEST PUSH1 0x0 PUSH2 0x2E20 DUP3 PUSH2 0x2E45 JUMP JUMPDEST SWAP1 POP SWAP2 SWAP1 POP JUMP JUMPDEST PUSH1 0x0 PUSH2 0x2E32 DUP3 PUSH2 0x2E45 JUMP JUMPDEST SWAP1 POP SWAP2 SWAP1 POP JUMP JUMPDEST PUSH1 0x0 DUP2 ISZERO ISZERO SWAP1 POP SWAP2 SWAP1 POP JUMP JUMPDEST PUSH1 0x0 PUSH20 0xFFFFFFFFFFFFFFFFFFFFFFFFFFFFFFFFFFFFFFFF DUP3 AND SWAP1 POP SWAP2 SWAP1 POP JUMP JUMPDEST PUSH1 0x0 DUP2 SWAP1 POP SWAP2 SWAP1 POP JUMP JUMPDEST DUP3 DUP2 DUP4 CALLDATACOPY PUSH1 0x0 DUP4 DUP4 ADD MSTORE POP POP POP JUMP JUMPDEST PUSH1 0x0 JUMPDEST DUP4 DUP2 LT ISZERO PUSH2 0x2E9C JUMPI DUP1 DUP3 ADD MLOAD DUP2 DUP5 ADD MSTORE PUSH1 0x20 DUP2 ADD SWAP1 POP PUSH2 0x2E81 JUMP JUMPDEST DUP4 DUP2 GT ISZERO PUSH2 0x2EAB JUMPI PUSH1 0x0 DUP5 DUP5 ADD MSTORE JUMPDEST POP POP POP POP JUMP JUMPDEST PUSH1 0x0 PUSH1 0x2 DUP3 DIV SWAP1 POP PUSH1 0x1 DUP3 AND DUP1 PUSH2 0x2EC9 JUMPI PUSH1 0x7F DUP3 AND SWAP2 POP JUMPDEST PUSH1 0x20 DUP3 LT DUP2 EQ ISZERO PUSH2 0x2EDD JUMPI PUSH2 0x2EDC PUSH2 0x2FBB JUMP JUMPDEST JUMPDEST POP SWAP2 SWAP1 POP JUMP JUMPDEST PUSH2 0x2EEC DUP3 PUSH2 0x3019 JUMP JUMPDEST DUP2 ADD DUP2 DUP2 LT PUSH8 0xFFFFFFFFFFFFFFFF DUP3 GT OR ISZERO PUSH2 0x2F0B JUMPI PUSH2 0x2F0A PUSH2 0x2FEA JUMP JUMPDEST JUMPDEST DUP1 PUSH1 0x40 MSTORE POP POP POP JUMP JUMPDEST PUSH1 0x0 PUSH2 0x2F1F DUP3 PUSH2 0x2E65 JUMP JUMPDEST SWAP2 POP PUSH32 0xFFFFFFFFFFFFFFFFFFFFFFFFFFFFFFFFFFFFFFFFFFFFFFFFFFFFFFFFFFFFFFFF DUP3 EQ ISZERO PUSH2 0x2F52 JUMPI PUSH2 0x2F51 PUSH2 0x2F5D JUMP JUMPDEST JUMPDEST PUSH1 0x1 DUP3 ADD SWAP1 POP SWAP2 SWAP1 POP JUMP JUMPDEST PUSH32 0x4E487B7100000000000000000000000000000000000000000000000000000000 PUSH1 0x0 MSTORE PUSH1 0x11 PUSH1 0x4 MSTORE PUSH1 0x24 PUSH1 0x0 REVERT JUMPDEST PUSH32 0x4E487B7100000000000000000000000000000000000000000000000000000000 PUSH1 0x0 MSTORE PUSH1 0x12 PUSH1 0x4 MSTORE PUSH1 0x24 PUSH1 0x0 REVERT JUMPDEST PUSH32 0x4E487B7100000000000000000000000000000000000000000000000000000000 PUSH1 0x0 MSTORE PUSH1 0x22 PUSH1 0x4 MSTORE PUSH1 0x24 PUSH1 0x0 REVERT JUMPDEST PUSH32 0x4E487B7100000000000000000000000000000000000000000000000000000000 PUSH1 0x0 MSTORE PUSH1 0x41 PUSH1 0x4 MSTORE PUSH1 0x24 PUSH1 0x0 REVERT JUMPDEST PUSH1 0x0 PUSH1 0x1F NOT PUSH1 0x1F DUP4 ADD AND SWAP1 POP SWAP2 SWAP1 POP JUMP JUMPDEST PUSH32 0x5468616E6B20796F7520666F7220646F6E6174696E672C20596F752068617665 PUSH1 0x0 DUP3 ADD MSTORE PUSH32 0x20726563696576656420566F74696E6720526967687473210000000000000000 PUSH1 0x20 DUP3 ADD MSTORE POP JUMP JUMPDEST PUSH32 0x41646D696E732063616E27742072657175657374000000000000000000000000 PUSH1 0x0 DUP3 ADD MSTORE POP JUMP JUMPDEST PUSH32 0x4E657720476C6F62616C2056616C7565207365742E2057696C6C206265207570 PUSH1 0x0 DUP3 ADD MSTORE PUSH32 0x646174656420696E20616C6C206E65772070726F706F73616C73206D61646520 PUSH1 0x20 DUP3 ADD MSTORE PUSH32 0x6865726561667465720000000000000000000000000000000000000000000000 PUSH1 0x40 DUP3 ADD MSTORE POP JUMP JUMPDEST PUSH32 0x596F757220766F746520686173206265656E2063617374656420737563636573 PUSH1 0x0 DUP3 ADD MSTORE PUSH32 0x7366756C6C792100000000000000000000000000000000000000000000000000 PUSH1 0x20 DUP3 ADD MSTORE POP JUMP JUMPDEST PUSH32 0x43616E6E6F742063726F7373203939252E2055736520612076616C7565206265 PUSH1 0x0 DUP3 ADD MSTORE PUSH32 0x747765656E20302D393900000000000000000000000000000000000000000000 PUSH1 0x20 DUP3 ADD MSTORE POP JUMP JUMPDEST PUSH32 0x4D757374206861766520646F6E61746564206F722073686F756C642062652061 PUSH1 0x0 DUP3 ADD MSTORE PUSH32 0x6E2061646D696E20746F2063726561746520612070726F706F73616C00000000 PUSH1 0x20 DUP3 ADD MSTORE POP JUMP JUMPDEST PUSH32 0x5265717565737465722073686F756C6420626520616E2061646D696E206F6666 PUSH1 0x0 DUP3 ADD MSTORE PUSH32 0x696369616C000000000000000000000000000000000000000000000000000000 PUSH1 0x20 DUP3 ADD MSTORE POP JUMP JUMPDEST PUSH32 0x556E617070726F7665642070726F706F73616C732063616E6E6F7420756E6465 PUSH1 0x0 DUP3 ADD MSTORE PUSH32 0x72676F20612062616C6C6F74207365636C7573696F6E206368616E6765000000 PUSH1 0x20 DUP3 ADD MSTORE POP JUMP JUMPDEST PUSH32 0x416C726561647920766F74656420666F7220746869732070726F706F73616C2E PUSH1 0x0 DUP3 ADD MSTORE PUSH32 0x2043616E6E6F742072652D636173740000000000000000000000000000000000 PUSH1 0x20 DUP3 ADD MSTORE POP JUMP JUMPDEST PUSH32 0x4E6F7420656E6F75676820746F20646F6E617465207468652072657175657374 PUSH1 0x0 DUP3 ADD MSTORE PUSH32 0x656420616D6F756E740000000000000000000000000000000000000000000000 PUSH1 0x20 DUP3 ADD MSTORE POP JUMP JUMPDEST PUSH32 0x596F75722072696768747320686173206265656E20646F6E6174656420737563 PUSH1 0x0 DUP3 ADD MSTORE PUSH32 0x6365737366756C6C792100000000000000000000000000000000000000000000 PUSH1 0x20 DUP3 ADD MSTORE POP JUMP JUMPDEST PUSH32 0x596F757220275269676874732720446F6E6174696F6E20726571756573742068 PUSH1 0x0 DUP3 ADD MSTORE PUSH32 0x6173206265656E207375626D6974746564207375636365737366756C6C792100 PUSH1 0x20 DUP3 ADD MSTORE POP JUMP JUMPDEST PUSH32 0x54686973206D6574686F642063616E206F6E6C792062652063616C6C65642062 PUSH1 0x0 DUP3 ADD MSTORE PUSH32 0x7920616E2061646D696E00000000000000000000000000000000000000000000 PUSH1 0x20 DUP3 ADD MSTORE POP JUMP JUMPDEST PUSH32 0x5468652070726F706F73616C2069736E277420617070726F7665640000000000 PUSH1 0x0 DUP3 ADD MSTORE POP JUMP JUMPDEST PUSH32 0x596F75722050726F706F73616C20686173206265656E207375626D6974746564 PUSH1 0x0 DUP3 ADD MSTORE PUSH32 0x207375636365737366756C6C7921000000000000000000000000000000000000 PUSH1 0x20 DUP3 ADD MSTORE POP JUMP JUMPDEST PUSH2 0x34AE DUP2 PUSH2 0x2E15 JUMP JUMPDEST DUP2 EQ PUSH2 0x34B9 JUMPI PUSH1 0x0 DUP1 REVERT JUMPDEST POP JUMP JUMPDEST PUSH2 0x34C5 DUP2 PUSH2 0x2E27 JUMP JUMPDEST DUP2 EQ PUSH2 0x34D0 JUMPI PUSH1 0x0 DUP1 REVERT JUMPDEST POP JUMP JUMPDEST PUSH2 0x34DC DUP2 PUSH2 0x2E39 JUMP JUMPDEST DUP2 EQ PUSH2 0x34E7 JUMPI PUSH1 0x0 DUP1 REVERT JUMPDEST POP JUMP JUMPDEST PUSH2 0x34F3 DUP2 PUSH2 0x2E65 JUMP JUMPDEST DUP2 EQ PUSH2 0x34FE JUMPI PUSH1 0x0 DUP1 REVERT JUMPDEST POP JUMP INVALID LOG2 PUSH5 0x6970667358 0x22 SLT KECCAK256 0xD0 DUP4 DUP14 0xEF 0xA7 SLOAD SELFBALANCE PUSH26 0x24C1297B3BB334622BAF2C776CF048190F250AB41BAF0FED6473 PUSH16 0x6C634300080400330000000000000000 "
        },
        "methodIdentifiers": {
          "addAdmin(address)": "70480275",
          "allProposals(uint256)": "938351b8",
          "donate(bool)": "412fc32a",
          "donateVotingRights(uint256,uint256)": "d00a71c6",
          "hasVotedToProposal(address,uint256)": "70bc8539",
          "isAdmin(address)": "24d7806c",
          "makeProposal(string,string,uint256,address)": "8c67d420",
          "makeRightsDonationProposal(string)": "3bcfe167",
          "myProposals(address,uint256)": "48985deb",
          "myVotingRightsRequest(address)": "318670cb",
          "removeAdmin(address)": "1785f53c",
          "setBallotSeclusionById(uint256,uint256)": "27b7c1ba",
          "setGlobalBallotSeclusion(uint256)": "d4591563",
          "totalIndividualDonations(address)": "fda4527a",
          "vote(uint256,bool)": "c9d27afe",
          "votingRights(address)": "a8fef100",
          "votingRightsRequestQueue(uint256)": "583f5ba1",
          "wipeBalance()": "71e8ff01"
        }
      }
    }
  }
}